:100000000C9464000C948C000C948C000C948C0068
:100010000C948C000C948C000C948C000C948C0030
:100020000C948C000C948C000C948C000C941D0A85
:100030000C948C000C948C000C948C000C948C0010
:100040000C941F0C0C948C000C940B0F0C943D0F13
:100050000C948C000C948C000C948C000C948C00F0
:100060000C948C000C948C0000000008000201002D
:100070000003040700000000000000000102040863
:100080001020408001020408102001020408102002
:10009000040404040404040402020202020203032E
:1000A00003030303000000002300260029000000D2
:1000B0000000250028002B0000000000240027007D
:1000C0002A0047076D0F600711241FBECFEFD8E04D
:1000D000DEBFCDBF11E0A0E0B1E0E4E9FEE202C086
:1000E00005900D92AC3EB107D9F722E0ACEEB1E03D
:1000F00001C01D92AF3EB207E1F710E0C6ECD0E0C0
:1001000004C02297FE010E948D14C23CD107C9F79A
:100110000E94B10F0C943D170C940000BC018EE4BA
:1001200092E00C94271068E271E08EE492E00C9467
:1001300039106AE271E08EE492E00C943910CF92AB
:10014000DF92EF92FF92CF93DF9340E060E080E098
:100150000E94100A6B017C01C0E0D0E089EF91E0C1
:100160000E94190AC817D90748F4A7019601BE01D1
:1001700089EF91E00E94C8092196F0CF89EF91E0C4
:10018000DF91CF91FF90EF90DF90CF900C94050915
:100190008095853540F4982F990F980F492F60E08E
:1001A000892F809512C08A3A40F48555682F660FD2
:1001B000680F462F409580E008C096E5980F892F7C
:1001C000880F890F682F609540E00C94100A0F93F8
:1001D0001F93CF93DF9300D000D000D0CDB7DEB710
:1001E0006CE271E0CE0101960E940011CE010196F1
:1001F0000E948E00CE0101960E9492108091F7011C
:100200009091F80101968F3F910509F02CF490939D
:10021000F8018093F70104C01092F8011092F701E1
:1002200000E010E089EF91E00E94190A0817190711
:1002300078F48091F701800F0E94C8009B01AC0107
:10024000B80189EF91E00E94C8090F5F1F4FEACF04
:1002500089EF91E00E94050964E170E080E090E0A0
:100260000E94980C2091F4018091F5019091F60183
:100270002223A1F001969093F6018093F5018CE082
:1002800092E00E94970890E02091F5013091F601EC
:1002900028173907FCF01092F4010BC001979093D6
:1002A000F6018093F50118161906A4F081E08093F9
:1002B000F4018091F2019091F30101969093F30182
:1002C0008093F201079734F081E090E09093F3017E
:1002D0008093F2014091F2016091F5018CE092E08F
:1002E0000E9440088CE092E00E94F70726960FB625
:1002F000F894DEBF0FBECDBFDF91CF911F910F915C
:100300000895BF92CF92DF92EF92FF920F931F93C7
:10031000CF93DF93E12CF12CCC24CA94D12CC0E0F4
:10032000D0E000E010E089EF91E00E94190A081780
:100330001907A0F4C8018E0D9F1DB6010E942B1451
:100340000E94C8009B01AC01B8016C0F7D1F89EFB2
:1003500091E00E94C8090D5F1F4FE5CF89EF91E042
:100360000E94050910E08CE092E00E94970818179F
:1003700058F544E0612F8CE092E00E94400861E073
:10038000610F46E08CE092E00E94400862E0610F5D
:1003900042E08CE092E00E94400863E0610F43E09D
:1003A0008CE092E00E94400864E0610F41E08CE044
:1003B00092E00E94400865E0610F45E08CE092E029
:1003C0000E9440081A5FCFCF8CE092E00E94F707AE
:1003D00000E08CE092E00E949708081790F560E03A
:1003E0008CE092E00E941408B82E11E08CE092E0BC
:1003F0000E949708181770F4612F8CE092E00E9419
:1004000014086FEF610F482F8CE092E00E944008C3
:100410001F5FECCF8CE092E00E9497086FEF680FAF
:100420004B2D8CE092E00E9440088CE092E00E940C
:10043000F70769E170E080E090E00E94980C0F5FA0
:10044000C8CF00E010E089EF91E00E94190A081778
:10045000190768F4B8016C0F7D1F20E030E0A90196
:1004600089EF91E00E94C8090D5F1F4FECCF2196E4
:10047000C330D10509F055CF82E3E80EF11C8CE2C0
:10048000E81681E0F80609F04ACFDF91CF911F917D
:100490000F91FF90EF90DF90CF90BF900895CF9293
:1004A000DF92EF92FF92CF93DF93EB019B01281B2A
:1004B000390BC9010E942B147B018CE092E00E9451
:1004C0009708382F3E9DC0013F9D900D1124BC011F
:1004D000882777FD8095982F0E941C130E94D612C2
:1004E00020E030E040E85FE30E9471120E94E912D0
:1004F0006B017C0116161706A4F542E08CE092E031
:100500000E9440088CE092E00E94F70748EC60E00F
:1005100080E00E94100A9B01AC01B60189EF91E0D6
:100520000E94C80989EF91E00E9405098CE092E0E1
:100530000E949708682F70E0CE010E942B14882734
:1005400077FD8095982F0E941C130E9457130E94DC
:10055000EE12DF91CF91FF90EF90DF90CF900C944F
:10056000980CDF91CF91FF90EF90DF90CF9008959E
:100570001F93CF93DF93182FC0E0D0E08CE092E080
:100580000E949708282F30E0C217D30744F4412F68
:100590006C2F8CE092E00E9440082196EFCFDF9113
:1005A000CF911F9108952F923F924F925F926F9239
:1005B0007F928F929F92AF92BF92CF92DF92EF92F3
:1005C000FF920F931F93CF93DF9300D000D000D002
:1005D000CDB7DEB78C017B010E94690C4B015C0139
:1005E00088EE93E0E89E1001E99E300CF89E300CF6
:1005F00011242101662457FC6094762C86E090E05B
:100600000E94B8028CE092E00E94F70767E371E075
:10061000CE0101960E940011CE0101960E948E002B
:10062000CE0101960E949210C12CD12C7601C414E7
:10063000D504E604F70400F50130110529F0023075
:10064000110549F48BE001C08DE00E949D0D892BBE
:1006500011F481E023C00E94690C6B017C01C81871
:10066000D908EA08FB088091ED01882301F3B10164
:10067000C6010E944F02DBCF6CE471E0CE0101960F
:100680000E940011CE0101960E948E00CE010196BB
:100690000E94921081E0012B09F080E026960FB6AF
:1006A000F894DEBF0FBECDBFDF91CF911F910F91A8
:1006B000FF90EF90DF90CF90BF90AF909F908F9082
:1006C0007F906F905F904F903F902F900895CF93C1
:1006D000DF93C3E0D0E086E090E00E94B8028CE0B7
:1006E00092E00E94F70768EC70E080E090E00E94E2
:1006F000980C82E090E00E94B8028CE092E00E94A8
:10070000F70768EC70E080E090E00E94980C219779
:1007100011F7DF91CF91089580911001909111010F
:100720009093EF018093EE016091EE017091EF01E3
:1007300080910E0190910F018617970784F08CE14C
:1007400092E00E94BA0B64E070E080E090E00E94CA
:10075000980C8091EE019091EF010196E1CF089500
:1007600080910E0190910F019093EF018093EE0123
:100770006091EE017091EF01809110019091110153
:100780006817790784F08CE192E00E94BA0B64E06C
:1007900070E080E090E00E94980C8091EE019091D2
:1007A000EF010197E1CF089560911001709111015F
:1007B0008CE192E00C94BA0BEF92FF920F931F938F
:1007C000CF93DF938C01C0E0D0E07C0181E0E81A98
:1007D000F108C017D107ECF40E948C0360910C0162
:1007E00070910D01882777FD8095982F0E94980CB5
:1007F0000E94B003CE15DF0551F060910A0170919F
:100800000B01882777FD8095982F0E94980C2196E0
:10081000E0CFDF91CF911F910F91FF90EF9008955E
:10082000CF93C82F811102C060E001C061E08AE06F
:100830000E94670DC093EC0185E090E0CF910C948D
:10084000C00C81E00C94100480E00C941004892BFF
:1008500011F060E001C061E084E00E94670D82E079
:1008600090E00C94C00C61E084E00E942E0D61E0E9
:1008700087E00E942E0D61E08AE00E942E0D61E06B
:100880008FEF0E942E0D61E08FEF0E942E0D60E031
:100890008DE00E942E0D61E08DE00E94670D60E00A
:1008A0008BE00E942E0D61E08BE00E94670D60E0FE
:1008B00081E10E942E0D61E081E10E94670D61E0FF
:1008C0008FEF0E942E0D61E08FEF0E942E0D61E0F0
:1008D0008FEF0E942E0D61E08FEF0E94670D61E0A7
:1008E0008FEF0E94670D80E090E00E94270480E077
:1008F0000E94100463E170E08CE192E00E94730BAF
:1009000089EF91E00E94F80889EF91E00E940509C3
:1009100080E090E00E94B80226E040E855E260E006
:1009200070E08EE492E00E94A90E6EE571E08EE424
:1009300092E00E94391081E090E00E94270481E05B
:100940000E9410040E94D40364EF71E080E090E004
:100950000E94980C8CE192E00C94790BCF93DF937A
:1009600000D000D000D0CDB7DEB781E10E949D0D50
:100970000197F1F461EC71E08EE492E00E9439108D
:1009800080E090E00E9427041092F1011092F001A3
:100990006BE771E0CE0101960E940011CE01019635
:1009A0000E948E00CE0101960E94921081E001C04B
:1009B00080E026960FB6F894DEBF0FBECDBFDF9164
:1009C000CF91089560E087E00E94670D82E090E09B
:1009D0000E94C00C61E087E00E94670D82E090E019
:1009E0000E94C00C60E087E00C94670DAF92BF924C
:1009F000CF92DF92EF92FF920F931F93CF93DF93EB
:100A0000C091F001D091F1018C01000F111FF8018C
:100A1000EC5EFE4F808191818C179D0709F490C098
:100A2000C817D90760F40E94210463E871E08EE4DE
:100A300092E00E943910CC24C394D12C0BC00E94A8
:100A400024046AE871E08EE492E00E943910CC241C
:100A5000CA94DC2C81E090E00E94270462E370E0FD
:100A600080E090E00E94980CC8018C5E9E4F7C0153
:100A70009CEDA92E95E0B92E2091F0013091F10165
:100A8000F7018081918128173907D1F10E94750CF7
:100A90002091F0013091F1012C173D0721F0C9019F
:100AA0008C1B9D0B02C080E090E0F70140815181DA
:100AB0002417350719F0241B350B02C020E030E065
:100AC0008C3DF5E09F0724F48501081B190B0AC033
:100AD0002C3D45E0340724F48501021B130B02C0B2
:100AE00000E010E00E94E204809112019091130155
:100AF000800F911F0E94C00C0E94AE04882339F021
:100B00008091ED01882371F00E9467030BC08091F2
:100B1000F0019091F1018C0D9D1D9093F101809356
:100B2000F001AACF80E090E0DF91CF911F910F916B
:100B3000FF90EF90DF90CF90BF90AF900C94270480
:100B4000DF91CF911F910F91FF90EF90DF90CF90A9
:100B5000BF90AF900895CF93DF9300D000D000D026
:100B6000CDB7DEB70E94240481E090E00E94270404
:100B700061E971E0CE0101960E940011CE0101965B
:100B80000E948E00CE0101960E9492100E94AE0437
:100B9000811109C00E94E204809112019091130119
:100BA0000E94C00CF3CF26960FB6F894DEBF0FBE9E
:100BB000CDBFDF91CF9108954F925F926F927F9258
:100BC0008F929F92AF92BF92CF92DF92EF92FF925D
:100BD0000F931F93CF93DF93CDB7DEB72C970FB64C
:100BE000F894DEBF0FBECDBF5C0163EA71E0CE01B9
:100BF00001960E940011CE0101960E948E00CE0146
:100C000001960E949210B501CE0101960E942D110D
:100C1000CE0101960E948E00CE0101960E94921094
:100C200061EB71E0CE0107960E940011BE01695F81
:100C30007F4FC5010E94D0118823A9F06AEB71E0B3
:100C4000CE0101960E940011BE016F5F7F4FC5016A
:100C50000E94DF1111E0811101C010E0CE01019668
:100C60000E94921001C010E0CE0107960E949210DF
:100C7000112309F4F5C063EB71E0C5010E948D11E9
:100C8000882389F06CEB71E0CE0101960E9400117F
:100C9000CE0101960E948E00CE0101960E94921014
:100CA0000E94AB0586C066EC71E0CE0101960E9401
:100CB0000011BE016F5F7F4FC5010E94D011182F38
:100CC000CE0101960E949210112309F478C067ECBE
:100CD00071E0CE0101960E940011CE0101960E94A2
:100CE0008E00CE0101960E9492106CE7C5010E9411
:100CF0001C1201967C01AC016CE7C5010E94001238
:100D00006C014C018FEF881A980AA4016CE7C501A9
:100D10000E9400128C019601A701B501CE01019637
:100D20000E942012CE0101960E9465126B017C0187
:100D3000CE0101960E9492109801A401B501CE0146
:100D400001960E942012CE0101960E9465122B018D
:100D50003C01CE0101960E949210F501248135815B
:100D6000A8014F5F5F4FB501CE0101960E9420128E
:100D7000CE0101960E9465124B015C01CE010196E5
:100D80000E9492108A9489288A288B2851F0809199
:100D9000ED01882331F080E090E00E94B8020E94CB
:100DA0009F000E94AB05B201C6010E94D3028823B6
:100DB00019F00E94930054C00E94990051C060ED48
:100DC00071E0CE0101960E940011CE0101960E94B1
:100DD0008E00CE0101960E9492106CE7C5010E9420
:100DE0001C124C019C0141E050E0B501CE0101967E
:100DF0000E942012CE0101960E9465126B017C01B7
:100E0000CE0101960E949210F50124813581A40142
:100E10004F5F5F4FB501CE0101960E942012CE01B7
:100E200001960E9465122B013C01CE0101960E94A1
:100E30009210C6010E94F604C2010E94DC03C11494
:100E4000D10409F0B6CF4114510409F0B2CF80911A
:100E5000ED01882309F4ADCF8EE10E948101A9CF75
:100E60002C960FB6F894DEBF0FBECDBFDF91CF91A9
:100E70001F910F91FF90EF90DF90CF90BF90AF90B8
:100E80009F908F907F906F905F904F9008950F93F9
:100E90008CE192E00E94D90A02E226E030E045E0CF
:100EA00050E069E070E08CE092E00E94570823E097
:100EB00042E160E170E089EF91E00F910C949A08B3
:100EC00089EF91E00C94E908CF93DF93CDB7DEB7BB
:100ED0002C970FB6F894DEBF0FBECDBF8EE492E024
:100EE0000E94C60D181619067CF56BEB71E0CE0159
:100EF00007960E9400118EE492E00E94C60D892B95
:100F000081F08EE492E00E94DF0D682FCE010796FB
:100F10000E947A1162E070E080E090E00E94980CFC
:100F2000EACFBE01695F7F4FCE0101960E942D116D
:100F3000CE0101960E94DC05CE0101960E9492101E
:100F4000CE0107960E9492108091ED0181110E94BE
:100F5000E70062E370E080E090E00E94980C2C963D
:100F60000FB6F894DEBF0FBECDBFDF91CF910895CD
:100F7000EF92FF920F931F93CF93DF938C01C7E003
:100F8000D0E0E62EF12CC7010C2E02C09595879576
:100F90000A94E2F780FF02C061E001C060E0F8015E
:100FA00080810E94670D61E0F80183810E94670DD6
:100FB00060E0F80183810E94670D219720F7DF919F
:100FC000CF911F910F91FF90EF900895CF93DF93F2
:100FD000EC0161E08A810E94670D81E090E00E944F
:100FE000C00C60E08A81DF91CF910C94670D1F9354
:100FF000CF93DF93EC0110E02F85121778F430E0E7
:1010000021503109211B3109ED85FE85E20FF31FC7
:101010006081CE010E94B8071F5FEECFCE01DF9145
:10102000CF911F910C94E607DC011F962C911F971E
:10103000261720F11D96ED91FC911E97E60FF11DEC
:101040006081862F807321E030E011F420E030E0F1
:10105000A901440F551F21E030E0862F8C7011F458
:1010600020E030E0C901880F991F880F991F842B59
:10107000637091E009F490E0892B089580E0089571
:10108000DC011F962C91261788F040FD02C020E855
:1010900001C021E842FD246041FD2061DC011D9674
:1010A000ED91FC911E97E60FF11D208308950F939B
:1010B0001F93CF93DF93EC0168838FEF89834A837B
:1010C0002B831C820F87802F90E00E94A0149E87A4
:1010D0008D8710E0101739F040E0612FCE010E949B
:1010E00040081F5FF7CF60E088810E94670D61E0D4
:1010F00088810E942E0D60E089810E94670D61E069
:1011000089810E942E0D60E08A810E94670D61E056
:101110008A810E942E0D60E08B810E94670D61E044
:101120008B81DF91CF911F910F910C942E0DFC01BB
:1011300087850895FF920F931F93CF93DF93EC0160
:10114000F22E798368838B01000F111F060F171F82
:101150001B830A834C831D822B871C861D861E865B
:101160001F8650E0FA01E057FF4FE491F0E0EE0FE8
:10117000FF1FE255FF4F85919491998B888BFA015F
:10118000E458FF4F44914A8BC8010E94A0149F83EA
:101190008E83009729F0A80160E070E00E94C116DC
:1011A000F0FE04C081E0888719860BC0F2FE06C0FD
:1011B00081E0888782E089871A8605C0188681E0E9
:1011C000898782E08A87DF91CF911F910F91FF90ED
:1011D0000895CF93DF93EC018E819F81009711F0EA
:1011E0000E94381560E08C81DF91CF910C942E0D18
:1011F000CF93DF93EC0161E08C810E942E0D60E0C3
:101200008C81DF91CF910C94670DCF92DF92EF929A
:10121000FF920F931F93CF93DF93CDB7DEB729973C
:101220000FB6F894DEBF0FBECDBF8C01DC01169661
:101230008D919C911797892B09F49BC00E94750C86
:10124000F801C484D584E684F7846C197D098E097D
:101250009F09623371058105910580F3F8948281BD
:1012600093819A838983A681B7817D01EFEFEE1A7E
:10127000FE0A8C918987D8011B969C911B975096EA
:101280000D90BC91A02DF801828991FF2EC09C91F8
:10129000982B98879C91809589238F838F818E834B
:1012A00088E08D8358856F8149853D812E818981B4
:1012B0009A81F7015C9347FD252F3A952C93262FB1
:1012C00039F0441F00C000006C93000000C0F2CF52
:1012D00038E041916C930000019761F7F801B18B00
:1012E000A08B49873D832E8338C09C91982B98878B
:1012F0009C91809589238F838F818C8388E08B8359
:1013000058856F8149853B812C8189819A81F701BC
:101310005C9347FD252F00C000C02C9300C000C087
:1013200000C000C000C06C930000262F3A9541F029
:10133000441F000000C000C000C000C000C0E8CFD3
:1013400038E0419100C06C9300C0019709F7F801A3
:10135000B18BA08B49873B832C839A8389837894B4
:101360000E94750CD8011C966D937D938D939C9370
:101370001F9729960FB6F894DEBF0FBECDBFDF9141
:10138000CF911F910F91FF90EF90DF90CF90089534
:10139000CF92DF92EF92FF920F931F93CF93DF9341
:1013A000FC01808191816817790788F5CA01AA2715
:1013B000BB27082FC32ED42EE52EFF241C2DD22FA1
:1013C000C581CC2361F08C9FC0011124092FCC9ED4
:1013D000600111241D2D2C9F90011124D32F9B01FE
:1013E000220F331F260F371F86819781820F931F8D
:1013F0002085DC01A20FB11D0C932185DC01A20F19
:10140000B11D1C932285FC01E20FF11DD083DF91F9
:10141000CF911F910F91FF90EF90DF90CF900895A3
:10142000962F50E060E070E0592B682BCB01BA0199
:101430000895FC018081918108951F920F920FB64B
:101440000F9211242F933F934F935F936F937F934A
:101450008F939F93AF93BF93EF93FF93809120025D
:1014600087FF05C010928500109284001AC0209159
:101470002002332727FD309580911F0290E0281726
:1014800039077CF480912002992787FD9095FC0113
:10149000EE0FFF1FE80FF91FEF5DFD4F808186FD06
:1014A00015C0809120028F5F80932002209120023E
:1014B000332727FD309580911F0290E028173907C8
:1014C000BCF4809120028C305CF112C0809120022B
:1014D000992787FD9095FC01EE0FFF1FE80FF91F7C
:1014E000EF5DFD4F808160E08F730E94670DD9CF63
:1014F0008091840090918500049680349C4918F472
:1015000080E49CE905C08091840090918500049658
:1015100090938900809388008FEF8093200238C0D9
:10152000809184009091850020912002332727FD2F
:101530003095F901EE0FFF1FE20FF31FEF5DFD4F36
:1015400021813281820F931F9093890080938800BC
:1015500080912002992787FD9095FC01EE0FFF1FD7
:10156000E80FF91FEF5DFD4F808186FF11C080916C
:101570002002992787FD9095FC01EE0FFF1FE80FD1
:10158000F91FEF5DFD4F808161E08F730E94670D51
:10159000FF91EF91BF91AF919F918F917F916F914B
:1015A0005F914F913F912F910F900FBE0F901F9021
:1015B000189520911F022C30A0F431E0320F3093A7
:1015C0001F02FC012283822F90E0FC01EE0FFF1F1F
:1015D000E80FF91FEF5DFD4F88EB9BE0928381835D
:1015E00008952FEFFC0122830895DF92EF92FF927E
:1015F0000F931F93CF93DF93EC01D62E7A018901CD
:101600008A818C3008F066C061E08D2D0E942E0D1D
:101610008A81A82FB0E0FD01EE0FFF1FEA0FFB1F2C
:10162000EF5DFD4F2D2D2F739081907C922B908339
:1016300060E272E06E197F0977FF02C06D5F7F4F35
:101640007595679575956795688340E659E0401BE9
:10165000510B57FF02C04D5F5F4F5595479555950C
:10166000479549836CE00E940B149CE0899FB00170
:10167000112420E030E0A901460F571FFA01EE0FB8
:10168000FF1FE40FF51FEF5DFD4F908196FD16C023
:101690002F5F3F4F2C30310571F781110FC0109231
:1016A000800082E080938100109285001092840077
:1016B000B19A80916F00826080936F008A8190E080
:1016C000FC01EE0FFF1FE80FF91FEF5DFD4F80815A
:1016D000806480838A81DF91CF911F910F91FF9069
:1016E000EF90DF90089520E639E040E252E00C945C
:1016F000F50AFC01828190E0FC01EE0FFF1FE80F6C
:10170000F91FEF5DFD4F80818F7B80830895FC0181
:1017100082818C3070F5908128E830E0291B3109F6
:1017200097FD3395220F331F220F331F6217730764
:101730007CF0918128E532E0291B310997FD339532
:10174000220F331F220F331F621773070CF49B0104
:101750004FB7F89490E0FC01EE0FFF1FE80FF91F60
:10176000EF5DFD4F22503109220F331F3283218359
:101770004FBF08954F925F926F927F92AF92BF9248
:10178000CF92DF92EF92FF920F931F93CF93DF934D
:10179000EC01603282E078070CF040C077FD06C0B3
:1017A000653B71052CF064EB70E002C060E070E016
:1017B000888128E830E0281B310987FD3395220F06
:1017C000331F220F331F5901CC24B7FCC094DC2CEB
:1017D000882777FD8095982F298148E552E0421BA4
:1017E000510927FD5395440F551F440F551F2A01DA
:1017F000662457FC6094762C7F926F925F924F9292
:1018000014EBE12EF12C00E010E020E030E0A90123
:101810000E944B100F900F900F900F90CE01DF9110
:10182000CF911F910F91FF90EF90DF90CF90BF90DD
:10183000AF907F906F905F904F900C94870B1F92AA
:101840000F920FB60F9211242F933F938F939F9374
:10185000AF93BF938091460290914702A0914802B6
:10186000B09149023091450223E0230F2D3720F437
:101870000196A11DB11D05C026E8230F0296A11DEA
:10188000B11D209345028093460290934702A09396
:101890004802B093490280914A0290914B02A09174
:1018A0004C02B0914D020196A11DB11D80934A02D8
:1018B00090934B02A0934C02B0934D02BF91AF9115
:1018C0009F918F913F912F910F900FBE0F901F907E
:1018D00018952FB7F8946091460270914702809155
:1018E0004802909149022FBF08953FB7F894809124
:1018F0004A0290914B02A0914C02B0914D0226B544
:10190000A89B05C02F3F19F00196A11DB11D3FBF37
:101910006627782F892F9A2F620F711D811D911DC7
:1019200042E0660F771F881F991F4A95D1F70895E7
:10193000CF92DF92EF92FF92CF93DF936B017C0106
:101940000E94750CEB01C114D104E104F10489F08B
:101950000E9470120E94750C6C1B7D0B683E7340D8
:1019600090F381E0C81AD108E108F108C851DC4FB2
:10197000EACFDF91CF91FF90EF90DF90CF90089565
:10198000019739F0880F991F880F991F02970197C7
:10199000F1F70895789484B5826084BD84B5816040
:1019A00084BD85B5826085BD85B5816085BDEEE667
:1019B000F0E0808181608083E1E8F0E01082808146
:1019C00082608083808181608083E0E8F0E08081B4
:1019D00081608083E1EBF0E0808184608083E0EBD4
:1019E000F0E0808181608083EAE7F0E080818460BC
:1019F0008083808182608083808181608083808118
:101A0000806880831092C1000895833081F028F4AB
:101A1000813099F08230A1F008958730A9F08830A4
:101A2000B9F08430D1F4809180008F7D03C0809123
:101A300080008F7780938000089584B58F7702C0EF
:101A400084B58F7D84BD08958091B0008F7703C0E9
:101A50008091B0008F7D8093B0000895CF93DF9385
:101A600090E0FC01E458FF4F2491FC01E057FF4F48
:101A70008491882349F190E0880F991FFC01E85474
:101A8000FF4FA591B49182559F4FFC01C591D49110
:101A90009FB7611108C0F8948C91209582238C9394
:101AA000888182230AC0623051F4F8948C91322FDD
:101AB000309583238C938881822B888304C0F8948B
:101AC0008C91822B8C939FBFDF91CF9108950F93C0
:101AD0001F93CF93DF931F92CDB7DEB7282F30E04F
:101AE000F901E859FF4F8491F901E458FF4F14912F
:101AF000F901E057FF4F04910023C9F0882321F03A
:101B000069830E94050D6981E02FF0E0EE0FFF1F51
:101B1000E255FF4FA591B4919FB7F8948C91611154
:101B200003C01095812301C0812B8C939FBF0F9020
:101B3000DF91CF911F910F910895CF93DF93282FBD
:101B400030E0F901E859FF4F8491F901E458FF4F63
:101B5000D491F901E057FF4FC491CC2391F081114A
:101B60000E94050DEC2FF0E0EE0FFF1FEC55FF4F2C
:101B7000A591B4912C912D2381E090E021F480E097
:101B800002C080E090E0DF91CF910895FC01818D4B
:101B9000228D90E0805C9F4F821B91098F73992763
:101BA0000895FC01918D828D981731F0828DE80F98
:101BB000F11D858D90E008958FEF9FEF0895FC0152
:101BC000918D828D981761F0828DDF01A80FB11D74
:101BD0005D968C91928D9F5F9F73928F90E0089598
:101BE0008FEF9FEF089583E69FE0892B49F080E017
:101BF00090E0892B29F00E94630F81110C94000062
:101C00000895FC01848DDF01A80FB11DA35ABF4FB9
:101C10002C91848D90E001968F739927848FA689EB
:101C2000B7892C93A089B1898C9180648C93938D12
:101C3000848D981306C00288F389E02D80818F7D02
:101C400080830895CF93DF93EC01888D8823C9F0BA
:101C5000EA89FB89808185FD05C0A889B9898C91B5
:101C600086FD0FC00FB607FCF5CF808185FFF2CF50
:101C7000A889B9898C9185FFEDCFCE010E94010E14
:101C8000E7CFDF91CF910895CF92DF92FF920F932C
:101C90001F93CF93DF931F92CDB7DEB76C01DC01AA
:101CA0005B969C915B975C968C915C97981307C0B0
:101CB0005096ED91FC915197808185FD32C0F601DF
:101CC000038D10E00F5F1F4F0F731127F02EF601E9
:101CD000848DF81211C00FB607FCF9CFD6015096CB
:101CE000ED91FC915197808185FFF1CFC601698309
:101CF0000E94010E6981EBCF838DE80FF11DE35A3D
:101D0000FF4F6083D6015B960C935B975296ED91E3
:101D1000FC91539780818062808381E058968C93F8
:101D20000DC0D6015696ED91FC9157976083509661
:101D3000ED91FC91519780818064808381E090E0F7
:101D40000F90DF91CF911F910F91FF90DF90CF9077
:101D50000895BF92CF92DF92EF92FF92CF93DF93DD
:101D6000EC016A017B01B22EE889F98982E0808367
:101D7000411581EE580761057105A1F060E079E039
:101D80008DE390E0A70196010E943F142150310994
:101D9000410951095695479537952795211580E1B9
:101DA000380798F0E889F989108260E874E88EE1D4
:101DB00090E0A70196010E943F142150310941098A
:101DC00051095695479537952795EC85FD853083C4
:101DD000EE85FF852083188EEC89FD89B082EA8923
:101DE000FB89808180618083EA89FB8980818860AA
:101DF0008083EA89FB89808180688083EA89FB8906
:101E000080818F7D8083DF91CF91FF90EF90DF9075
:101E1000CF90BF9008951F920F920FB60F9211248A
:101E20002F938F939F93EF93FF93E0915E02F09136
:101E30005F028081E0916402F091650282FD12C030
:101E40009081809167028F5F8F7320916802821763
:101E500051F0E0916702F0E0E25BFD4F958F8093D7
:101E6000670201C08081FF91EF919F918F912F9127
:101E70000F900FBE0F901F9018951F920F920FB6E4
:101E80000F9211242F933F934F935F936F937F9300
:101E90008F939F93AF93BF93EF93FF938EE492E062
:101EA0000E94010EFF91EF91BF91AF919F918F9191
:101EB0007F916F915F914F913F912F910F900FBE46
:101EC0000F901F9018958EE492E00E94C60D21E0BD
:101ED000892B09F420E0822F08951092510210926C
:101EE000500288EE93E0A0E0B0E08093520290931D
:101EF0005302A0935402B09355028FED91E090935A
:101F00004F0280934E0285EC90E090935B028093A9
:101F10005A0284EC90E090935D0280935C0280EC26
:101F200090E090935F0280935E0281EC90E090934A
:101F300061028093600282EC90E090936302809350
:101F4000620286EC90E090936502809364021092A6
:101F50006702109268021092690210926A02089554
:101F600008950E94CA0C0E94B00F0E943304C3EF70
:101F7000DDE00E9464072097E1F30E94F30DF9CFA2
:101F8000CF92DF92EF92FF920F931F93CF93DF9345
:101F90006C017A01EB01E60EF71E00E010E0CE15B1
:101FA000DF0561F06991D601ED91FC910190F0811E
:101FB000E02DC6010995080F191FF1CFC801DF9167
:101FC000CF911F910F91FF90EF90DF90CF900895E8
:101FD0006115710581F0DB010D900020E9F7AD017D
:101FE00041505109461B570BDC01ED91FC910280D9
:101FF000F381E02D099480E090E00895DC01ED91FB
:10200000FC91DB0114964D915C9115976D917C913B
:102010000280F381E02D0994DC01ED91FC910190A7
:10202000F081E02D09940F931F93CF93DF93EC0180
:102030006DE00E940C108C016AE0CE010E940C1031
:10204000800F911FDF91CF911F910F9108950F93F2
:102050001F93CF93DF93EC010E94FE0F8C01CE0102
:102060000E941310800F911FDF91CF911F910F914C
:1020700008950F931F93CF93DF93EC010E94E80F15
:102080008C01CE010E941310800F911FDF91CF9120
:102090001F910F9108954F925F926F927F92AF922E
:1020A000BF92CF92DF92EF92FF920F931F93CF9345
:1020B000DF93CDB7DEB729013A01621B730B840BA6
:1020C000950B29893A894B895C892A193B094C0966
:1020D0005D09298B3A8B4B8B5C8B9B01AC01698929
:1020E0007A898B899C890E94FB13E418F5080609FC
:1020F0001709A80197010E9461142A0D3B1D4C1D70
:102100005D1DCA01B901DF91CF911F910F91FF9021
:10211000EF90DF90CF90BF90AF907F906F905F90E7
:102120004F900895FC01808191810C943815CF93D4
:10213000DF93EC0188819981009711F00E94381596
:10214000198218821D821C821B821A82DF91CF9114
:1021500008950F931F93CF93DF93EC018B016F5F73
:102160007F4F888199810E94C715009731F099832C
:1021700088831B830A8381E001C080E0DF91CF91D7
:102180001F910F910895CF93DF93EC01888199817E
:10219000892B29F08A819B818617970760F4CE01ED
:1021A0000E94A910882341F08C819D81892B19F40C
:1021B000E881F981108281E0DF91CF910895EF925B
:1021C000FF920F931F93CF93DF93EC017B018A0162
:1021D000BA010E94C310811104C0CE010E94971061
:1021E00007C01D830C83B701888199810E94DC168A
:1021F000CE01DF91CF911F910F91FF90EF90089545
:10220000FC011182108213821282158214826115E0
:10221000710559F0FB0101900020E9F7AF01415031
:102220005109461B570B0C94DF100895CF93DF9391
:10223000EC01FB018617970761F0608171816115E0
:10224000710529F0448155810E94DF1002C00E946F
:102250009710CE01DF91CF910895FC011182108279
:1022600013821282158214820C941611CF93DF937D
:10227000EC016115710561F0FB0101900020E9F7A7
:10228000AF0141505109461B570B0E94DF1002C09D
:102290000E949710CE01DF91CF910895EF92FF92A7
:1022A0000F931F93CF93DF93EC017B010C811D8172
:1022B0006115710511F480E016C04115510591F0CA
:1022C000040F151FB8010E94C3108823A1F32881B1
:1022D00039818C819D81B701820F931F0E94DC168A
:1022E0001D830C8381E0DF91CF911F910F91FF90AF
:1022F000EF900895CF93DF9300D0CDB7DEB7698319
:102300001A8241E050E0BE016F5F7F4F0E944E1184
:102310000F900F90DF91CF910895FC0124813581BA
:10232000232B31F421E061157105A1F0FB0108C0F8
:10233000FC01808191816115710531F421E0FC017E
:102340008081882339F005C00E94D31621E0892BB3
:1023500009F020E0822F0895FA01DB0114964D91D7
:102360005C911597DC0114962D913C911597241BD7
:10237000350B2E173F0788F08D919C91009769F0DF
:10238000DB016D917C916115710539F08E0F9F1FF6
:102390000E94E31621E0892B09F020E0822F0895A6
:1023A000FC0144815581FB0124813581421753078B
:1023B00020F040E050E00C94AC1180E00895FC0166
:1023C00084819581DB0114964D915C91159784175A
:1023D000950798F0208131812115310571F06D91BB
:1023E0007C916115710549F0841B950B820F931F39
:1023F0000E94D31621E0892B09F020E0822F089556
:10240000CF93DF93FC01848195814817590778F4B5
:10241000C081D181772767FD7095CE01840F951F0C
:102420000E94C816009719F08C1B9D0B02C08FEFFD
:102430009FEFDF91CF91089540E050E00C9400129F
:10244000BF92CF92DF92EF92FF920F931F93CF93A1
:10245000DF936C017B01EA0189012417350720F421
:102460008D2FE901042F182F6BEB71E0C6010E943C
:102470000011D70114968D919C911597C817D90713
:10248000C8F48017910708F48C01D701ED91FC91F5
:102490001197E00FF11FB08010826D917C916C0F4D
:1024A0007D1FC6010E943611D701ED91FC91E00F0E
:1024B000F11FB082C601DF91CF911F910F91FF9064
:1024C000EF90DF90CF90BF900895FC0180819181C3
:1024D000009711F00C94911660E070E0CB01089524
:1024E00008955058BB27AA270ED034C125D130F00B
:1024F0002AD120F031F49F3F11F41EF41AC10EF4DA
:10250000E095E7FBE7C0E92F36D180F3BA17620701
:1025100073078407950718F071F49EF565C10EF4F2
:10252000E0950B2EBA2FA02D0B01B90190010C01E3
:10253000CA01A0011124FF27591B99F0593F50F4FB
:10254000503E68F11A16F040A22F232F342F442753
:10255000585FF3CF469537952795A795F04053954B
:10256000C9F77EF41F16BA0B620B730B840BBAF01B
:102570009150A1F0FF0FBB1F661F771F881FC2F786
:102580000EC0BA0F621F731F841F48F4879577959A
:102590006795B795F7959E3F08F0B3CF9395880F51
:1025A00008F09927EE0F97958795089506D180F04A
:1025B0009F3740F491110EF418C160E070E080E89C
:1025C0009FE3089526F01B16611D711D811D88C0B3
:1025D000A2C004D06894B11108C10895D4D088F085
:1025E0009F5790F0B92F9927B751A0F0D1F0660FFF
:1025F000771F881F991F1AF0BA95C9F712C0B1301A
:1026000081F0F2D0B1E00895EFC0672F782F8827CE
:10261000B85F39F0B93FCCF3869577956795B39558
:10262000D9F73EF490958095709561957F4F8F4FC7
:102630009F4F0895E89409C097FB3EF490958095CC
:10264000709561957F4F8F4F9F4F9923A9F0F92F78
:1026500096E9BB279395F695879577956795B795F6
:10266000F111F8CFFAF4BB0F11F460FF1BC06F5FDC
:102670007F4F8F4F9F4F16C0882311F096E911C0EE
:10268000772321F09EE8872F762F05C0662371F00F
:1026900096E8862F70E060E02AF09A95660F771F23
:1026A000881FDAF7880F9695879597F9089585D052
:1026B00080F09F3740F491110EF097C060E070E019
:1026C00080E89FEB089526F41B16611D711D811D86
:1026D00007C021C097F99F6780E870E060E0089527
:1026E000882371F4772321F09850872B762F07C029
:1026F000662311F499270DC09051862B70E060E09D
:102700002AF09A95660F771F881FDAF7880F96953B
:10271000879597F908959F3F31F0915020F4879560
:1027200077956795B795880F911D9695879597F939
:1027300008959FEF80EC089500240A94161617065A
:1027400018060906089500240A94121613061406A2
:1027500005060895092E0394000C11F4882352F005
:10276000BB0F40F4BF2B11F460FF04C06F5F7F4FBD
:102770008F4F9F4F089557FD9058440F551F59F0A4
:102780005F3F71F04795880F97FB991F61F09F3F5E
:1027900079F087950895121613061406551FF2CF87
:1027A0004695F1DF08C0161617061806991FF1CFD7
:1027B00086957105610508940895E5DFA0F0BEE7F0
:1027C000B91788F4BB279F3860F41616B11D672F20
:1027D000782F8827985FF7CF869577956795B11DF5
:1027E00093959639C8F30895E894BB276627772711
:1027F000CB0197F90895DB018F939F930E9480147A
:10280000BF91AF91A29F800D911DA39F900DB29F8C
:10281000900D11240895991B79E004C0991F961713
:1028200008F0961B881F7A95C9F780950895AA1B12
:10283000BB1B51E107C0AA1FBB1FA617B70710F0AB
:10284000A61BB70B881F991F5A95A9F780959095DD
:10285000BC01CD01089597FB072E16F4009407D014
:1028600077FD09D00E94171407FC05D03EF490951F
:1028700081959F4F0895709561957F4F0895A1E2CE
:102880001A2EAA1BBB1BFD010DC0AA1FBB1FEE1FEA
:10289000FF1FA217B307E407F50720F0A21BB30B35
:1028A000E40BF50B661F771F881F991F1A9469F7B1
:1028B00060957095809590959B01AC01BD01CF010D
:1028C0000895052E97FB1EF400940E94781457FD7E
:1028D00007D00E943F1407FC03D04EF40C947814E8
:1028E00050954095309521953F4F4F4F5F4F08953C
:1028F00090958095709561957F4F8F4F9F4F08956C
:102900000E949114A59F900DB49F900DA49F800DDF
:10291000911D11240895EE0FFF1F0590F491E02DF5
:102920000994A29FB001B39FC001A39F700D811DA8
:102930001124911DB29F700D811D1124911D0895C8
:10294000CF93DF938230910510F482E090E0E09124
:10295000ED02F091EE0220E030E0A0E0B0E0309730
:1029600039F14081518148175907B8F04817590784
:1029700071F482819381109729F013969C938E9322
:1029800012972CC09093EE028093ED0227C0211580
:10299000310531F04217530718F0A901DB0101C0DE
:1029A000EF019A01BD01DF010280F381E02DD7CF55
:1029B00021153105F9F0281B390B2430310580F43D
:1029C0008A819B816115710521F0FB0193838283CC
:1029D00004C09093EE028093ED02FE01329644C053
:1029E000FE01E20FF31F8193919322503109398345
:1029F00028833AC02091EB023091EC02232B41F462
:102A000020910201309103013093EC022093EB02FC
:102A100020910001309101012115310541F42DB7BC
:102A20003EB74091040150910501241B350BE09104
:102A3000EB02F091EC02E217F307A0F42E1B3F0B20
:102A40002817390778F0AC014E5F5F4F2417350720
:102A500048F04E0F5F1F5093EC024093EB028193BE
:102A6000919302C0E0E0F0E0CF01DF91CF910895B3
:102A7000CF93DF93009709F487C0FC01329713824C
:102A80001282C091ED02D091EE02209781F4208154
:102A90003181280F391F8091EB029091EC0282174F
:102AA000930779F5F093EC02E093EB026DC0DE0141
:102AB00020E030E0AE17BF0750F412964D915C91C4
:102AC00013979D014115510509F1DA01F3CFB38345
:102AD000A28340815181840F951F8A179B0771F44F
:102AE0008D919C911197840F951F029691838083FD
:102AF00012968D919C9113979383828321153105B2
:102B000029F4F093EE02E093ED023EC0D901139652
:102B1000FC93EE9312974D915D91A40FB51FEA17A8
:102B2000FB0779F480819181840F951F0296D9016A
:102B300011969C938E938281938113969C938E938E
:102B40001297E0E0F0E08A819B81009719F0FE0186
:102B5000EC01F9CFCE01029628813981820F931FB3
:102B60002091EB023091EC022817390769F4309775
:102B700029F41092EE021092ED0202C0138212822A
:102B8000D093EC02C093EB02DF91CF910895A0E0C7
:102B9000B0E0EDECF5E10C940A17EC01CB012097C5
:102BA00019F40E94A014B8C0FE01E60FF71F9E01A1
:102BB00022503109E217F30708F4ACC0D9010D9196
:102BC0001C91119706171707B8F00530110508F486
:102BD0009FC0A801445051094617570708F498C0F0
:102BE00002501109061B170B019311936D937C93EF
:102BF000CF010E9438158CC05B01A01AB10A4E01AA
:102C0000800E911EA091ED02B091EE02612C712C0C
:102C100060E070E0109709F449C0A815B905C9F53E
:102C2000ED90FC901197670142E0C40ED11CCA14CC
:102C3000DB0478F147018A189B08640142E0C40E66
:102C4000D11C1296BC9012971396AC91B5E0CB169E
:102C5000D10440F0B282A38391828082D9018D9306
:102C60009C9309C00E5F1F4F0E0D1F1DF9011183AC
:102C70000083EB2DFA2F6115710531F0DB011396FE
:102C8000FC93EE93129744C0F093EE02E093ED02B2
:102C90003FC06D917C9111976616770608F43B0151
:102CA000BD0112960D90BC91A02DB4CF6091EB02A6
:102CB0007091EC0268157905E9F468167906D0F48C
:102CC00040910001509101014115510541F44DB76A
:102CD0005EB76091040170910501461B570BE41724
:102CE000F507C0F4F093EC02E093EB02F901918355
:102CF00080830EC00E94A0147C01009759F0A801A7
:102D0000BE010E94B816CE010E943815C70104C04A
:102D1000CE0102C080E090E0CDB7DEB7EEE00C94CB
:102D200026171F93FC0199278827BC01E89411916D
:102D30001032E9F3193010F01E30C8F31B3251F095
:102D40001D3249F4689406C00E94F116610F711D8E
:102D5000811D911D119110531A30B0F33EF49095DE
:102D60008095709561957F4F8F4F9F4F1F9108956C
:102D7000FB01DC0102C001900D9241505040D8F798
:102D80000895DC0101C06D9341505040E0F7089573
:102D9000FC018191861721F08823D9F7992708959E
:102DA0003197CF010895FB01DC018D9101908019CD
:102DB0000110D9F3990B0895FB01DC0101900D92EC
:102DC0000020E1F70895FB01DC014150504030F054
:102DD0008D910190801919F40020B9F7881B990B87
:102DE0000895592F482F372F262F660F771F881FDA
:102DF000991F660F771F881F991F620F731F841F0B
:102E0000951F660F771F881F991F08952F923F9275
:102E10004F925F926F927F928F929F92AF92BF92EA
:102E2000CF92DF92EF92FF920F931F93CF93DF9396
:102E3000CDB7DEB7CA1BDB0B0FB6F894DEBF0FBEF3
:102E4000CDBF09942A88398848885F846E847D8440
:102E50008C849B84AA84B984C884DF80EE80FD8042
:102E60000C811B81AA81B981CE0FD11D0FB6F894B8
:102E7000DEBF0FBECDBFED01089510E0C6ECD0E07F
:102E800004C0FE010E948D142296C83CD107C9F7E8
:042E9000F894FFCFE4
:102E94000000EF02800001000000D007AC0D5A00D2
:102EA4001E00960000009C183831D44970620C7BD7
:102EB400A89344ACE0C47CDD3100320049646C6505
:102EC4004C69676874730057616974696E67466F0B
:102ED4007241637469766174696F6E0045786974D0
:102EE400696E6741637469766174696F6E005374C7
:102EF400617274696E6720737465707065722064A2
:102F04006576207465737465722E00476F74486F1C
:102F14006D6500476F2046572000476F20425720B9
:102F240000476F696E67486F6D6546756E637469B7
:102F34006F6E00476F742061206D65737361676500
:102F440000210021476F486F6D650A00476F696E65
:102F540067486F6D6500214E65774472696E6B003A
:102F64004469726563746976657300000000004407
:0C2F74000EC00FC60DDF0DD10D220E00A7
:00000001FF
