:100000000C9464000C948C000C948C000C948C0068
:100010000C948C000C948C000C948C000C948C0030
:100020000C948C000C948C000C948C000C94BD09E6
:100030000C948C000C948C000C948C000C948C0010
:100040000C94BF0B0C948C000C94AB0E0C94DD0E36
:100050000C948C000C948C000C948C000C948C00F0
:100060000C948C000C948C0000000008000201002D
:100070000003040700000000000000000102040863
:100080001020408001020408102001020408102002
:10009000040404040404040402020202020203032E
:1000A00003030303000000002300260029000000D2
:1000B0000000250028002B0000000000240027007D
:1000C0002A00ED060D0F060711241FBECFEFD8E062
:1000D000DEBFCDBF11E0A0E0B1E0E2E9FEE202C088
:1000E00005900D92AE3DB107D9F722E0AEEDB1E03B
:1000F00001C01D92A13EB207E1F710E0C6ECD0E0CE
:1001000004C02297FE010E944C14C23CD107C9F7DB
:100110000E94510F0C943C170C940000BC0180E429
:1001200092E00C94C70F68E271E080E492E00C94D6
:10013000D90F6AE271E080E492E00C94D90F8095C7
:10014000853540F4982F990F980F492F60E0892F3B
:10015000809512C08A3A40F48555682F660F680F63
:10016000462F409580E008C096E5980F892F880FAC
:10017000890F682F609540E00C94B0090F931F938E
:10018000CF93DF9300D000D000D0CDB7DEB76CE2C4
:1001900071E0CE0101960E94A010CE0101960E944E
:1001A0008E00CE0101960E9432108091E90190915B
:1001B000EA0101968F3F910509F02CF49093EA0132
:1001C0008093E90104C01092EA011092E90100E075
:1001D00010E08BEE91E00E94B9090817190778F436
:1001E0008091E901800F0E949F009B01AC01B80142
:1001F0008BEE91E00E9468090F5F1F4FEACF8BEEF4
:1002000091E00E94A50864E170E080E090E00E9427
:10021000380C2091E6018091E7019091E8012223BA
:10022000A1F001969093E8018093E7018EEF91E0B1
:100230000E94370890E02091E7013091E8012817EB
:100240003907FCF01092E6010BC001979093E8018A
:100250008093E70118161906A4F081E08093E60167
:100260008091E4019091E50101969093E5018093DE
:10027000E401079734F081E090E09093E5018093EA
:10028000E4014091E4016091E7018EEF91E00E946A
:10029000E0078EEF91E00E94970726960FB6F8943C
:1002A000DEBF0FBECDBFDF91CF911F910F9108959B
:1002B000BF92CF92DF92EF92FF920F931F93CF9353
:1002C000DF93E12CF12CCC24CA94D12CC0E0D0E0F7
:1002D00000E010E08BEE91E00E94B90908171907C1
:1002E000A0F4C8018E0D9F1DB6010E94EA130E9462
:1002F0009F009B01AC01B8016C0F7D1F8BEE91E05C
:100300000E9468090D5F1F4FE5CF8BEE91E00E94C0
:10031000A50810E08EEF91E00E943708181758F5F5
:1003200044E0612F8EEF91E00E94E00761E0610FF1
:1003300046E08EEF91E00E94E00762E0610F42E04C
:100340008EEF91E00E94E00763E0610F43E08EEFE3
:1003500091E00E94E00764E0610F41E08EEF91E0E0
:100360000E94E00765E0610F45E08EEF91E00E949A
:10037000E0071A5FCFCF8EEF91E00E94970700E071
:100380008EEF91E00E943708081790F560E08EEF3D
:1003900091E00E94B407B82E11E08EEF91E00E9428
:1003A0003708181770F4612F8EEF91E00E94B407A0
:1003B0006FEF610F482F8EEF91E00E94E0071F5F03
:1003C000ECCF8EEF91E00E9437086FEF680F4B2D56
:1003D0008EEF91E00E94E0078EEF91E00E94970778
:1003E00069E170E080E090E00E94380C0F5FC8CFB8
:1003F00000E010E08BEE91E00E94B90908171907A0
:1004000068F4B8016C0F7D1F20E030E0A9018BEE8D
:1004100091E00E9468090D5F1F4FECCF2196C33019
:10042000D10509F055CF82E3E80EF11C8CE2E81605
:1004300081E0F80609F04ACFDF91CF911F910F912B
:10044000FF90EF90DF90CF90BF900895CF92DF9212
:10045000EF92FF92CF93DF93EB019B01281B390BA7
:10046000C9010E94EA137B018EEF91E00E943708D8
:10047000382F3E9DC0013F9D900D1124BC0188275F
:1004800077FD8095982F0E94DB120E94951220E044
:1004900030E040E85FE30E9430120E94A8126B0136
:1004A0007C0116161706A4F542E08EEF91E00E943B
:1004B000E0078EEF91E00E94970748EC60E080E053
:1004C0000E94B0099B01AC01B6018BEE91E00E9445
:1004D00068098BEE91E00E94A5088EEF91E00E94E2
:1004E0003708682F70E0CE010E94EA13882777FD55
:1004F0008095982F0E94DB120E9416130E94AD1265
:10050000DF91CF91FF90EF90DF90CF900C94380C5B
:10051000DF91CF91FF90EF90DF90CF9008951F93E0
:10052000CF93DF93182FC0E0D0E08EEF91E00E94D0
:100530003708282F30E0C217D30744F4412F6C2F1F
:100540008EEF91E00E94E0072196EFCFDF91CF91EF
:100550001F9108952F923F924F925F926F927F92D8
:100560008F929F92AF92BF92CF92DF92EF92FF92C3
:100570000F931F93CF93DF9300D000D000D0CDB75F
:10058000DEB78C017B010E94090C4B015C0188EEF7
:1005900093E0E89E1001E99E300CF89E300C112487
:1005A0002101662457FC6094762C86E090E00E943E
:1005B0008F028EEF91E00E94970767E371E0CE0112
:1005C00001960E94A010CE0101960E948E00CE01DD
:1005D00001960E943210C12CD12C7601C414D5048E
:1005E000E604F70400F50130110529F00230110589
:1005F00049F48BE001C08DE00E943D0D892B11F480
:1006000081E023C00E94090C6B017C01C818D90845
:10061000EA08FB088091DF01882301F3B101C601DC
:100620000E942602DBCF6CE471E0CE0101960E94AD
:10063000A010CE0101960E948E00CE0101960E946C
:10064000321081E0012B09F080E026960FB6F89475
:10065000DEBF0FBECDBFDF91CF911F910F91FF90F5
:10066000EF90DF90CF90BF90AF909F908F907F9052
:100670006F905F904F903F902F900895CF93DF93AE
:10068000C3E0D0E086E090E00E948F028EEF91E020
:100690000E94970768EC70E080E090E00E94380CC0
:1006A00082E090E00E948F028EEF91E00E94970717
:1006B00068EC70E080E090E00E94380C219711F720
:1006C000DF91CF9108958091100190911101909345
:1006D000E1018093E0016091E0017091E10180917E
:1006E0000E0190910F018617970784F08EE092E03B
:1006F0000E945A0B64E070E080E090E00E94380CA9
:100700008091E0019091E1010196E1CF08958091FF
:100710000E0190910F019093E1018093E0016091AF
:10072000E0017091E1018091100190911101681731
:10073000790784F08EE092E00E945A0B64E070E04A
:1007400080E090E00E94380C8091E0019091E101FE
:100750000197E1CF089560911001709111018EE031
:1007600092E00C945A0BEF92FF920F931F93CF934A
:10077000DF938C01C0E0D0E07C0181E0E81AF10851
:10078000C017D107ECF40E94630360910C017091D3
:100790000D01882777FD8095982F0E94380C0E94C4
:1007A0008703CE15DF0551F060910A0170910B01AE
:1007B000882777FD8095982F0E94380C2196E0CFEE
:1007C000DF91CF911F910F91FF90EF900895CF93FC
:1007D000C82F811102C060E001C061E08AE00E9480
:1007E000070DC093DE0185E090E0CF910C94600C82
:1007F00081E00C94E70380E00C94E703892B11F06F
:1008000060E001C061E084E00E94070D82E090E0BA
:100810000C94600C61E084E00E94CE0C61E087E003
:100820000E94CE0C61E08AE00E94CE0C61E08FEF66
:100830000E94CE0C61E08FEF0E94CE0C60E08DE054
:100840000E94CE0C61E08DE00E94070D60E08BE01D
:100850000E94CE0C61E08BE00E94070D60E081E118
:100860000E94CE0C61E081E10E94070D61E08FEFF4
:100870000E94CE0C61E08FEF0E94CE0C61E08FEF02
:100880000E94CE0C61E08FEF0E94070D61E08FEFB8
:100890000E94070D80E090E00E94FE0380E00E942D
:1008A000E70363E170E08EE092E00E94130B8BEEB1
:1008B00091E00E9498088BEE91E00E94A50826E046
:1008C00040E855E260E070E080E492E00E94490E6A
:1008D0006EE571E080E492E00E94D90F81E090E043
:1008E0000E94FE0381E00E94E7030E94AB0364EFD5
:1008F00071E080E090E00E94380C8EE092E00C9471
:10090000190B81E10E943D0D019781F463EB71E0C9
:1009100080E492E00E94D90F80E090E00E94FE0304
:100920001092E3011092E20181E0089580E00895C1
:1009300060E087E00E94070D82E090E00E94600C7A
:1009400061E087E00E94070D82E090E00E94600C69
:1009500060E087E00C94070DAF92BF92CF92DF92D8
:10096000EF92FF920F931F93CF93DF93C091E20119
:10097000D091E3018C01000F111FF801EC5EFE4FD6
:10098000808191818C179D0709F490C0C817D90701
:1009900060F40E94F8036BE771E080E492E00E944B
:1009A000D90FCC24C394D12C0BC00E94FB0362E866
:1009B00071E080E492E00E94D90FCC24CA94DC2C30
:1009C00081E090E00E94FE0362E370E080E090E04E
:1009D0000E94380CC8018C5E9E4F7C019CEDA92EB4
:1009E00095E0B92E2091E2013091E301F701808179
:1009F000918128173907D1F10E94150C2091E2014D
:100A00003091E3012C173D0721F0C9018C1B9D0B90
:100A100002C080E090E0F701408151812417350742
:100A200019F0241B350B02C020E030E08C3DF5E0CE
:100A30009F0724F48501081B190B0AC02C3D45E0D3
:100A4000340724F48501021B130B02C000E010E000
:100A50000E9498048091120190911301800F911FC0
:100A60000E94600C0E948104882339F08091DF018C
:100A7000882371F00E943E030BC08091E2019091A7
:100A8000E3018C0D9D1D9093E3018093E201AACFB9
:100A900080E090E0DF91CF911F910F91FF90EF9058
:100AA000DF90CF90BF90AF900C94FE03DF91CF9179
:100AB0001F910F91FF90EF90DF90CF90BF90AF907C
:100AC0000895CF93DF9300D000D000D0CDB7DEB72C
:100AD0000E94FB0369E871E0CE0101960E94A0101C
:100AE000CE0101960E948E00CE0101960E94321026
:100AF0000E948104882349F00E9498048091120189
:100B0000909113010E94600CF3CF6BE971E0CE016C
:100B100001960E94A010CE0101960E948E00CE0187
:100B200001960E94321026960FB6F894DEBF0FBED3
:100B3000CDBFDF91CF9108954F925F926F927F92D8
:100B4000AF92BF92CF92DF92EF92FF920F931F93DB
:100B5000CF93DF93CDB7DEB72C970FB6F894DEBFF7
:100B60000FBECDBF5C01BC01CE0101960E94CD102D
:100B7000CE0101960E948E00CE0101960E94321095
:100B800063EA71E0CE0107960E94A010BE01695F82
:100B90007F4FC5010E948F118823A9F06CEA71E094
:100BA000CE0101960E94A010BE016F5F7F4FC5016C
:100BB0000E949E1111E0811101C010E0CE0101964A
:100BC0000E94321001C010E0CE0107960E94321040
:100BD000112309F4EDC065EA71E0C5010E944C11D2
:100BE000882389F06EEA71E0CE0101960E94A01080
:100BF000CE0101960E948E00CE0101960E94321015
:100C00000E9461057EC068EB71E0CE0101960E94F2
:100C1000A010BE016F5F7F4FC5010E948F11182F7A
:100C2000CE0101960E943210112309F470C069EBC5
:100C300071E0CE0101960E94A010CE0101960E94A3
:100C40008E00CE0101960E9432106CE7C5010E9411
:100C5000DB1101967C01AC016CE7C5010E94BF115C
:100C60006C013C018FEF681A780AA3016CE7C5019B
:100C70000E94BF118C019601A701B501CE0101961A
:100C80000E94DF11CE0101960E9424126B017C01AB
:100C9000CE0101960E9432109801A301B501CE0148
:100CA00001960E94DF11CE0101960E9424122B01B1
:100CB0003C01CE0101960E943210F501248135815C
:100CC000A8014F5F5F4FB501CE0101960E94DF1171
:100CD000CE0101960E94241221E061307105810548
:100CE000910509F020E02093DF01CE0101960E94DA
:100CF00032100E946105B201C6010E94AA02882337
:100D000019F00E94930054C00E94990051C062ECF7
:100D100071E0CE0101960E94A010CE0101960E94C2
:100D20008E00CE0101960E9432106CE7C5010E9430
:100D3000DB113C019C0141E050E0B501CE01019680
:100D40000E94DF11CE0101960E9424126B017C01EA
:100D5000CE0101960E943210F50124813581A30154
:100D60004F5F5F4FB501CE0101960E94DF11CE01AA
:100D700001960E9424122B013C01CE0101960E9493
:100D80003210C6010E94AC04C2010E94B303C11418
:100D9000D10409F0B6CF4114510409F0B2CF8091CB
:100DA000DF01882309F4ADCF8EE10E945801A9CF5D
:100DB0002C960FB6F894DEBF0FBECDBFDF91CF915A
:100DC0001F910F91FF90EF90DF90CF90BF90AF9069
:100DD0007F906F905F904F9008950F938EE092E018
:100DE0000E94790A02E226E030E045E050E069E046
:100DF00070E08EEF91E00E94F70723E042E160E1AE
:100E000070E08BEE91E00F910C943A088BEE91E03C
:100E10000C948908CF93DF93CDB7DEB72C970FB62C
:100E2000F894DEBF0FBECDBF80E492E00E94660D55
:100E3000181619064CF56DEA71E0CE0107960E946E
:100E4000A01080E492E00E94660D892B51F080E4AE
:100E500092E00E947F0DBC01CE0107960E941A11FC
:100E6000F0CFBE01695F7F4FCE0101960E94CD1089
:100E7000CE0101960E949C05CE0101960E9432107F
:100E8000CE0107960E9432108091DF0181110E94ED
:100E9000BE0062E370E080E090E00E94380C2C9687
:100EA0000FB6F894DEBF0FBECDBFDF91CF9108958E
:100EB000EF92FF920F931F93CF93DF938C01C7E0C4
:100EC000D0E0E62EF12CC7010C2E02C09595879537
:100ED0000A94E2F780FF02C061E001C060E0F8011F
:100EE00080810E94070D61E0F80183810E94070D57
:100EF00060E0F80183810E94070D219720F7DF91C0
:100F0000CF911F910F91FF90EF900895CF93DF93B2
:100F1000EC0161E08A810E94070D81E090E00E946F
:100F2000600C60E08A81DF91CF910C94070D1F93D4
:100F3000CF93DF93EC0110E02F85121778F430E0A7
:100F400021503109211B3109ED85FE85E20FF31F88
:100F50006081CE010E9458071F5FEECFCE01DF9166
:100F6000CF911F910C948607DC011F962C911F973F
:100F7000261720F11D96ED91FC911E97E60FF11DAD
:100F80006081862F807321E030E011F420E030E0B2
:100F9000A901440F551F21E030E0862F8C7011F419
:100FA00020E030E0C901880F991F880F991F842B1A
:100FB000637091E009F490E0892B089580E0089532
:100FC000DC011F962C91261788F040FD02C020E816
:100FD00001C021E842FD246041FD2061DC011D9635
:100FE000ED91FC911E97E60FF11D208308950F935C
:100FF0001F93CF93DF93EC0168838FEF89834A833C
:101000002B831C820F87802F90E00E945F149E87A5
:101010008D8710E0101739F040E0612FCE010E945B
:10102000E0071F5FF7CF60E088810E94070D61E055
:1010300088810E94CE0C60E089810E94070D61E0EA
:1010400089810E94CE0C60E08A810E94070D61E0D8
:101050008A810E94CE0C60E08B810E94070D61E0C6
:101060008B81DF91CF911F910F910C94CE0CFC01DD
:1010700087850895FF920F931F93CF93DF93EC0121
:10108000F22E798368838B01000F111F060F171F43
:101090001B830A834C831D822B871C861D861E861C
:1010A0001F8650E0FA01E057FF4FE491F0E0EE0FA9
:1010B000FF1FE255FF4F85919491998B888BFA0120
:1010C000E458FF4F44914A8BC8010E945F149F83EC
:1010D0008E83009729F0A80160E070E00E948016DE
:1010E000F0FE04C081E0888719860BC0F2FE06C0BE
:1010F00081E0888782E089871A8605C0188681E0AA
:10110000898782E08A87DF91CF911F910F91FF90AD
:101110000895CF93DF93EC018E819F81009711F0AA
:101120000E94F71460E08C81DF91CF910C94CE0C7B
:10113000CF93DF93EC0161E08C810E94CE0C60E0E4
:101140008C81DF91CF910C94070DCF92DF92EF92BB
:10115000FF920F931F93CF93DF93CDB7DEB72997FD
:101160000FB6F894DEBF0FBECDBF8C01DC01169622
:101170008D919C911797892B09F49BC00E94150CA7
:10118000F801C484D584E684F7846C197D098E093E
:101190009F09623371058105910580F3F89482817E
:1011A00093819A838983A681B7817D01EFEFEE1A3F
:1011B000FE0A8C918987D8011B969C911B975096AB
:1011C0000D90BC91A02DF801828991FF2EC09C91B9
:1011D000982B98879C91809589238F838F818E830C
:1011E00088E08D8358856F8149853D812E81898175
:1011F0009A81F7015C9347FD252F3A952C93262F72
:1012000039F0441F00C000006C93000000C0F2CF12
:1012100038E041916C930000019761F7F801B18BC0
:10122000A08B49873D832E8338C09C91982B98874B
:101230009C91809589238F838F818C8388E08B8319
:1012400058856F8149853B812C8189819A81F7017D
:101250005C9347FD252F00C000C02C9300C000C048
:1012600000C000C000C06C930000262F3A9541F0EA
:10127000441F000000C000C000C000C000C0E8CF94
:1012800038E0419100C06C9300C0019709F7F80164
:10129000B18BA08B49873B832C839A838983789475
:1012A0000E94150CD8011C966D937D938D939C9391
:1012B0001F9729960FB6F894DEBF0FBECDBFDF9102
:1012C000CF911F910F91FF90EF90DF90CF900895F5
:1012D000CF92DF92EF92FF920F931F93CF93DF9302
:1012E000FC01808191816817790788F5CA01AA27D6
:1012F000BB27082FC32ED42EE52EFF241C2DD22F62
:10130000C581CC2361F08C9FC0011124092FCC9E94
:10131000600111241D2D2C9F90011124D32F9B01BE
:10132000220F331F260F371F86819781820F931F4D
:101330002085DC01A20FB11D0C932185DC01A20FD9
:10134000B11D1C932285FC01E20FF11DD083DF91BA
:10135000CF911F910F91FF90EF90DF90CF90089564
:10136000962F50E060E070E0592B682BCB01BA015A
:101370000895FC018081918108951F920F920FB60C
:101380000F9211242F933F934F935F936F937F930B
:101390008F939F93AF93BF93EF93FF93809112022C
:1013A00087FF05C010928500109284001AC020911A
:1013B0001202332727FD30958091110290E0281703
:1013C00039077CF480911202992787FD9095FC01E2
:1013D000EE0FFF1FE80FF91FED5EFD4F808186FDC8
:1013E00015C0809112028F5F809312022091120229
:1013F000332727FD30958091110290E02817390797
:10140000BCF4809112028C305CF112C08091120207
:10141000992787FD9095FC01EE0FFF1FE80FF91F3C
:10142000ED5EFD4F808160E08F730E94070DD9CF84
:101430008091840090918500049680349C4918F432
:1014400080E49CE905C08091840090918500049619
:1014500090938900809388008FEF8093120238C0A8
:10146000209184003091850080911202992787FD98
:101470009095FC01EE0FFF1FE80FF91FED5EFD4F89
:1014800081819281820F931F9093890080938800BD
:1014900080911202992787FD9095FC01EE0FFF1FA6
:1014A000E80FF91FED5EFD4F808186FF11C080912E
:1014B0001202992787FD9095FC01EE0FFF1FE80FA0
:1014C000F91FED5EFD4F808161E08F730E94070D73
:1014D000FF91EF91BF91AF919F918F917F916F910C
:1014E0005F914F913F912F910F900FBE0F901F90E2
:1014F0001895209111022C30A0F431E0320F309376
:101500001102FC012083822F90E0FC01EE0FFF1FEF
:10151000E80FF91FED5EFD4F88EB9BE0928381831E
:1015200008952FEFFC0120830895DF92EF92FF9240
:101530000F931F93CF93DF93EC01D62E7A0189018D
:1015400088818C3008F066C061E08D2D0E94CE0C41
:101550008881A82FB0E0FD01EE0FFF1FEA0FFB1FEF
:10156000ED5EFD4F2D2D2F739081907C922B9083FB
:1015700060E272E06E197F0977FF02C06D5F7F4FF6
:101580007595679575956795698340E659E0401BA9
:10159000510B57FF02C04D5F5F4F559547955595CD
:1015A00047954A836CE00E94CA139CE0899FB00172
:1015B000112420E030E0A901460F571FFA01EE0F79
:1015C000FF1FE40FF51FED5EFD4F908196FD16C0E5
:1015D0002F5F3F4F2C30310571F781110FC01092F2
:1015E000800082E080938100109285001092840038
:1015F000B19A80916F00826080936F00888190E043
:10160000FC01EE0FFF1FE80FF91FED5EFD4F80811B
:10161000806480838881DF91CF911F910F91FF902B
:10162000EF90DF90089520E639E040E252E00C941C
:10163000950AFC01808190E0FC01EE0FFF1FE80F8E
:10164000F91FED5EFD4F80818F7B80830895FC0143
:1016500080818C3070F5918128E830E0291B3109B8
:1016600097FD3395220F331F220F331F6217730725
:101670007CF0928128E532E0291B310997FD3395F2
:10168000220F331F220F331F621773070CF49B01C5
:1016900022503109220F331F4FB7F89490E0FC011C
:1016A000EE0FFF1FE80FF91FED5EFD4F3283218320
:1016B0004FBF08954F925F926F927F92AF92BF9209
:1016C000CF92DF92EF92FF920F931F93CF93DF930E
:1016D000EC01603282E078070CF040C077FD06C074
:1016E000653B71052CF064EB70E002C060E070E0D7
:1016F000898128E830E0281B310987FD3395220FC6
:10170000331F220F331F5901CC24B7FCC094DC2CAB
:10171000882777FD8095982F2A8148E552E0421B63
:10172000510927FD5395440F551F440F551F2A019A
:10173000662457FC6094762C7F926F925F924F9252
:1017400014EBE12EF12C00E010E020E030E0A901E4
:101750000E94EB0F0F900F900F900F90CE01DF9132
:10176000CF911F910F91FF90EF90DF90CF90BF909E
:10177000AF907F906F905F904F900C94270B1F92CB
:101780000F920FB60F9211242F933F938F939F9335
:10179000AF93BF938091380290913902A0913A02A1
:1017A000B0913B023091370223E0230F2D3720F414
:1017B0000196A11DB11D05C026E8230F0296A11DAB
:1017C000B11D209337028093380290933902A09381
:1017D0003A02B0933B0280913C0290913D02A0916D
:1017E0003E02B0913F020196A11DB11D80933C02C3
:1017F00090933D02A0933E02B0933F02BF91AF9100
:101800009F918F913F912F910F900FBE0F901F903E
:1018100018952FB7F8946091380270913902809131
:101820003A0290913B022FBF08953FB7F894809100
:101830003C0290913D02A0913E02B0913F0226B53C
:10184000A89B05C02F3F19F00196A11DB11D3FBFF8
:101850006627782F892F9A2F620F711D811D911D88
:1018600042E0660F771F881F991F4A95D1F70895A8
:10187000CF92DF92EF92FF92CF93DF936B017C01C7
:101880000E94150CEB01C114D104E104F10489F0AC
:101890000E942F120E94150C6C1B7D0B683E73403A
:1018A00090F381E0C81AD108E108F108C851DC4F73
:1018B000EACFDF91CF91FF90EF90DF90CF90089526
:1018C000019739F0880F991F880F991F0297019788
:1018D000F1F70895789484B5826084BD84B5816001
:1018E00084BD85B5826085BD85B5816085BDEEE628
:1018F000F0E0808181608083E1E8F0E01082808107
:1019000082608083808181608083E0E8F0E0808174
:1019100081608083E1EBF0E0808184608083E0EB94
:10192000F0E0808181608083EAE7F0E0808184607C
:1019300080838081826080838081816080838081D8
:10194000806880831092C1000895833081F028F46C
:10195000813099F08230A1F008958730A9F0883065
:10196000B9F08430D1F4809180008F7D03C08091E4
:1019700080008F7780938000089584B58F7702C0B0
:1019800084B58F7D84BD08958091B0008F7703C0AA
:101990008091B0008F7D8093B0000895CF93DF9346
:1019A00090E0FC01E458FF4F2491FC01E057FF4F09
:1019B0008491882349F190E0880F991FFC01E85435
:1019C000FF4FA591B49182559F4FFC01C591D491D1
:1019D0009FB7611108C0F8948C91209582238C9355
:1019E000888182230AC0623051F4F8948C91322F9E
:1019F000309583238C938881822B888304C0F8944C
:101A00008C91822B8C939FBFDF91CF9108950F9380
:101A10001F93CF93DF931F92CDB7DEB7282F30E00F
:101A2000F901E859FF4F8491F901E458FF4F1491EF
:101A3000F901E057FF4F04910023C9F0882321F0FA
:101A400069830E94A50C6981E02FF0E0EE0FFF1F73
:101A5000E255FF4FA591B4919FB7F8948C91611115
:101A600003C01095812301C0812B8C939FBF0F90E1
:101A7000DF91CF911F910F910895CF93DF93282F7E
:101A800030E0F901E859FF4F8491F901E458FF4F24
:101A9000D491F901E057FF4FC491CC2391F081110B
:101AA0000E94A50CEC2FF0E0EE0FFF1FEC55FF4F4E
:101AB000A591B4912C912D2381E090E021F480E058
:101AC00002C080E090E0DF91CF910895FC01818D0C
:101AD000228D90E0805C9F4F821B91098F73992724
:101AE0000895FC01918D828D981731F0828DE80F59
:101AF000F11D858D90E008958FEF9FEF0895FC0113
:101B0000918D828D981761F0828DDF01A80FB11D34
:101B10005D968C91928D9F5F9F73928F90E0089558
:101B20008FEF9FEF089583E09FE0892B49F080E0DD
:101B300090E0892B29F00E94030F81110C94000082
:101B40000895FC01848DDF01A80FB11DA35ABF4F7A
:101B50002C91848D90E001968F739927848FA689AC
:101B6000B7892C93A089B1898C9180648C93938DD3
:101B7000848D981306C00288F389E02D80818F7DC3
:101B800080830895CF93DF93EC01888D8823C9F07B
:101B9000EA89FB89808185FD05C0A889B9898C9176
:101BA00086FD0FC00FB607FCF5CF808185FFF2CF11
:101BB000A889B9898C9185FFEDCFCE010E94A10D36
:101BC000E7CFDF91CF910895CF92DF92FF920F93ED
:101BD0001F93CF93DF931F92CDB7DEB76C01DC016B
:101BE0005B969C915B975C968C915C97981307C071
:101BF0005096ED91FC915197808185FD32C0F601A0
:101C0000038D10E00F5F1F4F0F731127F02EF601A9
:101C1000848DF81211C00FB607FCF9CFD60150968B
:101C2000ED91FC915197808185FFF1CFC6016983C9
:101C30000E94A10D6981EBCF838DE80FF11DE35A5E
:101C4000FF4F6083D6015B960C935B975296ED91A4
:101C5000FC91539780818062808381E058968C93B9
:101C60000DC0D6015696ED91FC9157976083509622
:101C7000ED91FC91519780818064808381E090E0B8
:101C80000F90DF91CF911F910F91FF90DF90CF9038
:101C90000895BF92CF92DF92EF92FF92CF93DF939E
:101CA000EC016A017B01B22EE889F98982E0808328
:101CB000411581EE580761057105A1F060E079E0FA
:101CC0008DE390E0A70196010E94FE132150310997
:101CD000410951095695479537952795211580E17A
:101CE000380798F0E889F989108260E874E88EE195
:101CF00090E0A70196010E94FE132150310941098D
:101D000051095695479537952795EC85FD85308384
:101D1000EE85FF852083188EEC89FD89B082EA89E3
:101D2000FB89808180618083EA89FB89808188606A
:101D30008083EA89FB89808180688083EA89FB89C6
:101D400080818F7D8083DF91CF91FF90EF90DF9036
:101D5000CF90BF9008951F920F920FB60F9211244B
:101D60002F938F939F93EF93FF93E0915002F09105
:101D700051028081E0915602F091570282FD12C01B
:101D80009081809159028F5F8F7320915A02821740
:101D900051F0E0915902F0E0E05CFD4F958F8093A7
:101DA000590201C08081FF91EF919F918F912F91F6
:101DB0000F900FBE0F901F9018951F920F920FB6A5
:101DC0000F9211242F933F934F935F936F937F93C1
:101DD0008F939F93AF93BF93EF93FF9380E492E031
:101DE0000E94A10DFF91EF91BF91AF919F918F91B3
:101DF0007F916F915F914F913F912F910F900FBE07
:101E00000F901F90189580E492E00E94660D21E0EB
:101E1000892B09F420E0822F08951092430210923A
:101E2000420288EE93E0A0E0B0E0809344029093F9
:101E30004502A0934602B093470281ED91E0909352
:101E400041028093400285EC90E090934D02809394
:101E50004C0284EC90E090934F0280934E0280EC11
:101E600090E0909351028093500281EC90E0909327
:101E700053028093520282EC90E09093550280933B
:101E8000540286EC90E09093570280935602109291
:101E9000590210925A0210925B0210925C0208954D
:101EA00008950E946A0C0E94500F0E940A04C3E920
:101EB000DDE00E940A072097E1F30E94930DF9CF1D
:101EC000CF92DF92EF92FF920F931F93CF93DF9306
:101ED0006C017A01EB01E60EF71E00E010E0CE1572
:101EE000DF0561F06991D601ED91FC910190F081DF
:101EF000E02DC6010995080F191FF1CFC801DF9128
:101F0000CF911F910F91FF90EF90DF90CF900895A8
:101F10006115710581F0DB010D900020E9F7AD013D
:101F200041505109461B570BDC01ED91FC91028099
:101F3000F381E02D099480E090E00895DC01ED91BB
:101F4000FC91DB0114964D915C9115976D917C91FC
:101F50000280F381E02D0994DC01ED91FC91019068
:101F6000F081E02D09940F931F93CF93DF93EC0141
:101F70006DE00E94AC0F8C016AE0CE010E94AC0FB4
:101F8000800F911FDF91CF911F910F9108950F93B3
:101F90001F93CF93DF93EC010E949E0F8C01CE0123
:101FA0000E94B30F800F911FDF91CF911F910F916E
:101FB00008950F931F93CF93DF93EC010E94880F36
:101FC0008C01CE010E94B30F800F911FDF91CF9142
:101FD0001F910F9108954F925F926F927F92AF92EF
:101FE000BF92CF92DF92EF92FF920F931F93CF9306
:101FF000DF93CDB7DEB729013A01621B730B840B67
:10200000950B29893A894B895C892A193B094C0926
:102010005D09298B3A8B4B8B5C8B9B01AC016989E9
:102020007A898B899C890E94BA13E418F5080609FD
:102030001709A80197010E9420142A0D3B1D4C1D71
:102040005D1DCA01B901DF91CF911F910F91FF90E2
:10205000EF90DF90CF90BF90AF907F906F905F90A8
:102060004F900895FC01808191810C94F714CF93D7
:10207000DF93EC0188819981009711F00E94F71499
:10208000198218821D821C821B821A82DF91CF91D5
:1020900008950F931F93CF93DF93EC018B016F5F34
:1020A0007F4F888199810E948615009731F099832E
:1020B00088831B830A8381E001C080E0DF91CF9198
:1020C0001F910F910895CF93DF93EC01888199813F
:1020D000892B29F08A819B818617970760F4CE01AE
:1020E0000E944910882341F08C819D81892B19F42D
:1020F000E881F981108281E0DF91CF910895EF921C
:10210000FF920F931F93CF93DF93EC017B018A0122
:10211000BA010E946310811104C0CE010E943710E1
:1021200007C01D830C83B701888199810E949B168B
:10213000CE01DF91CF911F910F91FF90EF90089505
:10214000FC011182108213821282158214826115A1
:10215000710559F0FB0101900020E9F7AF014150F2
:102160005109461B570B0C947F100895CF93DF93B2
:10217000EC01FB018617970761F0608171816115A1
:10218000710529F0448155810E947F1002C00E9490
:102190003710CE01DF91CF910895FC01118210829A
:1021A00013821282158214820C94B610CF93DF939F
:1021B000EC016115710561F0FB0101900020E9F768
:1021C000AF0141505109461B570B0E947F1002C0BE
:1021D0000E943710CE01DF91CF910895EF92FF92C8
:1021E0000F931F93CF93DF93EC017B010C811D8133
:1021F0006115710511F480E016C04115510591F08B
:10220000040F151FB8010E9463108823A1F32881D1
:1022100039818C819D81B701820F931F0E949B168B
:102220001D830C8381E0DF91CF911F910F91FF906F
:10223000EF900895EF92FF920F931F93CF93DF9348
:10224000CDB7DEB728970FB6F894DEBF0FBECDBF6F
:102250007C01CB014AE050E08E010F5F1F4FB801B7
:102260000E94B016F80101900020E9F7AF0141503B
:102270005109401B510BB801C7010E94EE1028966E
:102280000FB6F894DEBF0FBECDBFDF91CF911F9187
:102290000F91FF90EF900895FC0124813581232B4D
:1022A00031F421E061157105A1F0FB0108C0FC01CA
:1022B000808191816115710531F421E0FC018081FB
:1022C000882339F005C00E94921621E0892B09F07D
:1022D00020E0822F0895FA01DB0114964D915C9164
:1022E0001597DC0114962D913C911597241B350B05
:1022F0002E173F0788F08D919C91009769F0DB01C4
:102300006D917C916115710539F08E0F9F1F0E94B0
:10231000A21621E0892B09F020E0822F0895FC010C
:1023200044815581FB01248135814217530720F0F8
:1023300040E050E00C946B1180E00895FC01848132
:102340009581DB0114964D915C9115978417950743
:1023500098F0208131812115310571F06D917C91CA
:102360006115710549F0841B950B820F931F0E9424
:10237000921621E0892B09F020E0822F0895CF9357
:10238000DF93FC01848195814817590778F4C08157
:10239000D181772767FD7095CE01840F951F0E942C
:1023A0008716009719F08C1B9D0B02C08FEF9FEFD3
:1023B000DF91CF91089540E050E00C94BF11BF929F
:1023C000CF92DF92EF92FF920F931F93CF93DF9301
:1023D0006C017B01EA0189012417350720F48D2F58
:1023E000E901042F182F6DEA71E0C6010E94A010C8
:1023F000D70114968D919C911597C817D907C8F4E9
:102400008017910708F48C01D701ED91FC91119789
:10241000E00FF11FB08010826D917C916C0F7D1FD9
:10242000C6010E94D610D701ED91FC91E00FF11F7B
:10243000B082C601DF91CF911F910F91FF90EF9075
:10244000DF90CF90BF900895FC018081918100972B
:1024500011F00C94501660E070E0CB0108950895DF
:102460005058BB27AA270ED034C125D130F02AD12D
:1024700020F031F49F3F11F41EF41AC10EF4E095E0
:10248000E7FBE7C0E92F36D180F3BA17620773077D
:102490008407950718F071F49EF565C10EF4E09578
:1024A0000B2EBA2FA02D0B01B90190010C01CA010E
:1024B000A0011124FF27591B99F0593F50F4503EB9
:1024C00068F11A16F040A22F232F342F4427585FAB
:1024D000F3CF469537952795A795F0405395C9F7C3
:1024E0007EF41F16BA0B620B730B840BBAF091507B
:1024F000A1F0FF0FBB1F661F771F881FC2F70EC01A
:10250000BA0F621F731F841F48F4879577956795EC
:10251000B795F7959E3F08F0B3CF9395880F08F0D5
:102520009927EE0F97958795089506D180F09F37EC
:1025300040F491110EF418C160E070E080E89FE370
:10254000089526F01B16611D711D811D88C0A2C053
:1025500004D06894B11108C10895D4D088F09F5771
:1025600090F0B92F9927B751A0F0D1F0660F771FDF
:10257000881F991F1AF0BA95C9F712C0B13081F0BF
:10258000F2D0B1E00895EFC0672F782F8827B85FA9
:1025900039F0B93FCCF3869577956795B395D9F720
:1025A0003EF490958095709561957F4F8F4F9F4F2A
:1025B0000895E89409C097FB3EF490958095709536
:1025C00061957F4F8F4F9F4F9923A9F0F92F96E97F
:1025D000BB279395F695879577956795B795F111F4
:1025E000F8CFFAF4BB0F11F460FF1BC06F5F7F4F91
:1025F0008F4F9F4F16C0882311F096E911C07723A3
:1026000021F09EE8872F762F05C0662371F096E8AB
:10261000862F70E060E02AF09A95660F771F881F7A
:10262000DAF7880F9695879597F9089585D080F009
:102630009F3740F491110EF097C060E070E080E8A1
:102640009FEB089526F41B16611D711D811D07C0A7
:1026500021C097F99F6780E870E060E008958823C3
:1026600071F4772321F09850872B762F07C06623CB
:1026700011F499270DC09051862B70E060E02AF08C
:102680009A95660F771F881FDAF7880F96958795BA
:1026900097F908959F3F31F0915020F487957795F1
:1026A0006795B795880F911D9695879597F9089529
:1026B0009FEF80EC089500240A941616170618065A
:1026C0000906089500240A94121613061406050636
:1026D0000895092E0394000C11F4882352F0BB0FC7
:1026E00040F4BF2B11F460FF04C06F5F7F4F8F4F2A
:1026F0009F4F089557FD9058440F551F59F05F3F65
:1027000071F04795880F97FB991F61F09F3F79F013
:1027100087950895121613061406551FF2CF469595
:10272000F1DF08C0161617061806991FF1CF869517
:102730007105610508940895E5DFA0F0BEE7B917BB
:1027400088F4BB279F3860F41616B11D672F782FC9
:102750008827985FF7CF869577956795B11D9395F4
:102760009639C8F30895E894BB2766277727CB01ED
:1027700097F90895DB018F939F930E943F14BF91B7
:10278000AF91A29F800D911DA39F900DB29F900DC0
:1027900011240895991B79E004C0991F961708F039
:1027A000961B881F7A95C9F780950895AA1BBB1BB5
:1027B00051E107C0AA1FBB1FA617B70710F0A61B41
:1027C000B70B881F991F5A95A9F780959095BC0162
:1027D000CD01089597FB072E16F4009407D077FDDE
:1027E00009D00E94D61307FC05D03EF49095819540
:1027F0009F4F0895709561957F4F0895A1E21A2E1D
:10280000AA1BBB1BFD010DC0AA1FBB1FEE1FFF1F94
:10281000A217B307E407F50720F0A21BB30BE40BE4
:10282000F50B661F771F881F991F1A9469F760952B
:102830007095809590959B01AC01BD01CF010895E5
:10284000052E97FB1EF400940E94371457FD07D005
:102850000E94FE1307FC03D04EF40C9437145095DD
:102860004095309521953F4F4F4F5F4F089590957C
:102870008095709561957F4F8F4F9F4F08950E946F
:102880005014A59F900DB49F900DA49F800D911D95
:1028900011240895EE0FFF1F0590F491E02D099487
:1028A000A29FB001B39FC001A39F700D811D112491
:1028B000911DB29F700D811D1124911D0895CF931C
:1028C000DF938230910510F482E090E0E091DF0226
:1028D000F091E00220E030E0A0E0B0E0309739F184
:1028E0004081518148175907B8F04817590771F4CA
:1028F00082819381109729F013969C938E9312975F
:102900002CC09093E0028093DF0227C0211531058F
:1029100031F04217530718F0A901DB0101C0EF01A4
:102920009A01BD01DF010280F381E02DD7CF21158F
:102930003105F9F0281B390B2430310580F48A81E8
:102940009B816115710521F0FB019383828304C093
:102950009093E0028093DF02FE01329644C0FE01B4
:10296000E20FF31F81939193225031093983288319
:102970003AC02091DD023091DE02232B41F42091F8
:102980000201309103013093DE022093DD02209199
:102990000001309101012115310541F42DB73EB7F9
:1029A0004091040150910501241B350BE091DD029B
:1029B000F091DE02E217F307A0F42E1B3F0B28175D
:1029C000390778F0AC014E5F5F4F2417350748F0A8
:1029D0004E0F5F1F5093DE024093DD02819391936F
:1029E00002C0E0E0F0E0CF01DF91CF910895CF93F6
:1029F000DF93009709F487C0FC013297138212829B
:102A0000C091DF02D091E002209781F420813181D2
:102A1000280F391F8091DD029091DE028217930703
:102A200079F5F093DE02E093DD026DC0DE0120E077
:102A300030E0AE17BF0750F412964D915C9113979A
:102A40009D014115510509F1DA01F3CFB383A2834A
:102A500040815181840F951F8A179B0771F48D91D6
:102A60009C911197840F951F0296918380831296F3
:102A70008D919C911397938382832115310529F4BD
:102A8000F093E002E093DF023EC0D9011396FC937D
:102A9000EE9312974D915D91A40FB51FEA17FB07B6
:102AA00079F480819181840F951F0296D901119646
:102AB0009C938E938281938113969C938E9312970D
:102AC000E0E0F0E08A819B81009719F0FE01EC01C3
:102AD000F9CFCE01029628813981820F931F209170
:102AE000DD023091DE022817390769F4309729F4A6
:102AF0001092E0021092DF0202C013821282D09381
:102B0000DE02C093DD02DF91CF910895A0E0B0E036
:102B1000ECE8F5E10C940917EC01CB01209719F4CE
:102B20000E945F14B8C0FE01E60FF71F9E012250FD
:102B30003109E217F30708F4ACC0D9010D911C91DB
:102B4000119706171707B8F00530110508F49FC054
:102B5000A801445051094617570708F498C002507D
:102B60001109061B170B019311936D937C93CF01F1
:102B70000E94F7148CC05B01A01AB10A4E01800EAE
:102B8000911EA091DF02B091E002612C712C60E0F7
:102B900070E0109709F449C0A815B905C9F5ED9082
:102BA000FC901197670142E0C40ED11CCA14DB04EB
:102BB00078F147018A189B08640142E0C40ED11CD9
:102BC0001296BC9012971396AC91B5E0CB16D10437
:102BD00040F0B282A38391828082D9018D939C932D
:102BE00009C00E5F1F4F0E0D1F1DF90111830083D9
:102BF000EB2DFA2F6115710531F0DB011396FC9373
:102C0000EE93129744C0F093E002E093DF023FC0DE
:102C10006D917C9111976616770608F43B01BD0112
:102C200012960D90BC91A02DB4CF6091DD027091F1
:102C3000DE0268157905E9F468167906D0F440914A
:102C40000001509101014115510541F44DB75EB7A6
:102C50006091040170910501461B570BE417F507BD
:102C6000C0F4F093DE02E093DD02F90191838083EA
:102C70000EC00E945F147C01009759F0A801BE01AC
:102C80000E947716CE010E94F714C70104C0CE013E
:102C900002C080E090E0CDB7DEB7EEE00C942517DF
:102CA0001F93FC0199278827BC01E89411911032E9
:102CB000E9F3193010F01E30C8F31B3251F01D3209
:102CC00049F4689406C00E94C616610F711D811DEB
:102CD000911D119110531A30B0F33EF490958095E8
:102CE000709561957F4F8F4F9F4F1F910895FB0106
:102CF000DC0102C001900D9241505040D8F7089578
:102D0000DC0101C06D9341505040E0F70895FC0193
:102D10008191861721F08823D9F799270895319753
:102D2000CF010895FB01DC018D9101908019011004
:102D3000D9F3990B0895FB01DC0101900D9200205D
:102D4000E1F70895FB01DC014150504030F08D91D6
:102D50000190801919F40020B9F7881B990B089588
:102D60004532510520F4423010F00C94BB16FB01A3
:102D70001082CB010895BB274A3031F4992322F405
:102D8000BDE2909581959F4F0C94DC16592F482FEA
:102D9000372F262F660F771F881F991F660F771F03
:102DA000881F991F620F731F841F951F660F771F5F
:102DB000881F991F0895BB27FB015527AA27880F55
:102DC000991FAA1FA41710F0A41B83955051B9F79F
:102DD000A05DAA3308F0A95DA193009779F7B1111E
:102DE000B1931192CB010C94F516DC01FC01672F15
:102DF00071917723E1F7329704C07C916D937083D2
:102E00006291AE17BF07C8F308952F923F924F9279
:102E10005F926F927F928F929F92AF92BF92CF926A
:102E2000DF92EF92FF920F931F93CF93DF93CDB773
:102E3000DEB7CA1BDB0B0FB6F894DEBF0FBECDBFEB
:102E400009942A88398848885F846E847D848C84BC
:102E50009B84AA84B984C884DF80EE80FD800C81C5
:102E60001B81AA81B981CE0FD11D0FB6F894DEBFA8
:102E70000FBECDBFED01089510E0C6ECD0E004C058
:102E8000FE010E944C142296C83CD107C9F7F89461
:022E9000FFCF72
:102E92000000E102800001000000D007AC0D5A00E2
:102EA2001E00960000009C183831D44970620C7BD9
:102EB200A89344ACE0C47CDD3100320049646C6507
:102EC2004C69676874730057616974696E67466F0D
:102ED2007241637469766174696F6E0045786974D2
:102EE200696E6741637469766174696F6E005374C9
:102EF200617274696E6720737465707065722064A4
:102F02006576207465737465722E00476F2046578C
:102F12002000476F2042572000476F696E67486F55
:102F22006D6546756E6374696F6E00476F74486FA6
:102F32006D6500210021476F486F6D650A00476F7C
:102F4200696E67486F6D6500214E65774472696EE0
:102F52006B004469726563746976657300000000F2
:0E2F620000E40D600F660D7F0D710DC20D00B5
:00000001FF
