:100000000C9464000C948C000C948C000C948C0068
:100010000C948C000C948C000C948C000C948C0030
:100020000C948C000C948C000C948C000C945F0C41
:100030000C948C000C948C000C948C000C948C0010
:100040000C94520E0C948C000C9453100C94A11030
:100050000C948C000C948C000C948C000C948C00F0
:100060000C948C000C948C000000000024002700ED
:100070002A0000000000250028002B0000000000DE
:1000800023002600290004040404040404040202DA
:100090000202020203030303030301020408102007
:1000A0004080010204081020010204081020000012
:1000B0000007000201000003040600000000000029
:1000C000000034010D122D0111241FBECFEFD8E026
:1000D000DEBFCDBF11E0A0E0B1E0EEE3F1E302C08E
:1000E00005900D92A43CB107D9F712E0A4ECB1E061
:1000F00001C01D92A43DB107E1F710E0C6ECD0E0CD
:1001000004C02297FE010E948E18C23CD107C9F795
:100110000E9463120C9492180C9400001F93FC012F
:1001200099278827BC01E89411911032E9F319301E
:1001300010F01E30C8F31B3251F01D3249F46894A0
:1001400006C00E94EE00610F711D811D911D11916D
:1001500010531A30B0F33EF49095809570956195E8
:100160007F4F8F4F9F4F1F910895FB01DC0102C00D
:1001700001900D9241505040D8F70895DC0101C024
:100180006D9341505040E0F70895FC01819186172E
:1001900021F08823D9F7992708953197CF01089541
:1001A000FB01DC018D91019080190110D9F3990BAD
:1001B0000895FB01DC0101900D920020E1F7089504
:1001C000FB01DC014150504030F08D9101908019CD
:1001D00019F40020B9F7881B990B0895592F482F5F
:1001E000372F262F660F771F881F991F660F771FDF
:1001F000881F991F620F731F841F951F660F771F3B
:10020000881F991F08950F9381309105D9F46F5F6E
:100210007F4F09F584EC91E00E94EB0A87EC91E0B6
:1002200069E070E045E050E026E030E002E20E9444
:10023000F50887ED91E060E170E042E123E00E9483
:100240009E0A09C0892B39F46F5F7F4F21F487ED37
:1002500091E00E948E0A0F91089580E090E06FEF88
:100260007FEF0E940301089581E090E06FEF7FEF40
:100270000E940301089587E060E00E94AB0F82E0D6
:1002800090E00E94270F87E061E00E94AB0F82E0C0
:1002900090E00E94270F87E060E00E94AB0F089576
:1002A000892B19F084E060E002C084E061E00E94E4
:1002B000AB0F82E090E00E94270F08951F93182F44
:1002C000882319F48AE060E002C08AE061E00E94BD
:1002D000AB0F1093F60185E090E00E94270F1F916D
:1002E000089580E00E945E01089581E00E945E0111
:1002F00008956091A4017091A50184EC91E00E94A1
:10030000710B08958091A6019091A7010FC084EC14
:1003100091E00E94710B64E070E080E090E00E9448
:10032000CE0E8091F3019091F40101979093F40126
:100330008093F3016091F3017091F4018091A40125
:100340009091A5016817790714F708958091A40189
:100350009091A5010FC084EC91E00E94710B64E0C4
:1003600070E080E090E00E94CE0E8091F3019091C9
:10037000F40101969093F4018093F3016091F301ED
:100380007091F4018091A6019091A70186179707BB
:1003900014F70895EF92FF920F931F93CF93DF937B
:1003A0008C0184EC91E063E170E00E94580CC0E0A5
:1003B000D0E078010894E108F1081CC00E94A60171
:1003C0006091A9017091AA01882777FD8095982FE7
:1003D0000E94CE0E0E948201CE15DF0551F0609181
:1003E000AB017091AC01882777FD8095982F0E9412
:1003F000CE0E2196C017D1070CF368EC70E080E0B8
:1004000090E00E94CE0E84EC91E00E94050BDF91FB
:10041000CF911F910F91FF90EF9008951F93CF936D
:10042000DF93182FC0E0D0E007C087EC91E06C2F7D
:10043000412F0E947A08219687EC91E00E948E0855
:1004400090E0C817D9078CF387EC91E00E94D80898
:10045000DF91CF911F910895CF93DF93C0E0D0E05B
:1004600086E090E00E940E0268EC70E080E090E090
:100470000E94CE0E82E090E00E940E0268EC70E0D6
:1004800080E090E00E94CE0E2196C330D10541F766
:10049000DF91CF910895282F2095253558F4822F8C
:1004A00090E0AC01440F551F480F591F842F8095D1
:1004B00060E00DC02A3A70F42555822F90E0BC010F
:1004C000660F771F680F791F462F409580E00E94C6
:1004D000970908952A5A30E0C901880F991F820FA1
:1004E000931F682F609540E00E94970908956F92CE
:1004F0007F928F929F92AF92BF92CF92DF92EF92B4
:10050000FF920F931F935B016C0139014A0187EC45
:1005100091E00E948E08E82EC401B3016A197B099C
:100520008C099D090E940E175B016C01C401B30187
:100530000E940E179B01AC01C601B5010E94731603
:100540005B016C01FF240027F7FC0095102FC80108
:10055000B7010E940E179B01AC01C601B5010E94B4
:100560009A170E94DB167B018C01F7FC19C087ECFF
:1005700091E042E00E947A0887EC91E00E94D8085E
:1005800080E060E048EC0E9497099B01AC0187ED98
:1005900091E0B7010E94380987ED91E00E94CB09F4
:1005A0001F910F91FF90EF90DF90CF90BF90AF9091
:1005B0009F908F907F906F900895CF93DF9380915D
:1005C000EA019091EB0101969093EB018093EA018F
:1005D0008F3F910529F024F01092EB011092EA016F
:1005E000C0E0D0E00DC08091EA018C0F0E944B0268
:1005F0009B01AC0187ED91E0BE010E943809219674
:1006000087ED91E00E94B709C817D90760F387ED1D
:1006100091E00E94CB0964E170E080E090E00E94EC
:10062000CE0E87EC91E06091EC014091EF010E94C9
:100630007A0887EC91E00E94D8082091EE01809121
:10064000EC019091ED01222311F0019601C0019778
:100650009093ED018093EC018091EC019091ED017C
:10066000009711F0819781F41092EE01222319F482
:1006700081E08093EE018091EF019091F00101966D
:100680009093F0018093EF018091EF019091F00140
:10069000079734F081E090E09093F0018093EF01B0
:1006A000DF91CF910895EF92FF920F931F93CF9315
:1006B000DF9380E060E040E00E9497097B018C01BD
:1006C000C0E0D0E008C087ED91E0BE01A80197012D
:1006D0000E943809219687ED91E00E94B709C8175A
:1006E000D90788F387ED91E00E94CB09DF91CF9184
:1006F0001F910F91FF90EF9008956F927F928F92CC
:100700009F92BF92CF92DF92EF92FF920F931F932F
:10071000CF93DF93CC24DD24682E7724882499247A
:10072000B4C0CE018C0D9D1D6FEF70E00E943C188F
:100730000E944B029B01AC01BE016E0D7F1D87ED37
:1007400091E00E943809239687ED91E00E94B70955
:10075000C817D90730F387ED91E00E94CB0910E06C
:100760002AC087EC91E0612F44E00E947A081F5F65
:1007700087EC91E0612F46E00E947A081F5F87ECCA
:1007800091E0612F42E00E947A081F5F87EC91E0C0
:10079000612F43E00E947A081F5F87EC91E0612F90
:1007A00041E00E947A081F5F87EC91E0612F45E0ED
:1007B0000E947A081F5F87EC91E00E948E0818174C
:1007C00080F287EC91E00E94D80800E02FC087EC0F
:1007D00091E060E00E944808B82E11E00DC087EC5F
:1007E00091E0612F0E944808482F115087EC91E05A
:1007F000612F0E947A081E5F87EC91E00E948E08AC
:10080000181768F387EC91E00E948E08682F6150FA
:1008100087EC91E04B2D0E947A0887EC91E00E94D2
:10082000D808C401B3010E94CE0E0F5F87EC91E09F
:100830000E948E08081758F2C0E0D0E00CC0BE013C
:100840006E0D7F1D87ED91E020E030E040E050E04C
:100850000E943809239687ED91E00E94B709C817D6
:10086000D90768F30894E11CF11C83E0E816F10451
:1008700019F0C0E0D0E068CF82E390E0C80ED91E46
:100880009CE2C91691E0D90619F0EE24FF24F1CFBD
:10089000DF91CF911F910F91FF90EF90DF90CF905C
:1008A000BF909F908F907F906F9008958EEA92E016
:1008B00060E071E00E94D81208958EEA92E062E052
:1008C00071E00E94D8120895BC018EEA92E00E9465
:1008D0001E1308950F931F93DF93CF93CDB7DEB709
:1008E00027970FB6F894DEBF0FBECDBF81E10E94FF
:1008F000FF0F019711F080E01DC08EEA92E064E0E6
:1009000071E00E94D81280E090E00E9450011092A5
:10091000F2011092F1018E010F5F1F4FC80169E0D3
:1009200071E00E94E414C8010E946404C8010E949E
:100930008C1581E027960FB6F894DEBF0FBECDBFB1
:10094000CF91DF911F910F910895AF92BF92CF92F7
:10095000DF92EF92FF920F931F93CF93DF93EC01FF
:10096000C090F101D090F201FC01EE0FFF1FE257A1
:10097000FE4F0190F081E02DEC15FD0509F48AC0D1
:10098000CE16DF0660F40E9475018EEA92E061E106
:1009900071E00E94D812F1E0EF2EF12C0BC00E9402
:1009A00071018EEA92E068E171E00E94D812EE24B3
:1009B000EA94FE2C81E090E00E94500162E370E036
:1009C00080E090E00E94CE0E8E01000F111F0257B2
:1009D0001E4F74EAA72E76E0B72E3BC00E94A80EE9
:1009E0004091F1015091F201CA018C199D0997FFC4
:1009F00003C0909581959F4FF80120813181F6E0E9
:100A0000843A9F077CF0CA01821B930B97FF03C0B7
:100A1000909581959F4F26E0843A92071CF0C0E0A4
:100A2000D0E003C0E501C81BD90B0E943B018091B7
:100A3000A2019091A3018C0F9D1F0E94270F6FEFC1
:100A4000E6166FEFF606D9F40E946A048823B9F01F
:100A50000BC02091F1013091F201F8018081918168
:100A60002817390709F0BACF8091A801882311F01F
:100A70000E942C0280E090E00E9450010BC0809107
:100A8000F1019091F2018E0D9F1D9093F2018093E0
:100A9000F101DFCFDF91CF911F910F91FF90EF9088
:100AA000DF90CF90BF90AF9008950F931F93DF9387
:100AB000CF93CDB7DEB727970FB6F894DEBF0FBE42
:100AC000CDBF0E94710181E090E00E9450018E0133
:100AD0000F5F1F4FC8016FE171E00E94E414C8016D
:100AE0000E946404C8010E948C1508C00E943B014A
:100AF0008091A2019091A3010E94270F0E946A0495
:100B00008823A1F327960FB6F894DEBF0FBECDBFA2
:100B1000CF91DF911F910F9108954F925F926F9245
:100B20007F928F929F92AF92BF92CF92DF92EF927D
:100B3000FF920F931F93DF93CF93CDB7DEB72E971E
:100B40000FB6F894DEBF0FBECDBF4C018B010E94E3
:100B50009A0E2B013C0188EE93E09C01029FC0019C
:100B6000039F900D129F900D11245C01CC24B7FCC3
:100B7000C094DC2C8091A801882321F086E090E0CD
:100B80000E940E028E010F5F1F4FC80161E371E0EA
:100B90000E94E414C8010E946404C8010E948C15DC
:100BA000EE24FF24870128C031E08316910429F048
:100BB00082E08816910441F402C08DE001C08BE010
:100BC0000E94FF0F892B71F10E949A0E7B018C010C
:100BD000E418F508060917098091A801882331F067
:100BE000C801B701A60195010E94770261E070E09B
:100BF00080E090E00E94CE0EEA14FB040C051D0577
:100C000098F28E01085F1F4FC80166E471E00E94F0
:100C1000E414C8010E946404C8010E948C1580E09D
:100C2000892809F481E02E960FB6F894DEBF0FBE36
:100C3000CDBFCF91DF911F910F91FF90EF90DF908B
:100C4000CF90BF90AF909F908F907F906F905F906C
:100C50004F9008952F923F924F925F926F927F92A2
:100C60008F929F92AF92BF92CF92DF92EF92FF92BC
:100C70000F931F93DF93CF93CDB7DEB7EF970FB6E8
:100C8000F894DEBF0FBECDBF3C018E010F5F1F4F3A
:100C9000C801B3010E948115C8010E946404C80103
:100CA0000E948C158E01085F1F4FC80168E571E036
:100CB0000E94E414C301B8010E942814882311F48F
:100CC00000E013C08E01015F1F4FC8016AE571E0AB
:100CD0000E94E414C301B8010E94C013811181E095
:100CE000082FCE010F960E948C15CE0108960E9407
:100CF0008C15002309F4CEC0C3016CE571E00E949D
:100D0000E213882319F00E9455057FC08E010A5E08
:100D10001F4FC80165E671E00E94E414C301B801E9
:100D20000E942814F82EC8010E948C15FF2009F497
:100D300072C081E08093F501C3016CE70E94BB1390
:100D40005C010894A11CB11CC3016CE7A5010E94C1
:100D50009D136C014C010894811C911CC3016CE72C
:100D6000A4010E949D137C018E01035E1F4FC801E8
:100D7000B301A50196010E941715C8010E948C13AA
:100D80001B012C01C8010E948C158E010C5D1F4FA8
:100D9000C801B301A40197010E941715C8010E9460
:100DA0008C135B016C01C8010E948C158E01055DDE
:100DB0001F4F0894E11CF11CC801B301A7010E9458
:100DC0005E15C8010E948C1300E061307105810539
:100DD000910509F401E0CE018B960E948C15002349
:100DE00051F48091A801813031F480E090E00E94BC
:100DF0000E020E9453030093A8010E945505C101F1
:100E0000B5010E948D05882319F00E945D0442C03F
:100E10000E9456043FC0C3016CE70E94BB137C01D3
:100E20008E010E5C1F4FC801B30141E050E09701F5
:100E30000E941715C8010E948C135B016C01C80148
:100E40000E948C158E01075C1F4F0894E11CF11C59
:100E5000C801B301A7010E945E15C8010E948C134E
:100E60006B017C01C8010E948C15C5010E94A5047C
:100E7000C6010E94CA010E945D04AB2859F4CD2826
:100E800049F48091A801882329F01092F5018FE0A0
:100E90000E947D03EF960FB6F894DEBF0FBECDBF64
:100EA000CF91DF911F910F91FF90EF90DF90CF9046
:100EB000BF90AF909F908F907F906F905F904F907A
:100EC0003F902F900895EF92FF920F931F93DF931F
:100ED000CF93CDB7DEB72E970FB6F894DEBF0FBE17
:100EE000CDBF8EEA92E00E9463111816190694F5A0
:100EF0008E010F5F1F4FC8016FE671E00E94E4147E
:100F0000F02EE12E0FC08EEA92E00E949411682F1D
:100F10008F2D9E2D0E949E1462E070E080E090E094
:100F20000E94CE0E8EEA92E00E946311892B59F73F
:100F30008E01085F1F4FC8016F2D7E2D0E94811505
:100F4000C8010E942A06C8010E948C158F2D9E2D73
:100F50000E948C158091A801882331F08091F501C1
:100F6000882311F40E94DD022E960FB6F894DEBF9E
:100F70000FBECDBFCF91DF911F910F91FF90EF90EA
:100F80000895EF92FF920F931F9384E061E00E9417
:100F90006C0F87E061E00E946C0F8AE061E00E94C4
:100FA0006C0F8FEF61E00E946C0F8FEF61E00E9489
:100FB0006C0F8DE060E00E946C0F8DE061E00E949C
:100FC000AB0F8BE060E00E946C0F8BE061E00E9451
:100FD000AB0F81E160E00E946C0F81E161E00E9453
:100FE000AB0F8FEF61E00E946C0F8FEF61E00E940A
:100FF0006C0F8FEF61E00E946C0F8FEF61E00E9439
:10100000AB0F8FEF61E00E94AB0F80E090E00E9499
:10101000500180E00E945E0104EC11E0C80163E130
:1010200070E00E94580C87EDE82E81E0F82EC70191
:101030000E94BB09C7010E94CB0980E090E00E949A
:101040000E02BEEAEB2EB2E0FB2EC70140E855E2ED
:1010500060E070E00E94DC10C70160E771E00E9470
:10106000D81281E090E00E94500181E00E945E0170
:101070000E94790164EF71E080E090E00E94CE0E62
:10108000C8010E94050B1F910F91FF90EF900895EA
:10109000FC018785861710F480E008950584F685A5
:1010A000E02DE60FF11D80818F77482F50E020E082
:1010B00030E0CA0180739070892B11F021E030E09C
:1010C000B901660F771F20E030E0CA018C70907084
:1010D000892B11F021E030E0220F331F220F331F44
:1010E000962F922B80E043705070452B09F081E0E1
:1010F000892B0895FC018785861778F040FD02C092
:1011000080E801C081E842FD846041FD8061058482
:10111000F685E02DE60FF11D80830895FC0187859B
:101120000895EF92FF920F931F93CF93DF938C015B
:10113000C7E0D0E0E62EFF24C7010C2E02C0959533
:1011400087950A94E2F780FF04C0F801808161E08E
:1011500003C0F801808160E00E94AB0FF801838139
:1011600061E00E94AB0FF801838160E00E94AB0F49
:101170002197FFEFCF3FDF07F9F6DF91CF911F9166
:101180000F91FF90EF9008950F931F938C01FC0136
:10119000828161E00E94AB0F81E090E00E94270F06
:1011A000F801828160E00E94AB0F1F910F910895BA
:1011B0001F93CF93DF93EC0110E00DC090E00197F7
:1011C000811B9109ED85FE85E80FF91FCE01608135
:1011D0000E9491081F5F8F85181780F3CE010E942F
:1011E000C408DF91CF911F9108950F93CF93DF93A0
:1011F000EC0168838FEF89834A832B831C820F87DE
:10120000802F90E00E941D0D8D879E8790E020E842
:1012100009C08F85891728F0ED85FE85E90FF11D3E
:1012200020839F5F9017A8F3888160E00E94AB0F36
:10123000888161E00E946C0F898160E00E94AB0FA1
:10124000898161E00E946C0F8A8160E00E94AB0F8F
:101250008A8161E00E946C0F8B8160E00E94AB0F7D
:101260008B8161E00E946C0FDF91CF910F91089507
:101270000F931F93CF93DF93EC01888199816817B7
:10128000790708F04FC0CA01AA27BB27182FBB2730
:10129000A52F942F832F082F422F2D81222359F120
:1012A00030E0812F90E0FC01E29FC001E39F900DB0
:1012B000F29F900D1124892F990F990B182F802FD1
:1012C00090E0FC01E29FC001E39F900DF29F900D22
:1012D0001124892F990F990B082F842F90E0AC01CE
:1012E000429FC001439F900D529F900D1124892F62
:1012F000990F990B482FCB01880F991F860F971FC5
:10130000EE81FF81E80FF91F8885DF01A80FB11D6D
:101310001C938985DF01A80FB11D0C938A85E80F06
:10132000F11D4083DF91CF911F910F9108950F938D
:101330001F93062F10E020E030E0322F212F102FD6
:10134000002750E060E070E0042B152B262B372B94
:1013500090E0A0E0B0E0DC0199278827082B192B4A
:101360002A2B3B2BB801C9011F910F910895FC0155
:101370008081918108950F931F938C01FC018481DA
:1013800061E00E946C0FF801848160E00E94AB0F65
:101390001F910F910895EF92FF920F931F93DF9388
:1013A000CF93CDB7DEB727970FB6F894DEBF0FBE49
:1013B000CDBF8C01DC0116968D919C911797892BDE
:1013C00009F49FC00E94A80EF80124853585468542
:1013D0005785621B730B840B950B62337105810576
:1013E000910580F3F894D80112968D919C911397F2
:1013F0009F838E831696ED90FC901797F70181914D
:101400007F0189831B968C911B975096ED91FC91DF
:10141000519752969C9181FF30C08081892B8A839D
:101420008081909598239B838B818D8388E08C832A
:101430006A815B8129813C814D818E819F81D701A9
:10144000608327FD462F3A954083452F39F0221FB0
:1014500000C000005083000000C0F2CF38E02D91A2
:1014600050830000019761F7D8015196FC93EE93E9
:10147000509729833C834D833AC08081892B8A838E
:101480008081909598239B838B818C8388E08D83CA
:101490006A815B8129813D814C818E819F81D70149
:1014A000608327FD462F00C000C0408300C000C0FD
:1014B00000C000C000C050830000452F3A9541F0A5
:1014C000221F000000C000C000C000C000C0E8CF64
:1014D00038E02D9100C0508300C0019709F7D80172
:1014E0005196FC93EE93509729833D834C839F83C1
:1014F0008E8378940E94A80EF8016487758786878A
:10150000978727960FB6F894DEBF0FBECDBFCF9159
:10151000DF911F910F91FF90EF900895CF93DF938C
:10152000EC018E819F81009711F00E94BA0D8C8191
:1015300060E00E946C0FDF91CF9108951F93CF93CD
:10154000DF93EC01122F79836883CB01880F991FF9
:10155000860F971F9B838A834C831D821F821E8266
:101560002B871C861D861E861F8650E0FA01EA57CF
:10157000FF4FE491F0E0EE0FFF1FEE58FF4F259173
:101580003491398B288B46565F4FFA0144914A8B30
:101590000E941D0D9F838E83009731F04A815B81ED
:1015A00060E070E00E94BE0010FF04C081E0888708
:1015B00019860BC012FF06C081E0888782E0898708
:1015C0001A8605C0188681E0898782E08A87DF91C4
:1015D000CF911F910895FC018091F7018C3090F418
:1015E00080838F5F8093F701815090E0FC01EE0FC4
:1015F000FF1FE80FF91FE850FE4F88EB9BE0928336
:10160000818308958FEF80830895DC018C9190E0B1
:10161000FC01EE0FFF1FE80FF91FE850FE4F80811D
:101620008F7B80838C916CE00E941C1890E0AC0151
:10163000440F551F480F591F440F551F440F551F86
:1016400020E030E0C901840F951FFC01EE0FFF1F61
:10165000E80FF91FE850FE4F808186FD05C02F5F1F
:101660003F4F2C30310571F70895FC0120812C305B
:10167000B8F58181992787FD909548E850E0481B8F
:10168000590B440F551F440F551F6417750784F0FD
:101690008281992787FD909548E552E0481B590BB8
:1016A000440F551F440F551F641775070CF4AB0109
:1016B00042505040CA01AA2797FDA095BA2F880F23
:1016C000991FAA1FBB1F4FB7F89430E0F901EE0F26
:1016D000FF1FE20FF31FE850FE4F928381834FBF3D
:1016E0000895AF92BF92CF92DF92EF92FF920F9345
:1016F0001F93CF93DF93EC019B0182E06032780768
:101700000CF048C077FF03C020E030E005C0653B27
:10171000710514F024EB30E000D000D0B901882727
:1017200077FD8095982F2981332727FD3095E8E8AC
:10173000AE2EB12CA21AB30AAA0CBB1CAA0CBB1C5D
:10174000CC24B7FCC094DC2CEA81FF27E7FDF095A0
:1017500028E532E02E1B3F0B220F331F220F331FD1
:10176000442737FD4095542FEDB7FEB721833283D0
:101770004383548320E030E040E050E004EBE02E6F
:10178000F12C012D112D0E9432139B010F900F900F
:101790000F900F90CE01B9010E94350BDF91CF91D0
:1017A0001F910F91FF90EF90DF90CF90BF90AF907F
:1017B0000895CF92DF92EF92FF921F93CF93DF9322
:1017C000EC01162F7A01690188818C3008F064C021
:1017D000862F61E00E946C0F888190E0FC01EE0F83
:1017E000FF1FE80FF91FE850FE4F1F738081807CB8
:1017F000812B808380E292E08E199F0964E070E083
:101800000E943C18698380E699E08C199D0964E088
:1018100070E00E943C186A83A8818A2F6CE00E94C5
:101820001C18682F70E0AB01440F551F460F571F5F
:10183000440F551F440F551F20E030E0C901840FAD
:10184000951FFC01EE0FFF1FE80FF91FE850FE4F38
:10185000808186FD15C02F5F3F4F2C30310571F719
:1018600024C01092800082E0809381001092850055
:1018700010928400B19A80916F00826080936F0013
:101880008A2F90E0FC01EE0FFF1FE80FF91FE850D0
:10189000FE4F8081806480838881DF91CF911F918A
:1018A000FF90EF90DF90CF900895672BD1F2E8CFB3
:1018B00040E252E020E639E00E94D90B08951F92E1
:1018C0000F920FB60F9211242F933F934F935F9374
:1018D0006F937F938F939F93AF93BF93EF93FF93F8
:1018E00080911C0287FF05C0109285001092840031
:1018F0002BC020911C02332727FD30958091F701E2
:1019000090E02817390704F580911C02992787FD7C
:101910009095FC01EE0FFF1FE80FF91FE850FE4FF6
:10192000808186FF11C080911C02992787FD9095C8
:10193000FC01EE0FFF1FE80FF91FE850FE4F8081FA
:101940008F7360E00E94AB0F80911C028F5F8093C9
:101950001C0220911C02332727FD30958091F7014E
:1019600090E0281739070CF04EC080911C028C3093
:101970000CF049C0209184003091850080911C02B8
:10198000992787FD9095FC01EE0FFF1FE80FF91FC7
:10199000E850FE4F81819281280F391F30938900D2
:1019A0002093880080911C02992787FD9095FC0167
:1019B000EE0FFF1FE80FF91FE850FE4F808186FFF2
:1019C0002BC080911C02992787FD9095FC01EE0F9A
:1019D000FF1FE80FF91FE850FE4F80818F7361E011
:1019E0000E94AB0F19C080E49CE905C0809184007F
:1019F00090918500049690938900809388008FEFE2
:101A000080931C0209C08091840090918500049607
:101A100080549C4940F3EACFFF91EF91BF91AF9181
:101A20009F918F917F916F915F914F913F912F91F6
:101A30000F900FBE0F901F9018950F931F93CF9389
:101A4000DF93BC018230910510F462E070E0E09118
:101A5000D202F091D30240E050E0A0E0B0E024C018
:101A60008081918186179707D0F08617970771F4C8
:101A700082819381109729F013969C938E931297ED
:101A80002CC09093D3028093D20227C041155105F8
:101A900019F08417950718F48D01AC01EF01DF01EF
:101AA000828193819C01F9013097D1F6411551054E
:101AB000F9F0CA01861B970B8430910580F48A8166
:101AC0009B810115110521F0F8019383828304C0E5
:101AD0009093D3028093D202FE01329645C0FE015C
:101AE000E80FF91F619371930297998388833CC033
:101AF0008091D0029091D102892B41F48091AF0165
:101B00009091B0019093D1028093D0024091B101A5
:101B10005091B2014115510541F44DB75EB7809126
:101B2000AD019091AE01481B590B2091D00230912C
:101B3000D10224173507B0F4CA01821B930B861714
:101B4000970780F0AB014E5F5F4F8417950750F009
:101B5000420F531F5093D1024093D002F901619379
:101B6000719302C0E0E0F0E0CF01DF91CF911F91CF
:101B70000F910895CF93DF939C01009709F48FC0D4
:101B8000EC0122971B821A826091D2027091D302DB
:101B90006115710581F488819981820F931F2091CD
:101BA000D0023091D1022817390739F5D093D102EC
:101BB000C093D00274C0DB0140E050E0AC17BD0719
:101BC00008F1BB83AA83FE0121913191E20FF31F3B
:101BD000AE17BF0779F48D919C911197280F391F8B
:101BE0002E5F3F4F3983288312968D919C911397D6
:101BF0009B838A834115510571F4D093D302C0931E
:101C0000D2024DC012968D919C911397AD01009711
:101C100011F0DC01D3CFDA011396DC93CE93129747
:101C2000FA0121913191E20FF31FCE17DF0769F41A
:101C300088819981280F391F2E5F3F4FFA01318328
:101C400020838A819B8193838283E0E0F0E0DB0143
:101C500012968D919C911397009719F0BC01FD018C
:101C6000F6CFAB014E5F5F4FDB018D919C91840FEE
:101C7000951F2091D0023091D1022817390779F4AD
:101C8000309729F41092D3021092D20202C013822C
:101C90001282425050405093D1024093D002DF91C3
:101CA000CF9108951F920F920FB60F9211242F9388
:101CB0003F938F939F93AF93BF9380912102909115
:101CC0002202A0912302B0912402309125020196B4
:101CD000A11DB11D232F2D5F2D3720F02D5701960B
:101CE000A11DB11D20932502809321029093220211
:101CF000A0932302B093240280911D0290911E02B2
:101D0000A0911F02B09120020196A11DB11D8093E8
:101D10001D0290931E02A0931F02B0932002BF9158
:101D2000AF919F918F913F912F910F900FBE0F9088
:101D30001F9018958FB7F8942091210230912202BC
:101D400040912302509124028FBFB901CA01089526
:101D50009FB7F89420911D0230911E0240911F02FE
:101D60005091200286B5A89B06C08F3F21F02F5FBF
:101D70003F4F4F4F5F4F9FBF542F432F322F22278C
:101D8000280F311D411D511D82E0220F331F441FBA
:101D9000551F8A95D1F7B901CA0108959B01AC017D
:101DA0007FB7F89480911D0290911E02A0911F02AE
:101DB000B091200266B5A89B05C06F3F19F001964F
:101DC000A11DB11D7FBFBA2FA92F982F8827860F7D
:101DD000911DA11DB11D62E0880F991FAA1FBB1F95
:101DE0006A95D1F7BC012DC0FFB7F89480911D0210
:101DF00090911E02A0911F02B0912002E6B5A89B0F
:101E000005C0EF3F19F00196A11DB11DFFBFBA2F0C
:101E1000A92F982F88278E0F911DA11DB11DE2E0DB
:101E2000880F991FAA1FBB1FEA95D1F7861B970B36
:101E3000885E9340C8F22150304040405040685185
:101E40007C4F211531054105510571F60895019723
:101E500039F0880F991F880F991F02970197F1F7A2
:101E60000895789484B5826084BD84B5816084BD12
:101E700085B5826085BD85B5816085BDEEE6F0E003
:101E8000808181608083E1E8F0E01082808182605F
:101E90008083808181608083E0E8F0E080818160E0
:101EA0008083E1EBF0E0808184608083E0EBF0E010
:101EB000808181608083EAE7F0E0808184608083B4
:101EC000808182608083808181608083808180685E
:101ED00080831092C1000895CF93DF93482F50E084
:101EE000CA0186569F4FFC0134914A575F4FFA0151
:101EF0008491882369F190E0880F991FFC01E859CB
:101F0000FF4FA591B491FC01EE58FF4FC591D491BC
:101F1000662351F42FB7F8948C91932F90958923D1
:101F20008C93888189230BC0623061F42FB7F894B9
:101F30008C91932F909589238C938881832B888310
:101F40002FBF06C09FB7F8948C91832B8C939FBFB3
:101F5000DF91CF910895482F50E0CA0182559F4FDD
:101F6000FC012491CA0186569F4FFC0194914A5767
:101F70005F4FFA013491332309F440C0222351F119
:101F8000233071F0243028F42130A1F0223011F5F3
:101F900014C02630B1F02730C1F02430D9F404C089
:101FA000809180008F7703C0809180008F7D809327
:101FB000800010C084B58F7702C084B58F7D84BD4A
:101FC00009C08091B0008F7703C08091B0008F7DF1
:101FD0008093B000E32FF0E0EE0FFF1FEE58FF4FAD
:101FE000A591B4912FB7F894662321F48C91909524
:101FF000892302C08C91892B8C932FBF0895682F61
:1020000070E0CB0182559F4FFC012491CB01865695
:102010009F4FFC0144916A577F4FFB019491992394
:1020200019F420E030E03CC0222351F1233071F05C
:10203000243028F42130A1F0223011F514C02630CC
:10204000B1F02730C1F02430D9F404C08091800071
:102050008F7703C0809180008F7D8093800010C0B7
:1020600084B58F7702C084B58F7D84BD09C080910F
:10207000B0008F7703C08091B0008F7D8093B00057
:10208000892F90E0880F991F84589F4FFC01A591DC
:10209000B4918C9120E030E0842311F021E030E015
:1020A000C901089508951F920F920FB60F9211243F
:1020B0002F933F934F938F939F93EF93FF93809131
:1020C000C00082FD1DC04091C60020916602309183
:1020D00067022F5F3F4F2F7330708091680290919D
:1020E00069022817390771F0E0916602F0916702E2
:1020F000EA5DFD4F4083309367022093660202C081
:102100008091C600FF91EF919F918F914F913F91E8
:102110002F910F900FBE0F901F901895E091BA026B
:10212000F091BB02E05CFF4F819191912081318160
:10213000821B930B8F739070892B11F00E945210A9
:1021400008951F920F920FB60F9211242F933F9371
:102150008F939F93EF93FF932091AA023091AB024C
:102160008091AC029091AD022817390731F480912B
:10217000C1008F7D8093C10014C0E091AC02F0914A
:10218000AD02E659FD4F20818091AC029091AD02E5
:1021900001968F7390709093AD028093AC02209360
:1021A000C600FF91EF919F918F913F912F910F90DA
:1021B0000FBE0F901F901895AF92BF92DF92EF92D3
:1021C000FF920F931F93CF93DF93EC017A018B0162
:1021D000DD24403081EE580780E0680780E0780712
:1021E00011F0DD24D39491E0A92EB12CEC89FD8966
:1021F000DD2069F0C50108A002C0880F991F0A946C
:10220000E2F7808360E079E08DE390E005C0108222
:1022100060E874E88EE190E0A80197010E944F18F1
:10222000215030404040504056954795379527956E
:1022300080E12030380720F0DD2011F0DD24D6CFFA
:10224000E889F9893083EA89FB89208319A2EE891C
:10225000FF89408121E030E0C9010C8C02C0880F69
:10226000991F0A94E2F7482B4083EE89FF89408149
:10227000C9010D8C02C0880F991F0A94E2F7482B00
:102280004083EE89FF894081C9010E8C02C0880F0E
:10229000991F0A94E2F7482B4083EE89FF898081D9
:1022A0000F8C02C0220F331F0A94E2F720952823D7
:1022B0002083DF91CF911F910F91FF90EF90DF90DE
:1022C000BF90AF900895DC011C96ED91FC911D9795
:1022D000E05CFF4F2191319180819181281B390B66
:1022E0002F733070C9010895DC011C96ED91FC91AB
:1022F0001D97E05CFF4F20813181E054F040DF0109
:10230000AE5BBF4F8D919C9111972817390719F437
:102310002FEF3FEF07C08D919C91E80FF91F80814F
:10232000282F30E0C9010895DC011C96ED91FC9145
:102330001D97E05CFF4F20813181E054F040DF01C8
:10234000AE5BBF4F8D919C9111972817390719F4F7
:102350002FEF3FEF10C08D919C911197E80FF91F5F
:1023600020818D919C91119701968F739070119699
:102370009C938E9330E0C9010895DC0191968C9175
:102380009197882339F05496ED91FC91559780816F
:1023900086FFF9CF91961C920895CF93DF93EC01BD
:1023A000EE85FF85E05CFF4F20813181E054F040F5
:1023B0002F5F3F4F2F733070DF01AE5BBF4F8D91AA
:1023C0009C91119728173907D1F3E05CFF4F80816A
:1023D0009181E054F040E80FF91F6083EE85FF859E
:1023E000E05CFF4F31832083EE89FF89208181E00B
:1023F00090E00F8C02C0880F991F0A94E2F7282BF7
:10240000208381E089A3EC89FD89808180648083B9
:1024100081E090E0DF91CF9108951092B102109287
:10242000B00288EE93E0A0E0B0E08093B202909317
:10243000B302A093B402B093B50287EB91E09093FE
:10244000AF028093AE0286E292E09093BB0280934B
:10245000BA028AE692E09093BD028093BC0285ECBA
:1024600090E09093BF028093BE0284EC90E0909342
:10247000C1028093C00280EC90E09093C3028093ED
:10248000C20281EC90E09093C5028093C40282EC7A
:1024900090E09093C7028093C60286EC90E0909300
:1024A000C9028093C80284E08093CA0283E08093CB
:1024B000CB0287E08093CC0285E08093CD0281E05F
:1024C0008093CE020895CF93DF930E94310F0E9434
:1024D000C107CEE8D0E10E9463072097E1F30E9494
:1024E0008E10F9CFCF92DF92EF92FF920F931F934E
:1024F000CF93DF937C016B018A01C0E0D0E00FC075
:10250000D6016D916D01D701ED91FC910190F081A3
:10251000E02DC7010995C80FD91F015010400115C2
:10252000110571F7CE01DF91CF911F910F91FF90AF
:10253000EF90DF90CF900895EF92FF920F931F934B
:102540008C01DC01ED91FC910190F081E02D6DE0BA
:1025500009957C01D801ED91FC910190F081E02D6D
:10256000C8016AE009959C012E0D3F1DC9011F910C
:102570000F91FF90EF900895CF93DF93EC016115D9
:10258000710519F420E030E00FC0DB010D90002050
:10259000E9F71197A61BB70BE881F9810280F38157
:1025A000E02DAD0109959C01C901DF91CF910895FE
:1025B000EF92FF920F931F937C010E94BC128C013B
:1025C000C7010E949C12080F191FC8011F910F918B
:1025D000FF90EF900895AF92BF92CF92DF92EF926B
:1025E000FF920F931F93CF93DF935C016B01EE2457
:1025F000FF24C0E0D0E010C0D501ED91FC91008136
:102600001181C601BE010E947B13682FC501F8012C
:102610000995E80EF91E2196F60184819581C81767
:10262000D90750F3C701DF91CF911F910F91FF9010
:10263000EF90DF90CF90BF90AF900895EF92FF9210
:102640000F931F937C010E94EB128C01C7010E9423
:102650009C129C01200F311FC9011F910F91FF9007
:10266000EF9008952F923F924F925F926F927F92D8
:102670008F929F92AF92BF92CF92DF92EF92FF9292
:102680000F931F93DF93CF93CDB7DEB73B014C0180
:1026900019012A016D897E898F89988D6A197B09B4
:1026A0008C099D09621A730A840A950AA401930190
:1026B0000E94FD17E218F30804091509A801970103
:1026C0000E9471182A0D3B1D4C1D5D1DB901CA01E8
:1026D000CF91DF911F910F91FF90EF90DF90CF90FE
:1026E000BF90AF909F908F907F906F905F904F9032
:1026F0003F902F900895FC01848195816817790798
:1027000048F40190F081E02D309721F0E60FF71F9B
:102710008081089580E00895FC0180819181009777
:1027200029F420E030E040E050E004C00E948E0038
:102730009B01AC01B901CA010895CF93DF93FC015D
:10274000848195814817590768F4C081D181772722
:1027500067FD7095CE01840F951F0E94C5009C01F6
:10276000009719F42FEF3FEF02C02C1B3D0BC9015E
:10277000DF91CF91089540E050E00E949D130895AD
:10278000FC01DB012481358114964D915C911597F4
:1027900024173507A8F080819181009789F06D9109
:1027A0007C916115710561F0241B350B820F931F1D
:1027B0000E94D0009C0180E0232B19F481E0089551
:1027C00080E00895DC01FB0114968D919C91159792
:1027D000892B31F461157105A9F090E0808108C062
:1027E0000D90BC91A02D6115710529F490E08C919C
:1027F000882349F407C0CD010E94D0009C0190E0DD
:10280000232B09F491E0892F0895FC01DB01149634
:102810002D913C91159784819581821B930B841790
:102820009507A0F080819181009781F06D917C9156
:102830006115710559F0840F951FA9010E94E000F0
:102840009C0180E0232B19F481E0089580E0089535
:10285000FC01DB012481358114968D919C911597A3
:102860002817390710F480E00895CF0140E050E0C8
:102870000E94051408950F931F93CF93DF93EC01EB
:102880008B016F5F7F4F888199810E94921500971D
:1028900011F480E005C0998388831B830A8381E05B
:1028A000DF91CF911F910F910895CF93DF93EC01AA
:1028B00088819981892B29F08A819B8186179707C6
:1028C00060F4CE010E943B14882341F08C819D81ED
:1028D000892B19F4E881F981108281E0DF91CF9191
:1028E0000895EF92FF920F931F93CF93DF93EC0124
:1028F0007B016C817D81E114F104C1F0411551052A
:1029000099F08A01060F171FB8010E9455148823F9
:1029100069F0888199812C813D81820F931FB701D5
:102920000E94D9001D830C8381E001C080E0DF910B
:10293000CF911F910F91FF90EF900895DF93CF9368
:1029400000D0CDB7DEB769831A82BE016F5F7F4FBB
:1029500041E050E00E9471140F900F90CF91DF91F1
:102960000895CF93DF93EC0188819981009711F04E
:102970000E94BA0D198218821D821C821B821A8243
:10298000DF91CF910895EF92FF920F931F93CF9312
:10299000DF93EC017B018A01BA010E945514882360
:1029A00021F4CE010E94B11407C01D830C838881DD
:1029B0009981B7010E94D900CE01DF91CF911F917B
:1029C0000F91FF90EF900895CF93DF93EC01198260
:1029D00018821B821A821D821C821E82611571055B
:1029E00051F0DB010D900020E9F71197A61BB70B02
:1029F000AD010E94C314DF91CF9108950F931F93EF
:102A0000182F092F6115710559F0DB010D90002079
:102A1000E9F71197A61BB70BAD010E94C31402C0C2
:102A20000E94B114812F902F1F910F910895BF9292
:102A3000CF92DF92EF92FF920F931F93CF93DF938A
:102A4000082FB92E6B017A01E9012417350710F41C
:102A5000EA017901802F9B2D6DE871E00E94E4145A
:102A6000D60114968D919C9115978E159F05D0F0E7
:102A70008C179D0708F4EC01D601ED91FC9111979C
:102A8000EC0FFD1F108110826D917C916E0D7F1DEA
:102A9000802F9B2D0E94FE14D601ED91FC91EC0F2E
:102AA000FD1F1083802F9B2DDF91CF911F910F91E0
:102AB000FF90EF90DF90CF90BF9008950F931F93FA
:102AC0008C01FB01248135810E941715C8011F91DB
:102AD0000F910895CF93DF93EC01FB0186179707C1
:102AE00061F0608171816115710529F04481558122
:102AF0000E94C31402C00E94B114CE01DF91CF9195
:102B00000895FC01118210821382128215821482B0
:102B100016820E946A150895FC01808191810E94AD
:102B2000BA0D08956F927F928F929F92AF92BF924B
:102B3000CF92DF92EF92FF920F931F93CF93DF9389
:102B40008C01009729F4CB010E941D0D8C01BBC0A4
:102B50008EEFE82E8FEFF82EE00EF11E4801860E64
:102B6000971E8E149F0408F4ACC0D7014D915C9160
:102B7000119746175707B8F04530510508F4A3C020
:102B8000CA0104978617970708F49DC04250504029
:102B9000461B570BF401419351936D937C93CF01E6
:102BA0000E94BA0D90C05B01A41AB50A3801640EE8
:102BB000751EA091D202B091D302E0E0F0E0CC24E7
:102BC000DD2447C0A615B705A9F5CD91DC91119775
:102BD000CE0102968A159B0568F1CE018A199B09E0
:102BE000029612962C91129713963C91059758F0E5
:102BF000F40122833383CA19DB09D183C083D7014F
:102C00006D937C9309C04E5F5F4F4C0F5D1FF701C2
:102C100051834083C901FC01C114D10431F0D601B4
:102C20001396FC93EE9312974EC0F093D302E09369
:102C3000D20249C08D919C911197E817F90708F4C9
:102C4000FC016D0112968C91129713969C919C0138
:102C5000D901109709F0B6CF8091D0029091D1029E
:102C600086159705E9F4E617F707D0F42091B1012E
:102C70003091B2012115310541F42DB73EB7809155
:102C8000AD019091AE01281B390B82169306C8F452
:102C90009092D1028092D002F7017183608313C0B9
:102CA000CB010E941D0DEC01009759F0D7014D9109
:102CB0005C91B8010E94B500C8010E94BA0D8E0156
:102CC00002C000E010E0C801DF91CF911F910F9189
:102CD000FF90EF90DF90CF90BF90AF909F908F903C
:102CE0007F906F9008950CD0EBC0E3D040F0DAD025
:102CF00030F021F45F3F19F0CCC0511115C1CFC0A5
:102D0000F0D098F39923C9F35523B1F3951B550BD4
:102D1000BB27AA2762177307840738F09F5F5F4FAE
:102D2000220F331F441FAA1FA9F333D00E2E3AF0EF
:102D3000E0E830D091505040E695001CCAF729D009
:102D4000FE2F27D0660F771F881FBB1F2617370758
:102D50004807AB07B0E809F0BB0B802DBF01FF2788
:102D600093585F4F2AF09E3F510568F092C0DCC037
:102D70005F3FECF3983EDCF3869577956795B795C2
:102D8000F7959F5FC9F7880F911D9695879597F9DD
:102D90000895E1E0660F771F881FBB1F6217730756
:102DA0008407BA0720F0621B730B840BBA0BEE1F6B
:102DB00088F7E095089504D06894B111B5C00895DE
:102DC00098D088F09F5790F0B92F9927B751A0F06D
:102DD000D1F0660F771F881F991F1AF0BA95C9F7AF
:102DE00012C0B13081F09FD0B1E008959CC0672F30
:102DF000782F8827B85F39F0B93FCCF3869577955F
:102E00006795B395D9F73EF4909580957095619547
:102E10007F4F8F4F9F4F0895E89409C097FB3EF472
:102E200090958095709561957F4F8F4F9F4F992317
:102E3000A9F0F92F96E9BB279395F6958795779595
:102E40006795B795F111F8CFFAF4BB0F11F460FF55
:102E50001BC06F5F7F4F8F4F9F4F16C0882311F0AD
:102E600096E911C0772321F09EE8872F762F05C0C1
:102E7000662371F096E8862F70E060E02AF09A955C
:102E8000660F771F881FDAF7880F9695879597F951
:102E9000089597F99F6780E870E060E008959FEFDC
:102EA00080EC089500240A941616170618060906E1
:102EB000089500240A9412161306140605060895B0
:102EC000092E0394000C11F4882352F0BB0F40F438
:102ED000BF2B11F460FF04C06F5F7F4F8F4F9F4F78
:102EE000089557FD9058440F551F59F05F3F71F0FA
:102EF0004795880F97FB991F61F09F3F79F0879561
:102F00000895121613061406551FF2CF4695F1DFE9
:102F100008C0161617061806991FF1CF8695710579
:102F2000610508940895E894BB2766277727CB01AD
:102F300097F908950BD0C4CFB5DF28F0BADF18F0A9
:102F4000952309F0A6CFABCF1124EECFCADFA0F3B3
:102F5000959FD1F3950F50E0551F629FF001729F2E
:102F6000BB27F00DB11D639FAA27F00DB11DAA1F4D
:102F7000649F6627B00DA11D661F829F2227B00D9A
:102F8000A11D621F739FB00DA11D621F839FA00D25
:102F9000611D221F749F3327A00D611D231F849F75
:102FA000600D211D822F762F6A2F11249F575040CC
:102FB0008AF0E1F088234AF0EE0FFF1FBB1F661F67
:102FC000771F881F91505040A9F79E3F510570F020
:102FD00060CFAACF5F3FECF3983EDCF38695779500
:102FE0006795B795F795E7959F5FC1F7FE2B880F1B
:102FF000911D9695879597F90895629FD001739FCB
:10300000F001829FE00DF11D649FE00DF11D929F84
:10301000F00D839FF00D749FF00D659FF00D9927C3
:10302000729FB00DE11DF91F639FB00DE11DF91FE7
:10303000BD01CF0111240895991B79E004C0991FA7
:10304000961708F0961B881F7A95C9F78095089502
:10305000AA1BBB1B51E107C0AA1FBB1FA617B707BE
:1030600010F0A61BB70B881F991F5A95A9F78095DA
:103070009095BC01CD01089597FB092E07260AD033
:1030800077FD04D0E5DF06D000201AF47095619535
:103090007F4F0895F6F7909581959F4F0895A1E28F
:1030A0001A2EAA1BBB1BFD010DC0AA1FBB1FEE1FC2
:1030B000FF1FA217B307E407F50720F0A21BB30B0D
:1030C000E40BF50B661F771F881F991F1A9469F789
:1030D00060957095809590959B01AC01BD01CF01E5
:1030E000089597FB092E05260ED057FD04D0D7DF93
:1030F0000AD0001C38F450954095309521953F4FEB
:103100004F4F5F4F0895F6F79095809570956195B4
:103110007F4F8F4F9F4F0895EE0FFF1F0590F49143
:10312000E02D099410E0C6ECD0E004C0FE010E943E
:0E3130008E182296C83CD107C9F7F894FFCF3D
:10313E0032003100486F6D6500476F74486F6D65E2
:10314E0000476F2046572000476F20425720004708
:10315E006F696E67486F6D6546756E6374696F6EE5
:10316E000057616974696E67466F72416374697660
:10317E006174696F6E0045786974696E6741637436
:10318E0069766174696F6E0021000A0021476F48ED
:10319E006F6D650A00214E65774472696E6B000093
:1031AE005374617274696E672073746570706572A2
:1031BE0020646576207465737465722E00000000BD
:1031CE009C183831D44970620C7BA89344ACE0C48F
:1031DE007CDD96001E005A0001AC0DD0078000D495
:1031EE0002000000000000CD1172126311941174E0
:0431FE0011BD1100EE
:00000001FF
