:100000000C9464000C948C000C948C000C948C0068
:100010000C948C000C948C000C948C000C948C0030
:100020000C948C000C948C000C948C000C946A0C36
:100030000C948C000C948C000C948C000C948C0010
:100040000C945D0E0C948C000C945E100C94AC100F
:100050000C948C000C948C000C948C000C948C00F0
:100060000C948C000C948C000000000024002700ED
:100070002A0000000000250028002B0000000000DE
:1000800023002600290004040404040404040202DA
:100090000202020203030303030301020408102007
:1000A0004080010204081020010204081020000012
:1000B0000007000201000003040600000000000029
:1000C0000000340118122D0111241FBECFEFD8E01B
:1000D000DEBFCDBF11E0A0E0B1E0E4E5F1E302C096
:1000E00005900D92A43CB107D9F712E0A4ECB1E061
:1000F00001C01D92A33DB107E1F710E0C6ECD0E0CE
:1001000004C02297FE010E949918C23CD107C9F78A
:100110000E946E120C949D180C9400001F93FC0119
:1001200099278827BC01E89411911032E9F319301E
:1001300010F01E30C8F31B3251F01D3249F46894A0
:1001400006C00E94EE00610F711D811D911D11916D
:1001500010531A30B0F33EF49095809570956195E8
:100160007F4F8F4F9F4F1F910895FB01DC0102C00D
:1001700001900D9241505040D8F70895DC0101C024
:100180006D9341505040E0F70895FC01819186172E
:1001900021F08823D9F7992708953197CF01089541
:1001A000FB01DC018D91019080190110D9F3990BAD
:1001B0000895FB01DC0101900D920020E1F7089504
:1001C000FB01DC014150504030F08D9101908019CD
:1001D00019F40020B9F7881B990B0895592F482F5F
:1001E000372F262F660F771F881F991F660F771FDF
:1001F000881F991F620F731F841F951F660F771F3B
:10020000881F991F08950F9381309105D9F46F5F6E
:100210007F4F09F584EC91E00E94F60A87EC91E0AB
:1002200069E070E045E050E026E030E002E20E9444
:10023000000987ED91E060E170E042E123E00E9477
:10024000A90A09C0892B39F46F5F7F4F21F487ED2C
:1002500091E00E94990A0F91089580E090E06FEF7D
:100260007FEF0E940301089581E090E06FEF7FEF40
:100270000E940301089587E060E00E94B60F82E0CB
:1002800090E00E94320F87E061E00E94B60F82E0AA
:1002900090E00E94320F87E060E00E94B60F089560
:1002A000892B19F084E060E002C084E061E00E94E4
:1002B000B60F82E090E00E94320F08951F93182F2E
:1002C000882319F48AE060E002C08AE061E00E94BD
:1002D000B60F1093F50185E090E00E94320F1F9158
:1002E000089580E00E945E01089581E00E945E0111
:1002F00008956091A5017091A60184EC91E00E949F
:100300007C0B08958091A7019091A8010FC084EC07
:1003100091E00E947C0B64E070E080E090E00E943D
:10032000D90E8091F2019091F30101979093F3011E
:100330008093F2016091F2017091F3018091A50127
:100340009091A6016817790714F708958091A50187
:100350009091A6010FC084EC91E00E947C0B64E0B8
:1003600070E080E090E00E94D90E8091F2019091BF
:10037000F30101969093F3018093F2016091F201F1
:100380007091F3018091A7019091A80186179707BA
:1003900014F70895EF92FF920F931F93CF93DF937B
:1003A0008C0184EC91E063E170E00E94630CC0E09A
:1003B000D0E078010894E108F1081CC00E94A60171
:1003C0006091AA017091AB01882777FD8095982FE5
:1003D0000E94D90E0E948201CE15DF0551F0609176
:1003E000AC017091AD01882777FD8095982F0E9410
:1003F000D90E2196C017D1070CF368EC70E080E0AD
:1004000090E00E94D90E84EC91E00E94100BDF91E5
:10041000CF911F910F91FF90EF9008951F93CF936D
:10042000DF93182FC0E0D0E007C087EC91E06C2F7D
:10043000412F0E948508219687EC91E00E9499083F
:1004400090E0C817D9078CF387EC91E00E94E3088D
:10045000DF91CF911F910895CF93DF93C0E0D0E05B
:1004600086E090E00E940E0268EC70E080E090E090
:100470000E94D90E82E090E00E940E0268EC70E0CB
:1004800080E090E00E94D90E2196C330D10541F75B
:10049000DF91CF910895282F2095253558F4822F8C
:1004A00090E0AC01440F551F480F591F842F8095D1
:1004B00060E00DC02A3A70F42555822F90E0BC010F
:1004C000660F771F680F791F462F409580E00E94C6
:1004D000A20908952A5A30E0C901880F991F820F96
:1004E000931F682F609540E00E94A20908956F92C3
:1004F0007F928F929F92AF92BF92CF92DF92EF92B4
:10050000FF920F931F935B016C0139014A0187EC45
:1005100091E00E949908E82EC401B3016A197B0991
:100520008C099D090E9419175B016C01C401B3017C
:100530000E9419179B01AC01C601B5010E947E16ED
:100540005B016C01FF240027F7FC0095102FC80108
:10055000B7010E9419179B01AC01C601B5010E94A9
:10056000A5170E94E6167B018C01F7FC19C087ECE9
:1005700091E042E00E94850887EC91E00E94E30848
:1005800080E060E048EC0E94A2099B01AC0187ED8D
:1005900091E0B7010E94430987ED91E00E94D609DE
:1005A0001F910F91FF90EF90DF90CF90BF90AF9091
:1005B0009F908F907F906F900895CF93DF9380915D
:1005C000EA019091EB0101969093EB018093EA018F
:1005D0008F3F910529F024F01092EB011092EA016F
:1005E000C0E0D0E00DC08091EA018C0F0E944B0268
:1005F0009B01AC0187ED91E0BE010E944309219669
:1006000087ED91E00E94C209C817D90760F387ED12
:1006100091E00E94D60964E170E080E090E00E94E1
:10062000D90E87EC91E06091EC014091EE010E94BF
:10063000850887EC91E00E94E30880918E0120916B
:10064000EC013091ED01882319F02F5F3F4F02C07C
:10065000215030403093ED012093EC01C091EC012A
:10066000D091ED011C161D064CF487EC91E00E9420
:10067000990890E00197C817D9078CF090E0809115
:100680008E01882309F491E090938E018091EE0110
:100690009091EF0101969093EF018093EE0180918C
:1006A000EE019091EF01079734F081E090E0909394
:1006B000EF018093EE01DF91CF910895EF92FF92C9
:1006C0000F931F93CF93DF9380E060E040E00E94A0
:1006D000A2097B018C01C0E0D0E008C087ED91E069
:1006E000BE01A80197010E944309219687ED91E080
:1006F0000E94C209C817D90788F387ED91E00E94CC
:10070000D609DF91CF911F910F91FF90EF9008953F
:100710006F927F928F929F92BF92CF92DF92EF92D1
:10072000FF920F931F93CF93DF93CC24DD24682E89
:10073000772488249924B4C0CE018C0D9D1D6FEFC1
:1007400070E00E9447180E944B029B01AC01BE0161
:100750006E0D7F1D87ED91E00E944309239687ED82
:1007600091E00E94C209C817D90730F387ED91E0E4
:100770000E94D60910E02AC087EC91E0612F44E086
:100780000E9485081F5F87EC91E0612F46E00E9480
:1007900085081F5F87EC91E0612F42E00E94850889
:1007A0001F5F87EC91E0612F43E00E9485081F5F87
:1007B00087EC91E0612F41E00E9485081F5F87EC84
:1007C00091E0612F45E00E9485081F5F87EC91E072
:1007D0000E949908181780F287EC91E00E94E308C4
:1007E00000E02FC087EC91E060E00E945308B82E33
:1007F00011E00DC087EC91E0612F0E945308482F53
:10080000115087EC91E0612F0E9485081E5F87ECF4
:1008100091E00E949908181768F387EC91E00E9414
:100820009908682F615087EC91E04B2D0E94850854
:1008300087EC91E00E94E308C401B3010E94D90E45
:100840000F5F87EC91E00E949908081758F2C0E00A
:10085000D0E00CC0BE016E0D7F1D87ED91E020E061
:1008600030E040E050E00E944309239687ED91E09C
:100870000E94C209C817D90768F30894E11CF11C4B
:1008800083E0E816F10419F0C0E0D0E068CF82E31D
:1008900090E0C80ED91E9CE2C91691E0D90619F065
:1008A000EE24FF24F1CFDF91CF911F910F91FF90A4
:1008B000EF90DF90CF90BF909F908F907F906F9040
:1008C00008958DEA92E060E071E00E94E3120895DD
:1008D0008DEA92E062E071E00E94E3120895BC01AB
:1008E0008DEA92E00E94291308950F931F93DF93DE
:1008F000CF93CDB7DEB727970FB6F894DEBF0FBE04
:10090000CDBF81E10E940A10019711F080E01DC067
:100910008DEA92E064E071E00E94E31280E090E0F2
:100920000E9450011092F1011092F0018E010F5FB0
:100930001F4FC80169E071E00E94EF14C8010E94D6
:100940006F04C8010E94971581E027960FB6F894AE
:10095000DEBF0FBECDBFCF91DF911F910F910895E4
:10096000AF92BF92CF92DF92EF92FF920F931F93BD
:10097000CF93DF93EC01C090F001D090F101FC0126
:10098000EE0FFF1FE157FE4F0190F081E02DEC15B7
:10099000FD0509F48AC0CE16DF0660F40E947501D9
:1009A0008DEA92E061E171E00E94E312F1E0EF2E46
:1009B000F12C0BC00E9471018DEA92E068E171E0B8
:1009C0000E94E312EE24EA94FE2C81E090E00E9463
:1009D000500162E370E080E090E00E94D90E8E0149
:1009E000000F111F01571E4F74EAA72E76E0B72E95
:1009F0003BC00E94B30E4091F0015091F101CA0139
:100A00008C199D0997FF03C0909581959F4FF80120
:100A100020813181F6E0843A9F077CF0CA01821B75
:100A2000930B97FF03C0909581959F4F26E0843AE2
:100A300092071CF0C0E0D0E003C0E501C81BD90B51
:100A40000E943B018091A3019091A4018C0F9D1FF6
:100A50000E94320F6FEFE6166FEFF606D9F40E9490
:100A600075048823B9F00BC02091F0013091F10199
:100A7000F801808191812817390709F0BACF809158
:100A8000A901882311F00E942C0280E090E00E94CE
:100A900050010BC08091F0019091F1018E0D9F1DCE
:100AA0009093F1018093F001DFCFDF91CF911F91FF
:100AB0000F91FF90EF90DF90CF90BF90AF9008958F
:100AC0000F931F93DF93CF93CDB7DEB727970FB662
:100AD000F894DEBF0FBECDBF0E94710181E090E0AF
:100AE0000E9450018E010F5F1F4FC8016FE171E03E
:100AF0000E94EF14C8010E946F04C8010E9497155C
:100B000008C00E943B018091A3019091A4010E9422
:100B1000320F0E9475048823A1F327960FB6F8942C
:100B2000DEBF0FBECDBFCF91DF911F910F91089512
:100B30004F925F926F927F928F929F92AF92BF92ED
:100B4000CF92DF92EF92FF920F931F93DF93CF9399
:100B5000CDB7DEB72E970FB6F894DEBF0FBECDBF70
:100B60004C018B010E94A50E2B013C0188EE93E005
:100B70009C01029FC001039F900D129F900D1124B4
:100B80005C01CC24B7FCC094DC2C8091A9018823A3
:100B900021F086E090E00E940E028E010F5F1F4F51
:100BA000C80161E371E00E94EF14C8010E946F0464
:100BB000C8010E949715EE24FF24870128C031E068
:100BC0008316910429F082E08816910441F402C052
:100BD0008DE001C08BE00E940A10892B71F10E9408
:100BE000A50E7B018C01E418F50806091709809110
:100BF000A901882331F0C801B701A60195010E941F
:100C0000770261E070E080E090E00E94D90EEA1483
:100C1000FB040C051D0598F28E01085F1F4FC801EB
:100C200066E471E00E94EF14C8010E946F04C801DD
:100C30000E94971580E0892809F481E02E960FB66E
:100C4000F894DEBF0FBECDBFCF91DF911F910F9102
:100C5000FF90EF90DF90CF90BF90AF909F908F90DC
:100C60007F906F905F904F9008952F923F924F9298
:100C70005F926F927F928F929F92AF92BF92CF922C
:100C8000DF92EF92FF920F931F93DF93CF93CDB735
:100C9000DEB7EF970FB6F894DEBF0FBECDBF3C01B5
:100CA0008E010F5F1F4FC801B3010E948C15C80150
:100CB0000E946F04C8010E9497158E01085F1F4FA4
:100CC000C80168E571E00E94EF14C301B8010E94F9
:100CD0003314882311F400E013C08E01015F1F4F0D
:100CE000C8016AE571E00E94EF14C301B8010E94D7
:100CF000CB13811181E0082FCE010F960E9497152A
:100D0000CE0108960E949715002309F4CEC0C301B6
:100D10006CE571E00E94ED13882319F00E946005D4
:100D20007FC08E010A5E1F4FC80165E671E00E9418
:100D3000EF14C301B8010E943314F82EC8010E94B9
:100D40009715FF2009F472C081E08093F401C3017C
:100D50006CE70E94C6135C010894A11CB11CC3017E
:100D60006CE7A5010E94A8136C014C010894811C3A
:100D7000911CC3016CE7A4010E94A8137C018E01A1
:100D8000035E1F4FC801B301A50196010E94221501
:100D9000C8010E9497131B012C01C8010E949715DE
:100DA0008E010C5D1F4FC801B301A40197010E9481
:100DB0002215C8010E9497135B016C01C8010E94B3
:100DC00097158E01055D1F4F0894E11CF11CC801A9
:100DD000B301A7010E946915C8010E94971300E0A2
:100DE000613071058105910509F401E0CE018B9612
:100DF0000E949715002351F48091A901813031F4AC
:100E000080E090E00E940E020E945E030093A90120
:100E10000E946005C101B5010E949805882319F060
:100E20000E94680442C00E9461043FC0C3016CE795
:100E30000E94C6137C018E010E5C1F4FC801B301D6
:100E400041E050E097010E942215C8010E949713CB
:100E50005B016C01C8010E9497158E01075C1F4F52
:100E60000894E11CF11CC801B301A7010E94691597
:100E7000C8010E9497136B017C01C8010E9497155D
:100E8000C5010E94B004C6010E94CA010E94680404
:100E9000AB2859F4CD2849F48091A901882329F081
:100EA0001092F4018FE00E948803EF960FB6F89439
:100EB000DEBF0FBECDBFCF91DF911F910F91FF908D
:100EC000EF90DF90CF90BF90AF909F908F907F90EA
:100ED0006F905F904F903F902F900895EF92FF9208
:100EE0000F931F93DF93CF93CDB7DEB72E970FB637
:100EF000F894DEBF0FBECDBF8DEA92E00E946E1166
:100F00001816190694F58E010F5F1F4FC8016FE682
:100F100071E00E94EF14F02EE12E0FC08DEA92E0F6
:100F20000E949F11682F8F2D9E2D0E94A91462E0B0
:100F300070E080E090E00E94D90E8DEA92E00E947D
:100F40006E11892B59F78E01085F1F4FC8016F2D55
:100F50007E2D0E948C15C8010E943506C8010E9492
:100F600097158F2D9E2D0E9497158091A90188239A
:100F700031F08091F401882311F40E94DD022E9655
:100F80000FB6F894DEBF0FBECDBFCF91DF911F919A
:100F90000F91FF90EF900895EF92FF920F931F93A0
:100FA00084E061E00E94770F87E061E00E94770FA4
:100FB0008AE061E00E94770F8FEF61E00E94770F77
:100FC0008FEF61E00E94770F8DE060E00E94770F65
:100FD0008DE061E00E94B60F8BE060E00E94770F29
:100FE0008BE061E00E94B60F81E160E00E94770F24
:100FF00081E161E00E94B60F8FEF61E00E94770F00
:101000008FEF61E00E94770F8FEF61E00E94770F12
:101010008FEF61E00E94B60F8FEF61E00E94B60F84
:1010200080E090E00E94500180E00E945E0104ECAC
:1010300011E0C80163E170E00E94630C87EDE82EC7
:1010400081E0F82EC7010E94C609C7010E94D60997
:1010500080E090E00E940E02BDEAEB2EB2E0FB2E93
:10106000C70140E855E260E070E00E94E710C70168
:1010700060E771E00E94E31281E090E00E9450017D
:1010800081E00E945E010E94790164EF71E080E0DE
:1010900090E00E94D90EC8010E94100B1F910F9181
:1010A000FF90EF900895FC018785861710F480E08B
:1010B00008950584F685E02DE60FF11D80818F7778
:1010C000482F50E020E030E0CA0180739070892BF7
:1010D00011F021E030E0B901660F771F20E030E029
:1010E000CA018C709070892B11F021E030E0220F42
:1010F000331F220F331F962F922B80E043705070C6
:10110000452B09F081E0892B0895FC01878586171E
:1011100078F040FD02C080E801C081E842FD8460B3
:1011200041FD80610584F685E02DE60FF11D808389
:101130000895FC0187850895EF92FF920F931F9306
:10114000CF93DF938C01C7E0D0E0E62EFF24C701E8
:101150000C2E02C0959587950A94E2F780FF04C093
:10116000F801808161E003C0F801808160E00E94A5
:10117000B60FF801838161E00E94B60FF801838108
:1011800060E00E94B60F2197FFEFCF3FDF07F9F62F
:10119000DF91CF911F910F91FF90EF9008950F93E2
:1011A0001F938C01FC01828161E00E94B60F81E0F7
:1011B00090E00E94320FF801828160E00E94B60F39
:1011C0001F910F9108951F93CF93DF93EC0110E0CF
:1011D0000DC090E00197811B9109ED85FE85E80F18
:1011E000F91FCE0160810E949C081F5F8F85181730
:1011F00080F3CE010E94CF08DF91CF911F91089517
:101200000F93CF93DF93EC0168838FEF89834A8339
:101210002B831C820F87802F90E00E94280D8D87E2
:101220009E8790E020E809C08F85891728F0ED851A
:10123000FE85E90FF11D20839F5F9017A8F3888139
:1012400060E00E94B60F888161E00E94770F89817B
:1012500060E00E94B60F898161E00E94770F8A8169
:1012600060E00E94B60F8A8161E00E94770F8B8157
:1012700060E00E94B60F8B8161E00E94770FDF91E2
:10128000CF910F9108950F931F93CF93DF93EC01AC
:10129000888199816817790708F04FC0CA01AA2789
:1012A000BB27182FBB27A52F942F832F082F422F42
:1012B0002D81222359F130E0812F90E0FC01E29F43
:1012C000C001E39F900DF29F900D1124892F990F7B
:1012D000990B182F802F90E0FC01E29FC001E39F43
:1012E000900DF29F900D1124892F990F990B082FC3
:1012F000842F90E0AC01429FC001439F900D529F0C
:10130000900D1124892F990F990B482FCB01880F2D
:10131000991F860F971FEE81FF81E80FF91F8885BF
:10132000DF01A80FB11D1C938985DF01A80FB11D36
:101330000C938A85E80FF11D4083DF91CF911F91B7
:101340000F9108950F931F93062F10E020E030E0D7
:10135000322F212F102F002750E060E070E0042B87
:10136000152B262B372B90E0A0E0B0E0DC0199276D
:101370008827082B192B2A2B3B2BB801C9011F9159
:101380000F910895FC018081918108950F931F931F
:101390008C01FC01848161E00E94770FF801848157
:1013A00060E00E94B60F1F910F910895EF92FF9297
:1013B0000F931F93DF93CF93CDB7DEB727970FB669
:1013C000F894DEBF0FBECDBF8C01DC0116968D9167
:1013D0009C911797892B09F49FC00E94B30EF801C6
:1013E0002485358546855785621B730B840B950BC9
:1013F000623371058105910580F3F894D801129646
:101400008D919C9113979F838E831696ED90FC90FF
:101410001797F70181917F0189831B968C911B9708
:101420005096ED91FC91519752969C9181FF30C05E
:101430008081892B8A838081909598239B838B81DF
:101440008D8388E08C836A815B8129813C814D8119
:101450008E819F81D701608327FD462F3A95408377
:10146000452F39F0221F00C000005083000000C04B
:10147000F2CF38E02D9150830000019761F7D80139
:101480005196FC93EE93509729833C834D833AC049
:101490008081892B8A838081909598239B838B817F
:1014A0008C8388E08D836A815B8129813D814C81B9
:1014B0008E819F81D701608327FD462F00C000C029
:1014C000408300C000C000C000C000C050830000C6
:1014D000452F3A9541F0221F000000C000C000C017
:1014E00000C000C0E8CF38E02D9100C0508300C09C
:1014F000019709F7D8015196FC93EE9350972983F1
:101500003D834C839F838E8378940E94B30EF801B1
:10151000648775878687978727960FB6F894DEBF0E
:101520000FBECDBFCF91DF911F910F91FF90EF9034
:101530000895CF93DF93EC018E819F81009711F086
:101540000E94C50D8C8160E00E94770FDF91CF91E2
:1015500008951F93CF93DF93EC01122F7983688353
:10156000CB01880F991F860F971F9B838A834C831B
:101570001D821F821E822B871C861D861E861F864B
:1015800050E0FA01EA57FF4FE491F0E0EE0FFF1F41
:10159000EE58FF4F25913491398B288B46565F4F7B
:1015A000FA0144914A8B0E94280D9F838E830097F5
:1015B00031F04A815B8160E070E00E94BE0010FF64
:1015C00004C081E0888719860BC012FF06C081E045
:1015D000888782E089871A8605C0188681E0898716
:1015E00082E08A87DF91CF911F910895FC0180915D
:1015F000F6018C3090F480838F5F8093F6018150E8
:1016000090E0FC01EE0FFF1FE80FF91FE950FE4FBD
:1016100088EB9BE09283818308958FEF8083089508
:10162000DC018C9190E0FC01EE0FFF1FE80FF91F29
:10163000E950FE4F80818F7B80838C916CE00E940B
:10164000271890E0AC01440F551F480F591F440F55
:10165000551F440F551F20E030E0C901840F951F2E
:10166000FC01EE0FFF1FE80FF91FE950FE4F8081CC
:1016700086FD05C02F5F3F4F2C30310571F708956F
:10168000FC0120812C30B8F58181992787FD909548
:1016900048E850E0481B590B440F551F440F551F95
:1016A0006417750784F08281992787FD909548E536
:1016B00052E0481B590B440F551F440F551F641728
:1016C00075070CF4AB0142505040CA01AA2797FDA0
:1016D000A095BA2F880F991FAA1FBB1F4FB7F89468
:1016E00030E0F901EE0FFF1FE20FF31FE950FE4F4C
:1016F000928381834FBF0895AF92BF92CF92DF92C2
:10170000EF92FF920F931F93CF93DF93EC019B0116
:1017100082E0603278070CF048C077FF03C020E019
:1017200030E005C0653B710514F024EB30E000D0DB
:1017300000D0B901882777FD8095982F298133271C
:1017400027FD3095E8E8AE2EB12CA21AB30AAA0CF8
:10175000BB1CAA0CBB1CCC24B7FCC094DC2CEA81BB
:10176000FF27E7FDF09528E532E02E1B3F0B220F07
:10177000331F220F331F442737FD4095542FEDB7F9
:10178000FEB7218332834383548320E030E040E07E
:1017900050E004EBE02EF12C012D112D0E943D13A1
:1017A0009B010F900F900F900F90CE01B9010E94F6
:1017B000400BDF91CF911F910F91FF90EF90DF9041
:1017C000CF90BF90AF900895CF92DF92EF92FF92AB
:1017D0001F93CF93DF93EC01162F7A016901888163
:1017E0008C3008F064C0862F61E00E94770F8881FA
:1017F00090E0FC01EE0FFF1FE80FF91FE950FE4FCC
:101800001F738081807C812B808380E292E08E191F
:101810009F0964E070E00E944718698380E699E0C0
:101820008C199D0964E070E00E9447186A83A881C2
:101830008A2F6CE00E942718682F70E0AB01440FDC
:10184000551F460F571F440F551F440F551F20E0CB
:1018500030E0C901840F951FFC01EE0FFF1FE80F58
:10186000F91FE950FE4F808186FD15C02F5F3F4F65
:101870002C30310571F724C01092800082E08093F3
:1018800081001092850010928400B19A80916F00BF
:10189000826080936F008A2F90E0FC01EE0FFF1FA3
:1018A000E80FF91FE950FE4F8081806480838881B2
:1018B000DF91CF911F91FF90EF90DF90CF9008952F
:1018C000672BD1F2E8CF40E252E020E639E00E94F7
:1018D000E40B08951F920F920FB60F9211242F93CD
:1018E0003F934F935F936F937F938F939F93AF93A8
:1018F000BF93EF93FF9380911B0287FF05C0109267
:101900008500109284002BC020911B02332727FDF5
:1019100030958091F60190E02817390704F5809101
:101920001B02992787FD9095FC01EE0FFF1FE80F22
:10193000F91FE950FE4F808186FF11C080911B0284
:10194000992787FD9095FC01EE0FFF1FE80FF91F07
:10195000E950FE4F80818F7360E00E94B60F809146
:101960001B028F5F80931B0220911B02332727FDF0
:1019700030958091F60190E0281739070CF04EC0A1
:1019800080911B028C300CF049C020918400309172
:10199000850080911B02992787FD9095FC01EE0F31
:1019A000FF1FE80FF91FE950FE4F81819281280F38
:1019B000391F309389002093880080911B0299275A
:1019C00087FD9095FC01EE0FFF1FE80FF91FE9500E
:1019D000FE4F808186FF2BC080911B02992787FDD7
:1019E0009095FC01EE0FFF1FE80FF91FE950FE4F25
:1019F00080818F7361E00E94B60F19C080E49CE97A
:101A000005C0809184009091850004969093890090
:101A1000809388008FEF80931B0209C0809184001F
:101A200090918500049680549C4940F3EACFFF9141
:101A3000EF91BF91AF919F918F917F916F915F9146
:101A40004F913F912F910F900FBE0F901F901895BF
:101A50000F931F93CF93DF93BC018230910510F455
:101A600062E070E0E091D102F091D20240E050E0FB
:101A7000A0E0B0E024C08081918186179707D0F064
:101A80008617970771F482819381109729F0139636
:101A90009C938E9312972CC09093D2028093D10284
:101AA00027C04115510519F08417950718F48D01C9
:101AB000AC01EF01DF01828193819C01F901309734
:101AC000D1F641155105F9F0CA01861B970B8430F8
:101AD000910580F48A819B810115110521F0F8019F
:101AE0009383828304C09093D2028093D102FE013B
:101AF000329645C0FE01E80FF91F6193719302977A
:101B0000998388833CC08091CF029091D002892B29
:101B100041F48091B0019091B1019093D0028093F3
:101B2000CF024091B2015091B3014115510541F4EA
:101B30004DB75EB78091AE019091AF01481B590B34
:101B40002091CF023091D00224173507B0F4CA019A
:101B5000821B930B8617970780F0AB014E5F5F4F98
:101B60008417950750F0420F531F5093D0024093B3
:101B7000CF02F9016193719302C0E0E0F0E0CF0180
:101B8000DF91CF911F910F910895CF93DF939C0127
:101B9000009709F48FC0EC0122971B821A82609192
:101BA000D1027091D2026115710581F48881998109
:101BB000820F931F2091CF023091D002281739074E
:101BC00039F5D093D002C093CF0274C0DB0140E05E
:101BD00050E0AC17BD0708F1BB83AA83FE01219139
:101BE0003191E20FF31FAE17BF0779F48D919C91ED
:101BF0001197280F391F2E5F3F4F39832883129684
:101C00008D919C9113979B838A834115510571F4A3
:101C1000D093D202C093D1024DC012968D919C9167
:101C20001397AD01009711F0DC01D3CFDA011396C1
:101C3000DC93CE931297FA0121913191E20FF31FB9
:101C4000CE17DF0769F488819981280F391F2E5F2D
:101C50003F4FFA01318320838A819B819383828362
:101C6000E0E0F0E0DB0112968D919C9113970097D4
:101C700019F0BC01FD01F6CFAB014E5F5F4FDB01F8
:101C80008D919C91840F951F2091CF023091D002AD
:101C90002817390779F4309729F41092D20210925C
:101CA000D10202C013821282425050405093D0029F
:101CB0004093CF02DF91CF9108951F920F920FB6FC
:101CC0000F9211242F933F938F939F93AF93BF93C2
:101CD0008091200290912102A0912202B0912302D2
:101CE000309124020196A11DB11D232F2D5F2D37A8
:101CF00020F02D570196A11DB11D20932402809341
:101D0000200290932102A0932202B093230280919B
:101D10001C0290911D02A0911E02B0911F0201961B
:101D2000A11DB11D80931C0290931D02A0931E0261
:101D3000B0931F02BF91AF919F918F913F912F91CF
:101D40000F900FBE0F901F9018958FB7F8942091A9
:101D500020023091210240912202509123028FBF34
:101D6000B901CA0108959FB7F89420911C023091DF
:101D70001D0240911E0250911F0286B5A89B06C00D
:101D80008F3F21F02F5F3F4F4F4F5F4F9FBF542F2B
:101D9000432F322F2227280F311D411D511D82E074
:101DA000220F331F441F551F8A95D1F7B901CA016D
:101DB00008959B01AC017FB7F89480911C0290912B
:101DC0001D02A0911E02B0911F0266B5A89B05C01E
:101DD0006F3F19F00196A11DB11D7FBFBA2FA92F2A
:101DE000982F8827860F911DA11DB11D62E0880FD5
:101DF000991FAA1FBB1F6A95D1F7BC012DC0FFB761
:101E0000F89480911C0290911D02A0911E02B09145
:101E10001F02E6B5A89B05C0EF3F19F00196A11D72
:101E2000B11DFFBFBA2FA92F982F88278E0F911DA4
:101E3000A11DB11DE2E0880F991FAA1FBB1FEA95E3
:101E4000D1F7861B970B885E9340C8F22150304033
:101E50004040504068517C4F2115310541055105E6
:101E600071F60895019739F0880F991F880F991F0F
:101E700002970197F1F70895789484B5826084BD44
:101E800084B5816084BD85B5826085BD85B581607E
:101E900085BDEEE6F0E0808181608083E1E8F0E0DE
:101EA0001082808182608083808181608083E0E80D
:101EB000F0E0808181608083E1EBF0E080818460EC
:101EC0008083E0EBF0E0808181608083EAE7F0E0EE
:101ED0008081846080838081826080838081816052
:101EE00080838081806880831092C1000895CF93A1
:101EF000DF93482F50E0CA0186569F4FFC01349172
:101F00004A575F4FFA018491882369F190E0880F66
:101F1000991FFC01E859FF4FA591B491FC01EE58BF
:101F2000FF4FC591D491662351F42FB7F8948C914B
:101F3000932F909589238C93888189230BC06230DD
:101F400061F42FB7F8948C91932F909589238C93FB
:101F50008881832B88832FBF06C09FB7F8948C910C
:101F6000832B8C939FBFDF91CF910895482F50E032
:101F7000CA0182559F4FFC012491CA0186569F4F8A
:101F8000FC0194914A575F4FFA013491332309F4CD
:101F900040C0222351F1233071F0243028F4213045
:101FA000A1F0223011F514C02630B1F02730C1F075
:101FB0002430D9F404C0809180008F7703C08091D1
:101FC00080008F7D8093800010C084B58F7702C021
:101FD00084B58F7D84BD09C08091B0008F7703C028
:101FE0008091B0008F7D8093B000E32FF0E0EE0F82
:101FF000FF1FEE58FF4FA591B4912FB7F8946623B9
:1020000021F48C919095892302C08C91892B8C931B
:102010002FBF0895682F70E0CB0182559F4FFC01C0
:102020002491CB0186569F4FFC0144916A577F4F04
:10203000FB019491992319F420E030E03CC0222365
:1020400051F1233071F0243028F42130A1F02230F6
:1020500011F514C02630B1F02730C1F02430D9F486
:1020600004C0809180008F7703C0809180008F7DB5
:102070008093800010C084B58F7702C084B58F7DB7
:1020800084BD09C08091B0008F7703C08091B000FB
:102090008F7D8093B000892F90E0880F991F84581E
:1020A0009F4FFC01A591B4918C9120E030E08423F6
:1020B00011F021E030E0C901089508951F920F92B8
:1020C0000FB60F9211242F933F934F938F939F93AB
:1020D000EF93FF938091C00082FD1DC04091C60028
:1020E00020916502309166022F5F3F4F2F73307051
:1020F00080916702909168022817390771F0E0918A
:102100006502F0916602EB5DFD4F408330936602FD
:102110002093650202C08091C600FF91EF919F91CC
:102120008F914F913F912F910F900FBE0F901F9065
:102130001895E091B902F091BA02E05CFF4F8191ED
:10214000919120813181821B930B8F739070892B29
:1021500011F00E945D1008951F920F920FB60F921A
:1021600011242F933F938F939F93EF93FF9320918D
:10217000A9023091AA028091AB029091AC0228177B
:10218000390731F48091C1008F7D8093C10014C064
:10219000E091AB02F091AC02E759FD4F20818091B4
:1021A000AB029091AC0201968F7390709093AC0249
:1021B0008093AB022093C600FF91EF919F918F9186
:1021C0003F912F910F900FBE0F901F901895AF92D7
:1021D000BF92DF92EF92FF920F931F93CF93DF9303
:1021E000EC017A018B01DD24403081EE580780E05C
:1021F000680780E0780711F0DD24D39491E0A92EE0
:10220000B12CEC89FD89DD2069F0C50108A002C070
:10221000880F991F0A94E2F7808360E079E08DE3EC
:1022200090E005C0108260E874E88EE190E0A801BB
:1022300097010E945A182150304040405040569516
:1022400047953795279580E12030380720F0DD202D
:1022500011F0DD24D6CFE889F9893083EA89FB893A
:10226000208319A2EE89FF89408121E030E0C90175
:102270000C8C02C0880F991F0A94E2F7482B408308
:10228000EE89FF894081C9010D8C02C0880F991F1A
:102290000A94E2F7482B4083EE89FF894081C90107
:1022A0000E8C02C0880F991F0A94E2F7482B4083D6
:1022B000EE89FF8980810F8C02C0220F331F0A94A0
:1022C000E2F7209528232083DF91CF911F910F9172
:1022D000FF90EF90DF90BF90AF900895DC011C96C7
:1022E000ED91FC911D97E05CFF4F21913191808130
:1022F0009181281B390B2F733070C9010895DC01BF
:102300001C96ED91FC911D97E05CFF4F208131817F
:10231000E054F040DF01AE5BBF4F8D919C9111976F
:102320002817390719F42FEF3FEF07C08D919C91C3
:10233000E80FF91F8081282F30E0C9010895DC01E2
:102340001C96ED91FC911D97E05CFF4F208131813F
:10235000E054F040DF01AE5BBF4F8D919C9111972F
:102360002817390719F42FEF3FEF10C08D919C917A
:102370001197E80FF91F20818D919C91119701967B
:102380008F73907011969C938E9330E0C9010895DD
:10239000DC0191968C919197882339F05496ED91B8
:1023A000FC915597808186FFF9CF91961C920895F4
:1023B000CF93DF93EC01EE85FF85E05CFF4F20813A
:1023C0003181E054F0402F5F3F4F2F733070DF01B9
:1023D000AE5BBF4F8D919C91119728173907D1F3B0
:1023E000E05CFF4F80819181E054F040E80FF91FDD
:1023F0006083EE85FF85E05CFF4F31832083EE89AB
:10240000FF89208181E090E00F8C02C0880F991F26
:102410000A94E2F7282B208381E089A3EC89FD89C7
:1024200080818064808381E090E0DF91CF91089586
:102430001092B0021092AF0288EE93E0A0E0B0E0FC
:102440008093B1029093B202A093B302B093B4020E
:1024500088EB91E09093AE028093AD0285E292E02A
:102460009093BA028093B90289E692E09093BC02FD
:102470008093BB0285EC90E09093BE028093BD02F6
:1024800084EC90E09093C0028093BF0280EC90E0D7
:102490009093C2028093C10281EC90E09093C402B9
:1024A0008093C30282EC90E09093C6028093C502B1
:1024B00086EC90E09093C8028093C70284E08093FA
:1024C000C90283E08093CA0287E08093CB0285E053
:1024D0008093CC0281E08093CD020895CF93DF9367
:1024E0000E943C0F0E94CC07C9E9D0E10E946E0710
:1024F0002097E1F30E949910F9CFCF92DF92EF92EB
:10250000FF920F931F93CF93DF937C016B018A019E
:10251000C0E0D0E00FC0D6016D916D01D701ED9103
:10252000FC910190F081E02DC7010995C80FD91FDA
:10253000015010400115110571F7CE01DF91CF91C7
:102540001F910F91FF90EF90DF90CF900895EF9241
:10255000FF920F931F938C01DC01ED91FC91019090
:10256000F081E02D6DE009957C01D801ED91FC91A1
:102570000190F081E02DC8016AE009959C012E0DC3
:102580003F1DC9011F910F91FF90EF900895CF93C8
:10259000DF93EC016115710519F420E030E00FC004
:1025A000DB010D900020E9F71197A61BB70BE8811E
:1025B000F9810280F381E02DAD0109959C01C901EB
:1025C000DF91CF910895EF92FF920F931F937C01BB
:1025D0000E94C7128C01C7010E94A712080F191F81
:1025E000C8011F910F91FF90EF900895AF92BF9295
:1025F000CF92DF92EF92FF920F931F93CF93DF93CF
:102600005C016B01EE24FF24C0E0D0E010C0D501D6
:10261000ED91FC9100811181C601BE010E948613DB
:10262000682FC501F8010995E80EF91E2196F601FB
:1026300084819581C817D90750F3C701DF91CF91E5
:102640001F910F91FF90EF90DF90CF90BF90AF90D0
:102650000895EF92FF920F931F937C010E94F61250
:102660008C01C7010E94A7129C01200F311FC901D4
:102670001F910F91FF90EF9008952F923F924F92EC
:102680005F926F927F928F929F92AF92BF92CF9202
:10269000DF92EF92FF920F931F93DF93CF93CDB70B
:1026A000DEB73B014C0119012A016D897E898F89B2
:1026B000988D6A197B098C099D09621A730A840A2C
:1026C000950AA40193010E940818E218F30804096E
:1026D0001509A80197010E947C182A0D3B1D4C1D6D
:1026E0005D1DB901CA01CF91DF911F910F91FF903C
:1026F000EF90DF90CF90BF90AF909F908F907F90A2
:102700006F905F904F903F902F900895FC018481CF
:1027100095816817790748F40190F081E02D309792
:1027200021F0E60FF71F8081089580E00895FC01F5
:1027300080819181009729F420E030E040E050E072
:1027400004C00E948E009B01AC01B901CA0108952A
:10275000CF93DF93FC01848195814817590768F472
:10276000C081D181772767FD7095CE01840F951FB9
:102770000E94C5009C01009719F42FEF3FEF02C0A3
:102780002C1B3D0BC901DF91CF91089540E050E033
:102790000E94A8130895FC01DB0124813581149661
:1027A0004D915C91159724173507A8F08081918190
:1027B000009789F06D917C916115710561F0241B82
:1027C000350B820F931F0E94D0009C0180E0232BC9
:1027D00019F481E0089580E00895DC01FB0114966E
:1027E0008D919C911597892B31F461157105A9F094
:1027F00090E0808108C00D90BC91A02D61157105FD
:1028000029F490E08C91882349F407C0CD010E94FF
:10281000D0009C0190E0232B09F491E0892F0895CA
:10282000FC01DB0114962D913C91159784819581D3
:10283000821B930B84179507A0F0808191810097EC
:1028400081F06D917C916115710559F0840F951F90
:10285000A9010E94E0009C0180E0232B19F481E093
:10286000089580E00895FC01DB01248135811496F0
:102870008D919C9115972817390710F480E00895E1
:10288000CF0140E050E00E94101408950F931F9371
:10289000CF93DF93EC018B016F5F7F4F888199812C
:1028A0000E949D15009711F480E005C099838883EC
:1028B0001B830A8381E0DF91CF911F910F910895CF
:1028C000CF93DF93EC0188819981892B29F08A814C
:1028D0009B818617970760F4CE010E9446148823D7
:1028E00041F08C819D81892B19F4E881F981108256
:1028F00081E0DF91CF910895EF92FF920F931F93A4
:10290000CF93DF93EC017B016C817D81E114F104B5
:10291000C1F04115510599F08A01060F171FB80142
:102920000E946014882369F0888199812C813D81FF
:10293000820F931FB7010E94D9001D830C8381E091
:1029400001C080E0DF91CF911F910F91FF90EF9038
:102950000895DF93CF9300D0CDB7DEB769831A8295
:10296000BE016F5F7F4F41E050E00E947C140F90EA
:102970000F90CF91DF910895CF93DF93EC01888181
:102980009981009711F00E94C50D198218821D824D
:102990001C821B821A82DF91CF910895EF92FF92E1
:1029A0000F931F93CF93DF93EC017B018A01BA0150
:1029B0000E946014882321F4CE010E94BC1407C039
:1029C0001D830C8388819981B7010E94D900CE01B3
:1029D000DF91CF911F910F91FF90EF900895CF93CA
:1029E000DF93EC01198218821B821A821D821C82DD
:1029F0001E826115710551F0DB010D900020E9F791
:102A00001197A61BB70BAD010E94CE14DF91CF9199
:102A100008950F931F93182F092F6115710559F011
:102A2000DB010D900020E9F71197A61BB70BAD0154
:102A30000E94CE1402C00E94BC14812F902F1F91BF
:102A40000F910895BF92CF92DF92EF92FF920F9372
:102A50001F93CF93DF93082FB92E6B017A01E90101
:102A60002417350710F4EA017901802F9B2D6DE8BA
:102A700071E00E94EF14D60114968D919C911597E8
:102A80008E159F05D0F08C179D0708F4EC01D60138
:102A9000ED91FC911197EC0FFD1F108110826D914B
:102AA0007C916E0D7F1D802F9B2D0E940915D601F4
:102AB000ED91FC91EC0FFD1F1083802F9B2DDF917A
:102AC000CF911F910F91FF90EF90DF90CF90BF902B
:102AD00008950F931F938C01FB01248135810E947F
:102AE0002215C8011F910F910895CF93DF93EC0138
:102AF000FB018617970761F060817181611571058F
:102B000029F0448155810E94CE1402C00E94BC1459
:102B1000CE01DF91CF910895FC01118210821382C2
:102B200012821582148216820E9475150895FC0186
:102B3000808191810E94C50D08956F927F928F923E
:102B40009F92AF92BF92CF92DF92EF92FF920F933C
:102B50001F93CF93DF938C01009729F4CB010E9440
:102B6000280D8C01BBC08EEFE82E8FEFF82EE00E03
:102B7000F11E4801860E971E8E149F0408F4ACC007
:102B8000D7014D915C91119746175707B8F0453022
:102B9000510508F4A3C0CA0104978617970708F4E3
:102BA0009DC042505040461B570BF4014193519336
:102BB0006D937C93CF010E94C50D90C05B01A41A58
:102BC000B50A3801640E751EA091D102B091D202EF
:102BD000E0E0F0E0CC24DD2447C0A615B705A9F558
:102BE000CD91DC911197CE0102968A159B0568F173
:102BF000CE018A199B09029612962C911297139670
:102C00003C91059758F0F40122833383CA19DB09FC
:102C1000D183C083D7016D937C9309C04E5F5F4F12
:102C20004C0F5D1FF70151834083C901FC01C114A2
:102C3000D10431F0D6011396FC93EE9312974EC057
:102C4000F093D202E093D10249C08D919C911197EB
:102C5000E817F90708F4FC016D0112968C911297A0
:102C600013969C919C01D901109709F0B6CF8091E1
:102C7000CF029091D00286159705E9F4E617F70781
:102C8000D0F42091B2013091B3012115310541F406
:102C90002DB73EB78091AE019091AF01281B390B43
:102CA00082169306C8F49092D0028092CF02F70168
:102CB0007183608313C0CB010E94280DEC01009743
:102CC00059F0D7014D915C91B8010E94B500C8013F
:102CD0000E94C50D8E0102C000E010E0C801DF9126
:102CE000CF911F910F91FF90EF90DF90CF90BF9009
:102CF000AF909F908F907F906F9008950CD0EBC015
:102D0000E3D040F0DAD030F021F45F3F19F0CCC0CE
:102D1000511115C1CFC0F0D098F39923C9F35523B1
:102D2000B1F3951B550BBB27AA27621773078407BE
:102D300038F09F5F5F4F220F331F441FAA1FA9F374
:102D400033D00E2E3AF0E0E830D091505040E69566
:102D5000001CCAF729D0FE2F27D0660F771F881FC7
:102D6000BB1F261737074807AB07B0E809F0BB0BB6
:102D7000802DBF01FF2793585F4F2AF09E3F5105DA
:102D800068F092C0DCC05F3FECF3983EDCF38695C0
:102D900077956795B795F7959F5FC9F7880F911D50
:102DA0009695879597F90895E1E0660F771F881F3C
:102DB000BB1F621773078407BA0720F0621B730BEF
:102DC000840BBA0BEE1F88F7E095089504D0689441
:102DD000B111B5C0089598D088F09F5790F0B92FE1
:102DE0009927B751A0F0D1F0660F771F881F991F60
:102DF0001AF0BA95C9F712C0B13081F09FD0B1E096
:102E000008959CC0672F782F8827B85F39F0B93FA5
:102E1000CCF3869577956795B395D9F73EF4909561
:102E20008095709561957F4F8F4F9F4F0895E894DF
:102E300009C097FB3EF490958095709561957F4F02
:102E40008F4F9F4F9923A9F0F92F96E9BB279395B0
:102E5000F695879577956795B795F111F8CFFAF4C0
:102E6000BB0F11F460FF1BC06F5F7F4F8F4F9F4FF1
:102E700016C0882311F096E911C0772321F09EE84F
:102E8000872F762F05C0662371F096E8862F70E0B5
:102E900060E02AF09A95660F771F881FDAF7880F8F
:102EA0009695879597F9089597F99F6780E870E060
:102EB00060E008959FEF80EC089500240A941616B0
:102EC000170618060906089500240A941216130618
:102ED000140605060895092E0394000C11F48823A6
:102EE00052F0BB0F40F4BF2B11F460FF04C06F5FC2
:102EF0007F4F8F4F9F4F089557FD9058440F551F98
:102F000059F05F3F71F04795880F97FB991F61F06B
:102F10009F3F79F087950895121613061406551FE2
:102F2000F2CF4695F1DF08C0161617061806991F4E
:102F3000F1CF86957105610508940895E894BB2743
:102F400066277727CB0197F908950BD0C4CFB5DF5B
:102F500028F0BADF18F0952309F0A6CFABCF1124E3
:102F6000EECFCADFA0F3959FD1F3950F50E0551F28
:102F7000629FF001729FBB27F00DB11D639FAA27CE
:102F8000F00DB11DAA1F649F6627B00DA11D661F1D
:102F9000829F2227B00DA11D621F739FB00DA11D3E
:102FA000621F839FA00D611D221F749F3327A00DF8
:102FB000611D231F849F600D211D822F762F6A2F94
:102FC00011249F5750408AF0E1F088234AF0EE0F19
:102FD000FF1FBB1F661F771F881F91505040A9F726
:102FE0009E3F510570F060CFAACF5F3FECF3983E53
:102FF000DCF3869577956795B795F795E7959F5F8D
:10300000C1F7FE2B880F911D9695879597F9089526
:10301000629FD001739FF001829FE00DF11D649FBC
:10302000E00DF11D929FF00D839FF00D749FF00D48
:10303000659FF00D9927729FB00DE11DF91F639FE9
:10304000B00DE11DF91FBD01CF0111240895991B99
:1030500079E004C0991F961708F0961B881F7A958F
:10306000C9F780950895AA1BBB1B51E107C0AA1F91
:10307000BB1FA617B70710F0A61BB70B881F991F19
:103080005A95A9F780959095BC01CD01089597FBBD
:10309000092E07260AD077FD04D0E5DF06D00020F0
:1030A0001AF4709561957F4F0895F6F79095819584
:1030B0009F4F0895A1E21A2EAA1BBB1BFD010DC054
:1030C000AA1FBB1FEE1FFF1FA217B307E407F507D8
:1030D00020F0A21BB30BE40BF50B661F771F881FB4
:1030E000991F1A9469F760957095809590959B014A
:1030F000AC01BD01CF01089597FB092E05260ED026
:1031000057FD04D0D7DF0AD0001C38F45095409505
:10311000309521953F4F4F4F5F4F0895F6F79095AB
:103120008095709561957F4F8F4F9F4F0895EE0F5B
:10313000FF1F0590F491E02D099410E0C6ECD0E05B
:1031400004C0FE010E9499182296C83CD107C9F715
:04315000F894FFCF21
:1031540032003100486F6D6500476F74486F6D65CC
:1031640000476F2046572000476F204257200047F2
:103174006F696E67486F6D6546756E6374696F6ECF
:103184000057616974696E67466F7241637469764A
:103194006174696F6E0045786974696E6741637420
:1031A40069766174696F6E0021000A0021476F48D7
:1031B4006F6D650A00214E65774472696E6B00007D
:1031C4005374617274696E6720737465707065728C
:1031D40020646576207465737465722E00000100A6
:1031E400009C183831D44970620C7BA89344ACE03D
:1031F400C47CDD96001E005A0001AC0DD00780008F
:10320400D302000000000000D8117D126E119F113E
:043214007F11C8114D
:00000001FF
