:100000000C9464000C948C000C948C000C948C0068
:100010000C948C000C948C000C948C000C948C0030
:100020000C948C000C948C000C948C000C940209A1
:100030000C948C000C948C000C948C000C948C0010
:100040000C94040B0C948C000C94F00D0C94220E68
:100050000C948C000C948C000C948C000C948C00F0
:100060000C948C000C948C0000000008000201002D
:100070000003040700000000000000000102040863
:100080001020408001020408102001020408102002
:10009000040404040404040402020202020203032E
:1000A00003030303000000002300260029000000D2
:1000B0000000250028002B0000000000240027007D
:1000C0002A003806520E510611241FBECFEFD8E089
:1000D000DEBFCDBF11E0A0E0B1E0ECEDFCE202C07C
:1000E00005900D92A238B107D9F722E0A2E8B1E05D
:1000F00001C01D92A538B207E1F710E0C6ECD0E0D0
:1001000004C02297FE010E947113C23CD107C9F7B7
:100110000E94960E0C9461160C94000068E271E047
:1001200084EE91E00C94FE0E6AE271E084EE91E0C0
:100130000C94FE0E8095853540F4982F990F980FFA
:10014000492F60E0892F809512C08A3A40F4855586
:10015000682F660F680F462F409580E008C096E52F
:10016000980F892F880F890F682F609540E00C94B5
:10017000F508CF93DF9380918D0190918E010196C8
:100180008F3F910509F02CF490938E0180938D019F
:1001900004C010928E0110928D01C0E0D0E08FE873
:1001A00091E00E94FE08C817D90770F480918D0174
:1001B0008C0F0E949A009B01AC01BE018FE891E078
:1001C0000E94AD082196EBCF8FE891E00E94EA07EC
:1001D00064E170E080E090E00E947D0B20918A0154
:1001E00080918B0190918C012223A1F00196909334
:1001F0008C0180938B0182EA91E00E947C0790E061
:1002000020918B0130918C0128173907FCF0109256
:100210008A010BC0019790938C0180938B01181673
:100220001906A4F081E080938A0180918801909161
:10023000890101969093890180938801079734F092
:1002400081E090E09093890180938801409188013A
:1002500060918B0182EA91E00E94250782EA91E099
:10026000DF91CF910C94DC06BF92CF92DF92EF9298
:10027000FF920F931F93CF93DF93E12CF12CCC24AB
:10028000CA94D12CC0E0D0E000E010E08FE891E00B
:100290000E94FE0808171907A0F4C8018E0D9F1DC3
:1002A000B6010E940F130E949A009B01AC01B80195
:1002B0006C0F7D1F8FE891E00E94AD080D5F1F4F0E
:1002C000E5CF8FE891E00E94EA0710E082EA91E032
:1002D0000E947C07181758F544E0612F82EA91E0EC
:1002E0000E94250761E0610F46E082EA91E00E94EA
:1002F000250762E0610F42E082EA91E00E94250753
:1003000063E0610F43E082EA91E00E94250764E028
:10031000610F41E082EA91E00E94250765E0610FEC
:1003200045E082EA91E00E9425071A5FCFCF82EA7A
:1003300091E00E94DC0600E082EA91E00E947C07E6
:10034000081790F560E082EA91E00E94F906B82E65
:1003500011E082EA91E00E947C07181770F4612F87
:1003600082EA91E00E94F9066FEF610F482F82EA5E
:1003700091E00E9425071F5FECCF82EA91E00E9486
:100380007C076FEF680F4B2D82EA91E00E942507F2
:1003900082EA91E00E94DC0669E170E080E090E092
:1003A0000E947D0B0F5FC8CF00E010E08FE891E066
:1003B0000E94FE080817190768F4B8016C0F7D1F2A
:1003C00020E030E0A9018FE891E00E94AD080D5FC8
:1003D0001F4FECCF2196C330D10509F055CF82E3F2
:1003E000E80EF11C8CE2E81681E0F80609F04ACF2D
:1003F000DF91CF911F910F91FF90EF90DF90CF9001
:10040000BF900895CF92DF92EF92FF92CF93DF9348
:10041000EB019B01281B390BC9010E940F137B01C3
:1004200082EA91E00E947C07382F3E9DC0013F9DEB
:10043000900D1124BC01882777FD8095982F0E948C
:1004400000120E94BA1120E030E040E85FE30E9411
:1004500055110E94CD116B017C0116161706A4F5EB
:1004600042E082EA91E00E94250782EA91E00E9440
:10047000DC0648EC60E080E00E94F5089B01AC01DE
:10048000B6018FE891E00E94AD088FE891E00E94EC
:10049000EA0782EA91E00E947C07682F70E0CE01B3
:1004A0000E940F13882777FD8095982F0E940012D5
:1004B0000E943B120E94D211DF91CF91FF90EF90EA
:1004C000DF90CF900C947D0BDF91CF91FF90EF9058
:1004D000DF90CF9008951F93CF93DF93182FC0E044
:1004E000D0E082EA91E00E947C07282F30E0C2171A
:1004F000D30744F4412F6C2F82EA91E00E94250734
:100500002196EFCFDF91CF911F9108954F925F9287
:100510006F927F928F929F92AF92BF92CF92DF9213
:10052000EF92FF920F931F93CF93DF93EC017B0128
:100530000E944E0B2B013C0188EE93E0E89E800167
:10054000E99E100DF89E100D11244801AA2497FC75
:10055000A094BA2C86E090E00E946B0282EA91E0BF
:100560000E94DC06C12CD12C7601C814D904EA04FF
:10057000FB0400F5C130D10529F0C230D10549F4A2
:100580008BE001C08DE00E94820C892B11F481E088
:1005900015C00E944E0B6B017C01C418D508E608FB
:1005A000F70880918301882301F3B801C6010E94F6
:1005B0000202DBCF81E0CD2B09F080E0DF91CF910B
:1005C0001F910F91FF90EF90DF90CF90BF90AF9071
:1005D0009F908F907F906F905F904F900895CF93F2
:1005E000DF93C3E0D0E086E090E00E946B0282EAF5
:1005F00091E00E94DC0668EC70E080E090E00E94F0
:100600007D0B82E090E00E946B0282EA91E00E9402
:10061000DC0668EC70E080E090E00E947D0B2197A2
:1006200011F7DF91CF910895809110019091110100
:10063000909385018093840160918401709185017C
:1006400080910E0190910F018617970784F082EB3D
:1006500091E00E949F0A64E070E080E090E00E94D8
:100660007D0B80918401909185010196E1CF0895E1
:1006700080910E0190910F019093850180938401E8
:100680006091840170918501809110019091110118
:100690006817790784F082EB91E00E949F0A64E07A
:1006A00070E080E090E00E947D0B80918401909149
:1006B00085010197E1CF08956091100170911101BA
:1006C00082EB91E00C949F0AEF92FF920F931F939D
:1006D000CF93DF938C01C0E0D0E07C0181E0E81A89
:1006E000F108C017D107ECF40E94140360910C01CB
:1006F00070910D01882777FD8095982F0E947D0BC2
:100700000E943803CE15DF0551F060910A01709107
:100710000B01882777FD8095982F0E947D0B2196ED
:10072000E0CFDF91CF911F910F91FF90EF9008954F
:10073000CF93C82F811102C060E001C061E08AE060
:100740000E944C0CC093820185E090E0CF910C9404
:10075000A50B81E00C94980380E00C949803892BFE
:1007600011F060E001C061E084E00E944C0C82E086
:1007700090E00C94A50B61E084E00E94130C61E012
:1007800087E00E94130C61E08AE00E94130C61E094
:100790008FEF0E94130C61E08FEF0E94130C60E05A
:1007A0008DE00E94130C61E08DE00E944C0C60E033
:1007B0008BE00E94130C61E08BE00E944C0C60E027
:1007C00081E10E94130C61E081E10E944C0C61E028
:1007D0008FEF0E94130C61E08FEF0E94130C61E019
:1007E0008FEF0E94130C61E08FEF0E944C0C61E0D0
:1007F0008FEF0E944C0C80E090E00E94AF0380E0FD
:100800000E94980363E170E082EB91E00E94580A35
:100810008FE891E00E94DD078FE891E00E94EA07EF
:1008200026E040E855E260E070E084EE91E00E944E
:100830008E0D6CE271E084EE91E00E94FE0E81E08C
:1008400090E00E94AF0381E00E9498030E945C0345
:1008500064EF71E080E090E00E947D0B82EB91E01C
:100860000C945E0A81E10E94820C019781F469E494
:1008700071E084EE91E00E94FE0E80E090E00E9424
:10088000AF03109287011092860181E0089580E005
:10089000089560E087E00E944C0C82E090E00E94A6
:1008A000A50B61E087E00E944C0C82E090E00E9482
:1008B000A50B60E087E00C944C0CAF92BF92CF92F6
:1008C000DF92EF92FF920F931F93CF93DF93C0912C
:1008D0008601D09187018C01000F111FF801EC5E99
:1008E000FE4F808191818C179D0709F490C0C81735
:1008F000D90760F40E94A9036EE471E084EE91E0F0
:100900000E94FE0ECC24C394D12C0BC00E94AC03D9
:1009100065E571E084EE91E00E94FE0ECC24CA945D
:10092000DC2C81E090E00E94AF0362E370E080E0A5
:1009300090E00E947D0BC8018C5E9E4F7C019CED77
:10094000A92E95E0B92E2091860130918701F701FB
:100950008081918128173907D1F10E945A0B20918B
:100960008601309187012C173D0721F0C9018C1BAE
:100970009D0B02C080E090E0F70140815181241777
:10098000350719F0241B350B02C020E030E08C3D08
:10099000F5E09F0724F48501081B190B0AC02C3DC4
:1009A00045E0340724F48501021B130B02C000E06C
:1009B00010E00E9449048091120190911301800F70
:1009C000911F0E94A50B0E943204882339F0809168
:1009D0008301882371F00E94EF020BC08091860191
:1009E000909187018C0D9D1D9093870180938601C6
:1009F000AACF80E090E0DF91CF911F910F91FF90FF
:100A0000EF90DF90CF90BF90AF900C94AF03DF9149
:100A1000CF911F910F91FF90EF90DF90CF90BF90FB
:100A2000AF9008950E94AC030E943204882349F0DD
:100A30000E94490480911201909113010E94A50B1C
:100A4000F3CF08954F925F926F927F92AF92BF92D1
:100A5000CF92DF92EF92FF920F931F93CF93DF938A
:100A6000CDB7DEB72C970FB6F894DEBF0FBECDBF63
:100A70005C016CE571E0CE0107960E94C50FBE01D6
:100A8000695F7F4FC5010E94B4108823A9F065E615
:100A900071E0CE0101960E94C50FBE016F5F7F4FCE
:100AA000C5010E94C31011E0811101C010E0CE0108
:100AB00001960E94570F01C010E0CE0107960E94D8
:100AC000570F112309F4BFC06EE571E0C5010E9404
:100AD0007110882319F00E94120570C067E671E05A
:100AE000CE0101960E94C50FBE016F5F7F4FC50109
:100AF0000E94B410182FCE0101960E94570F6CE788
:100B0000C501112309F460C00E94001101967C0107
:100B1000AC016CE7C5010E94E4106C013C018FEF51
:100B2000681A780AA3016CE7C5010E94E4108C01E1
:100B30009601A701B501CE0101960E940411CE01D4
:100B400001960E9449116B017C01CE0101960E9421
:100B5000570F9801A301B501CE0101960E9404111F
:100B6000CE0101960E9449112B013C01CE01019654
:100B70000E94570FF50124813581A8014F5F5F4F17
:100B8000B501CE0101960E940411CE0101960E948A
:100B9000491121E0613071058105910509F020E0DE
:100BA00020938301CE0101960E94570F0E941205E7
:100BB000B201C6010E948602882319F00E948E00AD
:100BC00042C00E9494003FC00E9400113C019C0161
:100BD00041E050E0B501CE0101960E940411CE0122
:100BE00001960E9449116B017C01CE0101960E9481
:100BF000570FF50124813581A3014F5F5F4FB50188
:100C0000CE0101960E940411CE0101960E94491165
:100C10002B013C01CE0101960E94570FC6010E9494
:100C20005D04C2010E946403C114D10439F6411469
:100C3000510421F680918301882309F4BFCF8EE10E
:100C40000E943401BBCF2C960FB6F894DEBF0FBEC6
:100C5000CDBFDF91CF911F910F91FF90EF90DF906B
:100C6000CF90BF90AF907F906F905F904F9008951E
:100C70000F9382EB91E00E94BE0902E226E030E091
:100C800045E050E069E070E082EA91E00E943C07B4
:100C900023E042E160E170E08FE891E00F910C9475
:100CA0007F078FE891E00C94CE07CF93DF93CDB709
:100CB000DEB72C970FB6F894DEBF0FBECDBF84EE23
:100CC00091E00E94AB0C181619064CF566E671E02F
:100CD000CE0107960E94C50F84EE91E00E94AB0CF6
:100CE000892B51F084EE91E00E94C40CBC01CE012E
:100CF00007960E943F10F0CFBE01695F7F4FCE0183
:100D000001960E94F20FCE0101960E942205CE01AB
:100D100001960E94570FCE0107960E94570F8091AF
:100D2000830181110E94B9002C960FB6F894DEBFA2
:100D30000FBECDBFDF91CF910895EF92FF920F9339
:100D40001F93CF93DF938C01C7E0D0E0E62EF12C08
:100D5000C7010C2E02C0959587950A94E2F780FF93
:100D600002C061E001C060E0F80180810E944C0C8B
:100D700061E0F80183810E944C0C60E0F8018381FE
:100D80000E944C0C219720F7DF91CF911F910F917A
:100D9000FF90EF900895CF93DF93EC0161E08A819B
:100DA0000E944C0C81E090E00E94A50B60E08A81DB
:100DB000DF91CF910C944C0C1F93CF93DF93EC01F8
:100DC00010E02F85121778F430E021503109211BF3
:100DD0003109ED85FE85E20FF31F6081CE010E948F
:100DE0009D061F5FEECFCE01DF91CF911F910C9436
:100DF000CB06DC011F962C911F97261720F11D961C
:100E0000ED91FC911E97E60FF11D6081862F807396
:100E100021E030E011F420E030E0A901440F551F3B
:100E200021E030E0862F8C7011F420E030E0C90121
:100E3000880F991F880F991F842B637091E009F424
:100E400090E0892B089580E00895DC011F962C9195
:100E5000261788F040FD02C020E801C021E842FDCD
:100E6000246041FD2061DC011D96ED91FC911E97EF
:100E7000E60FF11D208308950F931F93CF93DF9307
:100E8000EC0168838FEF89834A832B831C820F8751
:100E9000802F90E00E9484139E878D8710E01017AA
:100EA00039F040E0612FCE010E9425071F5FF7CF88
:100EB00060E088810E944C0C61E088810E94130CE4
:100EC00060E089810E944C0C61E089810E94130CD2
:100ED00060E08A810E944C0C61E08A810E94130CC0
:100EE00060E08B810E944C0C61E08B81DF91CF919F
:100EF0001F910F910C94130CFC0187850895FF92AC
:100F00000F931F93CF93DF93EC01F22E79836883C5
:100F10008B01000F111F060F171F1B830A834C83C1
:100F20001D822B871C861D861E861F8650E0FA01B7
:100F3000E057FF4FE491F0E0EE0FFF1FE255FF4F47
:100F400085919491998B888BFA01E458FF4F4491D5
:100F50004A8BC8010E9484139F838E83009729F0D7
:100F6000A80160E070E00E94A515F0FE04C081E0D9
:100F7000888719860BC0F2FE06C081E0888782E070
:100F800089871A8605C0188681E0898782E08A876A
:100F9000DF91CF911F910F91FF900895CF93DF9331
:100FA000EC018E819F81009711F00E941C1460E07B
:100FB0008C81DF91CF910C94130CCF93DF93EC01D4
:100FC00061E08C810E94130C60E08C81DF91CF91F5
:100FD0000C944C0CCF92DF92EF92FF920F931F93E1
:100FE000CF93DF93CDB7DEB729970FB6F894DEBF66
:100FF0000FBECDBF8C01DC0116968D919C91179789
:10100000892B09F49BC00E945A0BF801C484D58433
:10101000E684F7846C197D098E099F096233710596
:101020008105910580F3F894828193819A83898365
:10103000A681B7817D01EFEFEE1AFE0A8C918987B8
:10104000D8011B969C911B9750960D90BC91A02D9A
:10105000F801828991FF2EC09C91982B98879C91D2
:10106000809589238F838F818E8388E08D83588537
:101070006F8149853D812E8189819A81F7015C9339
:1010800047FD252F3A952C93262F39F0441F00C099
:1010900000006C93000000C0F2CF38E041916C93E7
:1010A0000000019761F7F801B18BA08B49873D8360
:1010B0002E8338C09C91982B98879C91809589238A
:1010C0008F838F818C8388E08B8358856F814985DE
:1010D0003B812C8189819A81F7015C9347FD252F03
:1010E00000C000C02C9300C000C000C000C000C001
:1010F0006C930000262F3A9541F0441F000000C079
:1011000000C000C000C000C0E8CF38E0419100C07E
:101110006C9300C0019709F7F801B18BA08B498748
:101120003B832C839A83898378940E945A0BD8013D
:101130001C966D937D938D939C931F9729960FB664
:10114000F894DEBF0FBECDBFDF91CF911F910F91FD
:10115000FF90EF90DF90CF900895CF92DF92EF92C3
:10116000FF920F931F93CF93DF93FC0180819181B6
:101170006817790788F5CA01AA27BB27082FC32E4D
:10118000D42EE52EFF241C2DD22FC581CC2361F057
:101190008C9FC0011124092FCC9E600111241D2DAC
:1011A0002C9F90011124D32F9B01220F331F260F58
:1011B000371F86819781820F931F2085DC01A20F44
:1011C000B11D0C932185DC01A20FB11D1C9322855A
:1011D000FC01E20FF11DD083DF91CF911F910F91A0
:1011E000FF90EF90DF90CF900895962F50E060E051
:1011F00070E0592B682BCB01BA010895FC01808166
:10120000918108951F920F920FB60F9211242F9380
:101210003F934F935F936F937F938F939F93AF937E
:10122000BF93EF93FF938091B60187FF05C01092A3
:101230008500109284001AC02091B601332727FD43
:1012400030958091B50190E0281739077CF48091A2
:10125000B601992787FD9095FC01EE0FFF1FE80F5F
:10126000F91FE954FE4F808186FD15C08091B601BB
:101270008F5F8093B6012091B601332727FD30950B
:101280008091B50190E028173907BCF48091B60130
:101290008C305CF112C08091B601992787FD909542
:1012A000FC01EE0FFF1FE80FF91FE954FE4F80818C
:1012B00060E08F730E944C0CD9CF80918400909194
:1012C0008500049680349C4918F480E49CE905C0AC
:1012D000809184009091850004969093890080937A
:1012E00088008FEF8093B60138C020918400309140
:1012F00085008091B601992787FD9095FC01EE0F3E
:10130000FF1FE80FF91FE954FE4F81819281820F80
:10131000931F90938900809388008091B60199274C
:1013200087FD9095FC01EE0FFF1FE80FF91FE954B0
:10133000FE4F808186FF11C08091B601992787FDFD
:101340009095FC01EE0FFF1FE80FF91FE954FE4FC7
:10135000808161E08F730E944C0CFF91EF91BF91EF
:10136000AF919F918F917F916F915F914F913F913D
:101370002F910F900FBE0F901F9018952091B501DF
:101380002C30A0F431E0320F3093B501FC01208302
:10139000822F90E0FC01EE0FFF1FE80FF91FE954C8
:1013A000FE4F88EB9BE09283818308952FEFFC0131
:1013B00020830895DF92EF92FF920F931F93CF93B4
:1013C000DF93EC01D62E7A01890188818C3008F0F8
:1013D00066C061E08D2D0E94130C8881A82FB0E0BB
:1013E000FD01EE0FFF1FEA0FFB1FE954FE4F2D2DED
:1013F0002F739081907C922B908360E272E06E1943
:101400007F0977FF02C06D5F7F4F75956795759572
:101410006795698340E659E0401B510B57FF02C0B6
:101420004D5F5F4F55954795559547954A836CE0BD
:101430000E94EF129CE0899FB001112420E030E06F
:10144000A901460F571FFA01EE0FFF1FE40FF51F0A
:10145000E954FE4F908196FD16C02F5F3F4F2C3010
:10146000310571F781110FC01092800082E08093E6
:1014700081001092850010928400B19A80916F00D3
:10148000826080936F00888190E0FC01EE0FFF1F67
:10149000E80FF91FE954FE4F8081806480838881C2
:1014A000DF91CF911F910F91FF90EF90DF90089502
:1014B00020E639E040E252E00C94DA09FC01808138
:1014C00090E0FC01EE0FFF1FE80FF91FE954FE4FFB
:1014D00080818F7B80830895FC0180818C3070F542
:1014E000918128E830E0291B310997FD3395220FBF
:1014F000331F220F331F621773077CF0928128E598
:1015000032E0291B310997FD3395220F331F220F3B
:10151000331F621773070CF49B0122503109220F0D
:10152000331F4FB7F89490E0FC01EE0FFF1FE80F58
:10153000F91FE954FE4F328321834FBF08954F9224
:101540005F926F927F92AF92BF92CF92DF92EF92B3
:10155000FF920F931F93CF93DF93EC01603282E0F1
:1015600078070CF040C077FD06C0653B71052CF094
:1015700064EB70E002C060E070E0898128E830E050
:10158000281B310987FD3395220F331F220F331F8C
:101590005901CC24B7FCC094DC2C882777FD8095BA
:1015A000982F2A8148E552E0421B510927FD5395A7
:1015B000440F551F440F551F2A01662457FC6094A1
:1015C000762C7F926F925F924F9214EBE12EF12C6A
:1015D00000E010E020E030E0A9010E94100F0F9021
:1015E0000F900F900F90CE01DF91CF911F910F912F
:1015F000FF90EF90DF90CF90BF90AF907F906F9073
:101600005F904F900C946C0A1F920F920FB60F923E
:1016100011242F933F938F939F93AF93BF93809108
:10162000DC019091DD01A091DE01B091DF013091EC
:10163000DB0123E0230F2D3720F40196A11DB11DFE
:1016400005C026E8230F0296A11DB11D2093DB01E2
:101650008093DC019093DD01A093DE01B093DF0164
:101660008091E0019091E101A091E201B091E3014C
:101670000196A11DB11D8093E0019093E101A0931B
:10168000E201B093E301BF91AF919F918F913F91A0
:101690002F910F900FBE0F901F9018952FB7F894B1
:1016A0006091DC017091DD018091DE019091DF019C
:1016B0002FBF08953FB7F8948091E0019091E10128
:1016C000A091E201B091E30126B5A89B05C02F3F90
:1016D00019F00196A11DB11D3FBF6627782F892FF4
:1016E0009A2F620F711D811D911D42E0660F771FB9
:1016F000881F991F4A95D1F70895CF92DF92EF92F4
:10170000FF92CF93DF936B017C010E945A0BEB0198
:10171000C114D104E104F10489F00E9454110E9423
:101720005A0B6C1B7D0B683E734090F381E0C81A26
:10173000D108E108F108C851DC4FEACFDF91CF9121
:10174000FF90EF90DF90CF900895019739F0880FC8
:10175000991F880F991F02970197F1F708957894C0
:1017600084B5826084BD84B5816084BD85B58260A6
:1017700085BD85B5816085BDEEE6F0E08081816044
:101780008083E1E8F0E01082808182608083808144
:1017900081608083E0E8F0E0808181608083E1EB1C
:1017A000F0E0808184608083E0EBF0E08081816004
:1017B0008083EAE7F0E080818460808380818260BA
:1017C00080838081816080838081806880831092A3
:1017D000C1000895833081F028F4813099F082307F
:1017E000A1F008958730A9F08830B9F08430D1F4A1
:1017F000809180008F7D03C0809180008F778093DF
:101800008000089584B58F7702C084B58F7D84BD34
:1018100008958091B0008F7703C08091B0008F7DD4
:101820008093B0000895CF93DF9390E0FC01E458DB
:10183000FF4F2491FC01E057FF4F8491882349F129
:1018400090E0880F991FFC01E854FF4FA591B491D7
:1018500082559F4FFC01C591D4919FB7611108C07B
:10186000F8948C91209582238C93888182230AC0DE
:10187000623051F4F8948C91322F309583238C93FD
:101880008881822B888304C0F8948C91822B8C935E
:101890009FBFDF91CF9108950F931F93CF93DF9355
:1018A0001F92CDB7DEB7282F30E0F901E859FF4F7E
:1018B0008491F901E458FF4F1491F901E057FF4F6B
:1018C00004910023C9F0882321F069830E94EA0B68
:1018D0006981E02FF0E0EE0FFF1FE255FF4FA59169
:1018E000B4919FB7F8948C91611103C01095812336
:1018F00001C0812B8C939FBF0F90DF91CF911F91DF
:101900000F910895CF93DF93282F30E0F901E85924
:10191000FF4F8491F901E458FF4FD491F901E0574A
:10192000FF4FC491CC2391F081110E94EA0BEC2F60
:10193000F0E0EE0FFF1FEC55FF4FA591B4912C91F5
:101940002D2381E090E021F480E002C080E090E06F
:10195000DF91CF910895FC01818D228D90E0805C14
:101960009F4F821B91098F7399270895FC01918DD8
:10197000828D981731F0828DE80FF11D858D90E0F2
:1019800008958FEF9FEF0895FC01918D828D981738
:1019900061F0828DDF01A80FB11D5D968C91928D53
:1019A0009F5F9F73928F90E008958FEF9FEF089550
:1019B00088E49EE0892B49F080E090E0892B29F0B3
:1019C0000E94480E81110C9400000895FC01848D42
:1019D000DF01A80FB11DA35ABF4F2C91848D90E059
:1019E00001968F739927848FA689B7892C93A08934
:1019F000B1898C9180648C93938D848D981306C0EB
:101A00000288F389E02D80818F7D80830895CF93B4
:101A1000DF93EC01888D8823C9F0EA89FB898081F6
:101A200085FD05C0A889B9898C9186FD0FC00FB6C8
:101A300007FCF5CF808185FFF2CFA889B9898C9109
:101A400085FFEDCFCE010E94E60CE7CFDF91CF916D
:101A50000895CF92DF92FF920F931F93CF93DF935E
:101A60001F92CDB7DEB76C01DC015B969C915B9752
:101A70005C968C915C97981307C05096ED91FC9101
:101A80005197808185FD32C0F601038D10E00F5F14
:101A90001F4F0F731127F02EF601848DF81211C01D
:101AA0000FB607FCF9CFD6015096ED91FC915197F6
:101AB000808185FFF1CFC60169830E94E60C6981B0
:101AC000EBCF838DE80FF11DE35AFF4F6083D60102
:101AD0005B960C935B975296ED91FC9153978081A6
:101AE0008062808381E058968C930DC0D601569613
:101AF000ED91FC91579760835096ED91FC91519731
:101B000080818064808381E090E00F90DF91CF91AD
:101B10001F910F91FF90DF90CF900895BF92CF92C9
:101B2000DF92EF92FF92CF93DF93EC016A017B018A
:101B3000B22EE889F98982E08083411581EE580749
:101B400061057105A1F060E079E08DE390E0A70107
:101B500096010E94231321503109410951095695DC
:101B6000479537952795211580E1380798F0E88942
:101B7000F989108260E874E88EE190E0A70196018F
:101B80000E94231321503109410951095695479567
:101B900037952795EC85FD853083EE85FF8520837D
:101BA000188EEC89FD89B082EA89FB898081806189
:101BB0008083EA89FB89808188608083EA89FB8948
:101BC000808180688083EA89FB8980818F7D808322
:101BD000DF91CF91FF90EF90DF90CF90BF9008956D
:101BE0001F920F920FB60F9211242F938F939F93F2
:101BF000EF93FF93E091F401F091F5018081E09182
:101C0000FA01F091FB0182FD12C090818091FD01EB
:101C10008F5F8F732091FE01821751F0E091FD01DB
:101C2000F0E0EC51FE4F958F8093FD0101C0808163
:101C3000FF91EF919F918F912F910F900FBE0F9079
:101C40001F9018951F920F920FB60F9211242F9389
:101C50003F934F935F936F937F938F939F93AF9334
:101C6000BF93EF93FF9384EE91E00E94E60CFF9107
:101C7000EF91BF91AF919F918F917F916F915F9104
:101C80004F913F912F910F900FBE0F901F9018957D
:101C900084EE91E00E94AB0C21E0892B09F420E056
:101CA000822F08951092E7011092E60188EE93E0EA
:101CB000A0E0B0E08093E8019093E901A093EA01ED
:101CC000B093EB0185E791E09093E5018093E40107
:101CD00085EC90E09093F1018093F00184EC90E02A
:101CE0009093F3018093F20180EC90E09093F501E2
:101CF0008093F40181EC90E09093F7018093F601DA
:101D000082EC90E09093F9018093F80186EC90E0EA
:101D10009093FB018093FA011092FD011092FE0155
:101D20001092FF0110920002089508950E94AF0BD7
:101D30000E94950E0E94BB03C8EDDCE00E94550690
:101D40002097E1F30E94D80CF9CFCF92DF92EF9267
:101D5000FF920F931F93CF93DF936C017A01EB01F6
:101D6000E60EF71E00E010E0CE15DF0561F0699188
:101D7000D601ED91FC910190F081E02DC60109950D
:101D8000080F191FF1CFC801DF91CF911F910F915B
:101D9000FF90EF90DF90CF9008956115710581F06D
:101DA000DB010D900020E9F7AD0141505109461BC0
:101DB000570BDC01ED91FC910280F381E02D099439
:101DC00080E090E00895DC01ED91FC910190F081BC
:101DD000E02D09940F931F93CF93DF93EC016DE0F7
:101DE0000E94E30E8C016AE0CE010E94E30E800F98
:101DF000911FDF91CF911F910F9108950F931F9322
:101E0000CF93DF93EC010E94CD0E8C01CE010E9496
:101E1000EA0E800F911FDF91CF911F910F910895CE
:101E20004F925F926F927F92AF92BF92CF92DF926A
:101E3000EF92FF920F931F93CF93DF93CDB7DEB74F
:101E400029013A01621B730B840B950B29893A898E
:101E50004B895C892A193B094C095D09298B3A8B0E
:101E60004B8B5C8B9B01AC0169897A898B899C893E
:101E70000E94DF12E418F50806091709A801970166
:101E80000E9445132A0D3B1D4C1D5D1DCA01B90161
:101E9000DF91CF911F910F91FF90EF90DF90CF9046
:101EA000BF90AF907F906F905F904F900895FC012E
:101EB000808191810C941C14CF93DF93EC01888175
:101EC0009981009711F00E941C14198218821D82BA
:101ED0001C821B821A82DF91CF9108950F931F936A
:101EE000CF93DF93EC018B016F5F7F4F88819981E6
:101EF0000E94AB14009731F0998388831B830A8377
:101F000081E001C080E0DF91CF911F910F91089592
:101F1000CF93DF93EC0188819981892B29F08A8105
:101F20009B818617970760F4CE010E946E0F88236D
:101F300041F08C819D81892B19F4E881F98110820F
:101F400081E0DF91CF910895EF92FF920F931F935D
:101F5000CF93DF93EC017B018A01BA010E94880FC5
:101F6000811104C0CE010E945C0F07C01D830C8349
:101F7000B701888199810E94C015CE01DF91CF9170
:101F80001F910F91FF90EF900895FC011182108234
:101F900013821282158214826115710559F0FB01BA
:101FA00001900020E9F7AF0141505109461B570B42
:101FB0000C94A40F0895CF93DF93EC01FB018617D7
:101FC000970761F0608171816115710529F0448185
:101FD00055810E94A40F02C00E945C0FCE01DF91C8
:101FE000CF910895FC011182108213821282158212
:101FF00014820C94DB0FCF93DF93EC016115710514
:1020000061F0FB0101900020E9F7AF014150510957
:10201000461B570B0E94A40F02C00E945C0FCE010A
:10202000DF91CF910895EF92FF920F931F93CF937B
:10203000DF93EC017B010C811D816115710511F4A9
:1020400080E016C04115510591F0040F151FB8012D
:102050000E94880F8823A1F3288139818C819D817A
:10206000B701820F931F0E94C0151D830C8381E06E
:10207000DF91CF911F910F91FF90EF900895EF9214
:10208000FF920F931F93CF93DF93CDB7DEB72897BF
:102090000FB6F894DEBF0FBECDBF7C01CB014AE086
:1020A00050E08E010F5F1F4FB8010E94D515F80157
:1020B00001900020E9F7AF0141505109401B510B3D
:1020C000B801C7010E94131028960FB6F894DEBF1E
:1020D0000FBECDBFDF91CF911F910F91FF90EF9079
:1020E0000895FC0124813581232B31F421E0611511
:1020F0007105A1F0FB0108C0FC018081918161158F
:10210000710531F421E0FC018081882339F005C09C
:102110000E94B71521E0892B09F020E0822F089555
:10212000FA01DB0114964D915C911597DC01149630
:102130002D913C911597241B350B2E173F0788F0E6
:102140008D919C91009769F0DB016D917C916115F7
:10215000710539F08E0F9F1F0E94C71521E0892B52
:1021600009F020E0822F0895FC0144815581FB0194
:10217000248135814217530720F040E050E00C9451
:10218000901080E00895FC0184819581DB01149614
:102190004D915C9115978417950798F020813181B6
:1021A0002115310571F06D917C916115710549F032
:1021B000841B950B820F931F0E94B71521E0892B7A
:1021C00009F020E0822F0895CF93DF93FC018481F2
:1021D00095814817590778F4C081D181772767FD29
:1021E0007095CE01840F951F0E94AC15009719F0D1
:1021F0008C1B9D0B02C08FEF9FEFDF91CF91089555
:1022000040E050E00C94E410BF92CF92DF92EF9246
:10221000FF920F931F93CF93DF936C017B01EA0131
:1022200089012417350720F48D2FE901042F182F79
:1022300066E671E0C6010E94C50FD70114968D9124
:102240009C911597C817D907C8F48017910708F40F
:102250008C01D701ED91FC911197E00FF11FB08037
:1022600010826D917C916C0F7D1FC6010E94FB0F47
:10227000D701ED91FC91E00FF11FB082C601DF9113
:10228000CF911F910F91FF90EF90DF90CF90BF9073
:102290000895FC0180819181009711F00C947515CF
:1022A00060E070E0CB01089508955058BB27AA273D
:1022B0000ED034C125D130F02AD120F031F49F3F27
:1022C00011F41EF41AC10EF4E095E7FBE7C0E92F04
:1022D00036D180F3BA17620773078407950718F0A1
:1022E00071F49EF565C10EF4E0950B2EBA2FA02D6A
:1022F0000B01B90190010C01CA01A0011124FF27B3
:10230000591B99F0593F50F4503E68F11A16F040AD
:10231000A22F232F342F4427585FF3CF46953795AC
:102320002795A795F0405395C9F77EF41F16BA0B71
:10233000620B730B840BBAF09150A1F0FF0FBB1F1F
:10234000661F771F881FC2F70EC0BA0F621F731F68
:10235000841F48F4879577956795B795F7959E3FC5
:1023600008F0B3CF9395880F08F09927EE0F979553
:102370008795089506D180F09F3740F491110EF4AF
:1023800018C160E070E080E89FE3089526F01B1616
:10239000611D711D811D88C0A2C004D06894B11157
:1023A00008C10895D4D088F09F5790F0B92F99278D
:1023B000B751A0F0D1F0660F771F881F991F1AF050
:1023C000BA95C9F712C0B13081F0F2D0B1E00895EA
:1023D000EFC0672F782F8827B85F39F0B93FCCF36B
:1023E000869577956795B395D9F73EF49095809546
:1023F000709561957F4F8F4F9F4F0895E89409C066
:1024000097FB3EF490958095709561957F4F8F4F27
:102410009F4F9923A9F0F92F96E9BB279395F6953D
:10242000879577956795B795F111F8CFFAF4BB0FBB
:1024300011F460FF1BC06F5F7F4F8F4F9F4F16C01F
:10244000882311F096E911C0772321F09EE8872FA9
:10245000762F05C0662371F096E8862F70E060E065
:102460002AF09A95660F771F881FDAF7880F9695DE
:10247000879597F9089585D080F09F3740F49111A2
:102480000EF097C060E070E080E89FEB089526F4BE
:102490001B16611D711D811D07C021C097F99F6723
:1024A00080E870E060E00895882371F4772321F0DC
:1024B0009850872B762F07C0662311F499270DC0FB
:1024C0009051862B70E060E02AF09A95660F771F96
:1024D000881FDAF7880F9695879597F908959F3F9B
:1024E00031F0915020F4879577956795B795880FCF
:1024F000911D9695879597F908959FEF80EC089523
:1025000000240A94161617061806090608950024D2
:102510000A9412161306140605060895092E03944C
:10252000000C11F4882352F0BB0F40F4BF2B11F4C0
:1025300060FF04C06F5F7F4F8F4F9F4F089557FD1F
:102540009058440F551F59F05F3F71F04795880F21
:1025500097FB991F61F09F3F79F0879508951216B8
:1025600013061406551FF2CF4695F1DF08C0161664
:1025700017061806991FF1CF869571056105089415
:102580000895E5DFA0F0BEE7B91788F4BB279F38B0
:1025900060F41616B11D672F782F8827985FF7CF44
:1025A000869577956795B11D93959639C8F30895EB
:1025B000E894BB2766277727CB0197F90895DB01BD
:1025C0008F939F930E946413BF91AF91A29F800D40
:1025D000911DA39F900DB29F900D11240895991BFA
:1025E00079E004C0991F961708F0961B881F7A950A
:1025F000C9F780950895AA1BBB1B51E107C0AA1F0C
:10260000BB1FA617B70710F0A61BB70B881F991F93
:102610005A95A9F780959095BC01CD01089597FB37
:10262000072E16F4009407D077FD09D00E94FB1204
:1026300007FC05D03EF4909581959F4F08957095C5
:1026400061957F4F0895A1E21A2EAA1BBB1BFD01C5
:102650000DC0AA1FBB1FEE1FFF1FA217B307E40781
:10266000F50720F0A21BB30BE40BF50B661F771FD9
:10267000881F991F1A9469F76095709580959095B9
:102680009B01AC01BD01CF010895052E97FB1EF4FF
:1026900000940E945C1357FD07D00E94231307FC8F
:1026A00003D04EF40C945C135095409530952195D1
:1026B0003F4F4F4F5F4F089590958095709561956E
:1026C0007F4F8F4F9F4F08950E947513A59F900DC8
:1026D000B49F900DA49F800D911D11240895EE0FBD
:1026E000FF1F0590F491E02D0994A29FB001B39FC4
:1026F000C001A39F700D811D1124911DB29F700D0B
:10270000811D1124911D0895CF93DF93823091058F
:1027100010F482E090E0E0918302F091840220E0E6
:1027200030E0A0E0B0E0309739F1408151814817A6
:102730005907B8F04817590771F4828193811097AF
:1027400029F013969C938E9312972CC09093840239
:102750008093830227C02115310531F042175307BA
:1027600018F0A901DB0101C0EF019A01BD01DF01F1
:102770000280F381E02DD7CF21153105F9F0281B18
:10278000390B2430310580F48A819B8161157105F4
:1027900021F0FB019383828304C090938402809391
:1027A0008302FE01329644C0FE01E20FF31F8193C3
:1027B000919322503109398328833AC020918102B4
:1027C00030918202232B41F42091020130910301C8
:1027D0003093820220938102209100013091010107
:1027E0002115310541F42DB73EB7409104015091B8
:1027F0000501241B350BE0918102F0918202E21762
:10280000F307A0F42E1B3F0B2817390778F0AC0113
:102810004E5F5F4F2417350748F04E0F5F1F5093F0
:102820008202409381028193919302C0E0E0F0E044
:10283000CF01DF91CF910895CF93DF93009709F4F3
:1028400087C0FC01329713821282C0918302D0911B
:102850008402209781F420813181280F391F8091D3
:102860008102909182028217930779F5F093820298
:10287000E09381026DC0DE0120E030E0AE17BF07BB
:1028800050F412964D915C9113979D01411551059D
:1028900009F1DA01F3CFB383A28340815181840F20
:1028A000951F8A179B0771F48D919C911197840F46
:1028B000951F02969183808312968D919C91139718
:1028C000938382832115310529F4F0938402E093E8
:1028D00083023EC0D9011396FC93EE9312974D915B
:1028E0005D91A40FB51FEA17FB0779F480819181F0
:1028F000840F951F0296D90111969C938E93828125
:10290000938113969C938E931297E0E0F0E08A8176
:102910009B81009719F0FE01EC01F9CFCE010296E0
:1029200028813981820F931F209181023091820288
:102930002817390769F4309729F41092840210920D
:10294000830202C013821282D0938202C09381025A
:10295000DF91CF910895A0E0B0E0E1EBF4E10C94B9
:102960002E16EC01CB01209719F40E948413B8C0F5
:10297000FE01E60FF71F9E0122503109E217F3070F
:1029800008F4ACC0D9010D911C91119706171707D7
:10299000B8F00530110508F49FC0A8014450510952
:1029A0004617570708F498C002501109061B170B69
:1029B000019311936D937C93CF010E941C148CC0E2
:1029C0005B01A01AB10A4E01800E911EA0918302F4
:1029D000B0918402612C712C60E070E0109709F4D2
:1029E00049C0A815B905C9F5ED90FC90119767018C
:1029F00042E0C40ED11CCA14DB0478F147018A18E6
:102A00009B08640142E0C40ED11C1296BC90129740
:102A10001396AC91B5E0CB16D10440F0B282A383FB
:102A200091828082D9018D939C9309C00E5F1F4FC4
:102A30000E0D1F1DF90111830083EB2DFA2F611577
:102A4000710531F0DB011396FC93EE93129744C0AD
:102A5000F0938402E09383023FC06D917C911197C3
:102A60006616770608F43B01BD0112960D90BC91E5
:102A7000A02DB4CF60918102709182026815790512
:102A8000E9F468167906D0F44091000150910101F3
:102A90004115510541F44DB75EB760910401709145
:102AA0000501461B570BE417F507C0F4F0938202AB
:102AB000E0938102F901918380830EC00E94841308
:102AC0007C01009759F0A801BE010E949C15CE011F
:102AD0000E941C14C70104C0CE0102C080E090E037
:102AE000CDB7DEB7EEE00C944A161F93FC01992790
:102AF0008827BC01E89411911032E9F3193010F0E5
:102B00001E30C8F31B3251F01D3249F4689406C0E0
:102B10000E94EB15610F711D811D911D11911053C4
:102B20001A30B0F33EF490958095709561957F4F83
:102B30008F4F9F4F1F910895FB01DC0102C0019050
:102B40000D9241505040D8F70895DC0101C06D93BB
:102B500041505040E0F70895FC018191861721F023
:102B60008823D9F7992708953197CF010895FB015C
:102B7000DC018D91019080190110D9F3990B089512
:102B8000FB01DC0101900D920020E1F70895FB01AB
:102B9000DC014150504030F08D910190801919F4C2
:102BA0000020B9F7881B990B08954532510520F490
:102BB000423010F00C94E015FB011082CB01089517
:102BC000BB274A3031F4992322F4BDE290958195D8
:102BD0009F4F0C940116592F482F372F262F660F21
:102BE000771F881F991F660F771F881F991F620F15
:102BF000731F841F951F660F771F881F991F0895E5
:102C0000BB27FB015527AA27880F991FAA1FA417C6
:102C100010F0A41B83955051B9F7A05DAA3308F0BA
:102C2000A95DA193009779F7B111B1931192CB01EE
:102C30000C941A16DC01FC01672F71917723E1F7E0
:102C4000329704C07C916D9370836291AE17BF0779
:102C5000C8F308952F923F924F925F926F927F92A6
:102C60008F929F92AF92BF92CF92DF92EF92FF929C
:102C70000F931F93CF93DF93CDB7DEB7CA1BDB0B48
:102C80000FB6F894DEBF0FBECDBF09942A883988ED
:102C900048885F846E847D848C849B84AA84B984F4
:102CA000C884DF80EE80FD800C811B81AA81B98100
:102CB000CE0FD11D0FB6F894DEBF0FBECDBFED0114
:102CC000089510E0C6ECD0E004C0FE010E9471132C
:0C2CD0002296C83CD107C9F7F894FFCF4A
:102CDC0000008502800001000000D007AC0D5A00F6
:102CEC001E00960000009C183831D44970620C7B91
:102CFC00A89344ACE0C47CDD3100320053746172A3
:102D0C0074696E6720737465707065722064657683
:102D1C00207465737465722E00486F6D6500476F83
:102D2C002046572000476F204257200021002147A2
:102D3C006F486F6D650A00214E65774472696E6B42
:102D4C000000000000290DA50EAB0CC40CB60C073E
:022D5C000D0068
:00000001FF
